{
  "contractName": "BabyDogeMarketplace",
  "abi": [
    {
      "inputs": [
        {
          "internalType": "address",
          "name": "_babyDogeNFT",
          "type": "address"
        },
        {
          "internalType": "uint256[3]",
          "name": "_prices",
          "type": "uint256[3]"
        },
        {
          "internalType": "uint256[3]",
          "name": "_total",
          "type": "uint256[3]"
        },
        {
          "internalType": "uint256[3]",
          "name": "_totalForPresale",
          "type": "uint256[3]"
        },
        {
          "internalType": "uint256[3]",
          "name": "_totalForOwner",
          "type": "uint256[3]"
        },
        {
          "internalType": "uint256[3][3]",
          "name": "_random",
          "type": "uint256[3][3]"
        },
        {
          "internalType": "address",
          "name": "_superOwner",
          "type": "address"
        }
      ],
      "stateMutability": "nonpayable",
      "type": "constructor"
    },
    {
      "anonymous": false,
      "inputs": [
        {
          "indexed": true,
          "internalType": "address",
          "name": "previousOwner",
          "type": "address"
        },
        {
          "indexed": true,
          "internalType": "address",
          "name": "newOwner",
          "type": "address"
        }
      ],
      "name": "OwnershipTransferred",
      "type": "event"
    },
    {
      "anonymous": false,
      "inputs": [
        {
          "indexed": false,
          "internalType": "address",
          "name": "buyer",
          "type": "address"
        },
        {
          "indexed": false,
          "internalType": "uint256",
          "name": "requestedTokenCategory",
          "type": "uint256"
        },
        {
          "indexed": false,
          "internalType": "uint256",
          "name": "givenTokenCategory",
          "type": "uint256"
        },
        {
          "indexed": false,
          "internalType": "uint256",
          "name": "startTokenId",
          "type": "uint256"
        },
        {
          "indexed": false,
          "internalType": "uint256",
          "name": "totalToken",
          "type": "uint256"
        },
        {
          "indexed": false,
          "internalType": "uint256",
          "name": "price",
          "type": "uint256"
        },
        {
          "indexed": false,
          "internalType": "uint256",
          "name": "boughtAt",
          "type": "uint256"
        },
        {
          "indexed": false,
          "internalType": "uint256",
          "name": "stage",
          "type": "uint256"
        }
      ],
      "name": "buy",
      "type": "event"
    },
    {
      "anonymous": false,
      "inputs": [
        {
          "indexed": false,
          "internalType": "address",
          "name": "buyer",
          "type": "address"
        },
        {
          "indexed": false,
          "internalType": "uint256",
          "name": "tokenCategory",
          "type": "uint256"
        },
        {
          "indexed": false,
          "internalType": "uint256",
          "name": "startTokenId",
          "type": "uint256"
        },
        {
          "indexed": false,
          "internalType": "uint256",
          "name": "totalToken",
          "type": "uint256"
        },
        {
          "indexed": false,
          "internalType": "uint256",
          "name": "boughtAt",
          "type": "uint256"
        }
      ],
      "name": "buyForOwner",
      "type": "event"
    },
    {
      "inputs": [],
      "name": "TOTAL_CATEGORIES",
      "outputs": [
        {
          "internalType": "uint256",
          "name": "",
          "type": "uint256"
        }
      ],
      "stateMutability": "view",
      "type": "function",
      "constant": true
    },
    {
      "inputs": [],
      "name": "babyDogeNFT",
      "outputs": [
        {
          "internalType": "contract BabyDogeNFT",
          "name": "",
          "type": "address"
        }
      ],
      "stateMutability": "view",
      "type": "function",
      "constant": true
    },
    {
      "inputs": [
        {
          "internalType": "uint256",
          "name": "",
          "type": "uint256"
        }
      ],
      "name": "codesDetails",
      "outputs": [
        {
          "internalType": "uint256",
          "name": "totalCollected",
          "type": "uint256"
        },
        {
          "internalType": "uint256",
          "name": "totalGiven",
          "type": "uint256"
        }
      ],
      "stateMutability": "view",
      "type": "function",
      "constant": true
    },
    {
      "inputs": [],
      "name": "owner",
      "outputs": [
        {
          "internalType": "address",
          "name": "",
          "type": "address"
        }
      ],
      "stateMutability": "view",
      "type": "function",
      "constant": true
    },
    {
      "inputs": [
        {
          "internalType": "uint256",
          "name": "",
          "type": "uint256"
        },
        {
          "internalType": "uint256",
          "name": "",
          "type": "uint256"
        }
      ],
      "name": "randomAvailable",
      "outputs": [
        {
          "internalType": "uint256",
          "name": "",
          "type": "uint256"
        }
      ],
      "stateMutability": "view",
      "type": "function",
      "constant": true
    },
    {
      "inputs": [],
      "name": "renounceOwnership",
      "outputs": [],
      "stateMutability": "nonpayable",
      "type": "function"
    },
    {
      "inputs": [],
      "name": "stage",
      "outputs": [
        {
          "internalType": "uint256",
          "name": "",
          "type": "uint256"
        }
      ],
      "stateMutability": "view",
      "type": "function",
      "constant": true
    },
    {
      "inputs": [],
      "name": "superOwner",
      "outputs": [
        {
          "internalType": "address",
          "name": "",
          "type": "address"
        }
      ],
      "stateMutability": "view",
      "type": "function",
      "constant": true
    },
    {
      "inputs": [
        {
          "internalType": "uint256",
          "name": "",
          "type": "uint256"
        }
      ],
      "name": "tokenCategories",
      "outputs": [
        {
          "internalType": "uint256",
          "name": "price",
          "type": "uint256"
        },
        {
          "internalType": "uint256",
          "name": "total",
          "type": "uint256"
        },
        {
          "internalType": "uint256",
          "name": "totalForPresale",
          "type": "uint256"
        },
        {
          "internalType": "uint256",
          "name": "totalForOwner",
          "type": "uint256"
        },
        {
          "internalType": "uint256",
          "name": "totalMinted",
          "type": "uint256"
        },
        {
          "internalType": "uint256",
          "name": "totalMintedForOwner",
          "type": "uint256"
        },
        {
          "internalType": "uint256",
          "name": "nextTokenId",
          "type": "uint256"
        }
      ],
      "stateMutability": "view",
      "type": "function",
      "constant": true
    },
    {
      "inputs": [
        {
          "internalType": "address",
          "name": "newOwner",
          "type": "address"
        }
      ],
      "name": "transferOwnership",
      "outputs": [],
      "stateMutability": "nonpayable",
      "type": "function"
    },
    {
      "inputs": [
        {
          "internalType": "address",
          "name": "",
          "type": "address"
        }
      ],
      "name": "whitelistedAddress",
      "outputs": [
        {
          "internalType": "bool",
          "name": "",
          "type": "bool"
        }
      ],
      "stateMutability": "view",
      "type": "function",
      "constant": true
    },
    {
      "inputs": [
        {
          "internalType": "uint256",
          "name": "_tokenCategory",
          "type": "uint256"
        },
        {
          "internalType": "uint256",
          "name": "_totalUnits",
          "type": "uint256"
        },
        {
          "internalType": "uint256",
          "name": "_code",
          "type": "uint256"
        }
      ],
      "name": "buyToken",
      "outputs": [],
      "stateMutability": "payable",
      "type": "function",
      "payable": true
    },
    {
      "inputs": [],
      "name": "updateStage",
      "outputs": [],
      "stateMutability": "nonpayable",
      "type": "function"
    },
    {
      "inputs": [
        {
          "internalType": "uint256[3]",
          "name": "_prices",
          "type": "uint256[3]"
        }
      ],
      "name": "updatePrices",
      "outputs": [],
      "stateMutability": "nonpayable",
      "type": "function"
    },
    {
      "inputs": [
        {
          "internalType": "address[]",
          "name": "_userAddress",
          "type": "address[]"
        }
      ],
      "name": "whitelist",
      "outputs": [],
      "stateMutability": "nonpayable",
      "type": "function"
    },
    {
      "inputs": [
        {
          "internalType": "uint256",
          "name": "_code",
          "type": "uint256"
        },
        {
          "internalType": "address payable",
          "name": "_userAddress",
          "type": "address"
        }
      ],
      "name": "giveBenefit",
      "outputs": [],
      "stateMutability": "nonpayable",
      "type": "function"
    },
    {
      "inputs": [
        {
          "internalType": "address[]",
          "name": "_userAddress",
          "type": "address[]"
        }
      ],
      "name": "blacklist",
      "outputs": [],
      "stateMutability": "nonpayable",
      "type": "function"
    },
    {
      "inputs": [],
      "name": "withdraw",
      "outputs": [],
      "stateMutability": "nonpayable",
      "type": "function"
    },
    {
      "inputs": [
        {
          "internalType": "address",
          "name": "_newSuperOwner",
          "type": "address"
        }
      ],
      "name": "changeSuperOwner",
      "outputs": [],
      "stateMutability": "nonpayable",
      "type": "function"
    },
    {
      "inputs": [
        {
          "internalType": "uint256",
          "name": "_tokenCategory",
          "type": "uint256"
        },
        {
          "internalType": "uint256",
          "name": "_totalUnits",
          "type": "uint256"
        }
      ],
      "name": "buyTokenForOwner",
      "outputs": [],
      "stateMutability": "nonpayable",
      "type": "function"
    },
    {
      "inputs": [
        {
          "internalType": "uint256",
          "name": "_category",
          "type": "uint256"
        }
      ],
      "name": "currentPrice",
      "outputs": [
        {
          "internalType": "uint256",
          "name": "",
          "type": "uint256"
        }
      ],
      "stateMutability": "view",
      "type": "function",
      "constant": true
    },
    {
      "inputs": [
        {
          "internalType": "uint256",
          "name": "_category",
          "type": "uint256"
        }
      ],
      "name": "availableTokens",
      "outputs": [
        {
          "internalType": "uint256",
          "name": "",
          "type": "uint256"
        }
      ],
      "stateMutability": "view",
      "type": "function",
      "constant": true
    },
    {
      "inputs": [
        {
          "internalType": "uint256",
          "name": "_category",
          "type": "uint256"
        }
      ],
      "name": "availableTokensForOwner",
      "outputs": [
        {
          "internalType": "uint256",
          "name": "",
          "type": "uint256"
        }
      ],
      "stateMutability": "view",
      "type": "function",
      "constant": true
    },
    {
      "inputs": [
        {
          "internalType": "uint256",
          "name": "_code",
          "type": "uint256"
        }
      ],
      "name": "beneftiDetails",
      "outputs": [
        {
          "internalType": "uint256",
          "name": "",
          "type": "uint256"
        },
        {
          "internalType": "uint256",
          "name": "",
          "type": "uint256"
        }
      ],
      "stateMutability": "view",
      "type": "function",
      "constant": true
    }
  ],
  "bytecode": "0x60806040523480156200001157600080fd5b5060405162003d0938038062003d09833981810160405281019062000037919062000a29565b620000576200004b6200068760201b60201c565b6200068f60201b60201c565b86600160006101000a81548173ffffffffffffffffffffffffffffffffffffffff021916908373ffffffffffffffffffffffffffffffffffffffff16021790555060006001905060005b60038160ff161015620006375760008160ff1603620001c8576000848260ff1660038110620000d557620000d462000ae0565b5b6020020151600260038110620000f057620000ef62000ae0565b5b6020020151858360ff16600381106200010e576200010d62000ae0565b5b602002015160016003811062000129576200012862000ae0565b5b6020020151868460ff166003811062000147576200014662000ae0565b5b602002015160006003811062000162576200016162000ae0565b5b602002015162000173919062000b3e565b6200017f919062000b3e565b14620001c2576040517f08c379a0000000000000000000000000000000000000000000000000000000008152600401620001b99062000bfc565b60405180910390fd5b6200031d565b60018160ff16036200029d576000848260ff1660038110620001ef57620001ee62000ae0565b5b60200201516002600381106200020a576200020962000ae0565b5b6020020151858360ff166003811062000228576200022762000ae0565b5b602002015160016003811062000243576200024262000ae0565b5b602002015162000254919062000b3e565b1462000297576040517f08c379a00000000000000000000000000000000000000000000000000000000081526004016200028e9062000bfc565b60405180910390fd5b6200031c565b6000848260ff1660038110620002b857620002b762000ae0565b5b6020020151600260038110620002d357620002d262000ae0565b5b6020020151146200031b576040517f08c379a0000000000000000000000000000000000000000000000000000000008152600401620003129062000bfc565b60405180910390fd5b5b5b868160ff166003811062000336576200033562000ae0565b5b6020020151848260ff166003811062000354576200035362000ae0565b5b60200201516002600381106200036f576200036e62000ae0565b5b6020020151858360ff16600381106200038d576200038c62000ae0565b5b6020020151600160038110620003a857620003a762000ae0565b5b6020020151868460ff1660038110620003c657620003c562000ae0565b5b6020020151600060038110620003e157620003e062000ae0565b5b6020020151620003f2919062000b3e565b620003fe919062000b3e565b111562000442576040517f08c379a0000000000000000000000000000000000000000000000000000000008152600401620004399062000c6e565b60405180910390fd5b848160ff16600381106200045b576200045a62000ae0565b5b6020020151868260ff166003811062000479576200047862000ae0565b5b60200201516200048a919062000b3e565b878260ff1660038110620004a357620004a262000ae0565b5b60200201511015620004ec576040517f08c379a0000000000000000000000000000000000000000000000000000000008152600401620004e39062000ce0565b60405180910390fd5b6040518060e00160405280898360ff166003811062000510576200050f62000ae0565b5b60200201518152602001888360ff166003811062000533576200053262000ae0565b5b60200201518152602001878360ff166003811062000556576200055562000ae0565b5b60200201518152602001868360ff166003811062000579576200057862000ae0565b5b60200201518152602001600081526020016000815260200183815250600460008360ff168152602001908152602001600020600082015181600001556020820151816001015560408201518160020155606082015181600301556080820151816004015560a0820151816005015560c08201518160060155905050868160ff16600381106200060d576200060c62000ae0565b5b6020020151826200061f919062000b3e565b915080806200062e9062000d0f565b915050620000a1565b5081600360006101000a81548173ffffffffffffffffffffffffffffffffffffffff021916908373ffffffffffffffffffffffffffffffffffffffff160217905550505050505050505062000d3d565b600033905090565b60008060009054906101000a900473ffffffffffffffffffffffffffffffffffffffff169050816000806101000a81548173ffffffffffffffffffffffffffffffffffffffff021916908373ffffffffffffffffffffffffffffffffffffffff1602179055508173ffffffffffffffffffffffffffffffffffffffff168173ffffffffffffffffffffffffffffffffffffffff167f8be0079c531659141344cd1fd0a4f28419497f9722a3daafe3b4186f6b6457e060405160405180910390a35050565b6000604051905090565b600080fd5b600073ffffffffffffffffffffffffffffffffffffffff82169050919050565b60006200078f8262000762565b9050919050565b620007a18162000782565b8114620007ad57600080fd5b50565b600081519050620007c18162000796565b92915050565b600080fd5b6000601f19601f8301169050919050565b7f4e487b7100000000000000000000000000000000000000000000000000000000600052604160045260246000fd5b6200081782620007cc565b810181811067ffffffffffffffff82111715620008395762000838620007dd565b5b80604052505050565b60006200084e62000753565b90506200085c82826200080c565b919050565b600067ffffffffffffffff8211156200087f576200087e620007dd565b5b602082029050919050565b600080fd5b6000819050919050565b620008a4816200088f565b8114620008b057600080fd5b50565b600081519050620008c48162000899565b92915050565b6000620008e1620008db8462000861565b62000842565b90508060208402830185811115620008fe57620008fd6200088a565b5b835b818110156200092b5780620009168882620008b3565b84526020840193505060208101905062000900565b5050509392505050565b600082601f8301126200094d576200094c620007c7565b5b60036200095c848285620008ca565b91505092915050565b600067ffffffffffffffff821115620009835762000982620007dd565b5b602082029050919050565b6000620009a56200099f8462000965565b62000842565b90508060608402830185811115620009c257620009c16200088a565b5b835b81811015620009ef5780620009da888262000935565b845260208401935050606081019050620009c4565b5050509392505050565b600082601f83011262000a115762000a10620007c7565b5b600362000a208482856200098e565b91505092915050565b60008060008060008060006102e0888a03121562000a4c5762000a4b6200075d565b5b600062000a5c8a828b01620007b0565b975050602062000a6f8a828b0162000935565b965050608062000a828a828b0162000935565b95505060e062000a958a828b0162000935565b94505061014062000aa98a828b0162000935565b9350506101a062000abd8a828b01620009f9565b9250506102c062000ad18a828b01620007b0565b91505092959891949750929550565b7f4e487b7100000000000000000000000000000000000000000000000000000000600052603260045260246000fd5b7f4e487b7100000000000000000000000000000000000000000000000000000000600052601160045260246000fd5b600062000b4b826200088f565b915062000b58836200088f565b9250827fffffffffffffffffffffffffffffffffffffffffffffffffffffffffffffffff0382111562000b905762000b8f62000b0f565b5b828201905092915050565b600082825260208201905092915050565b7f496e76616c69642052616e646f6d000000000000000000000000000000000000600082015250565b600062000be4600e8362000b9b565b915062000bf18262000bac565b602082019050919050565b6000602082019050818103600083015262000c178162000bd5565b9050919050565b7f496e76616c69642052616e646f6d2073756d0000000000000000000000000000600082015250565b600062000c5660128362000b9b565b915062000c638262000c1e565b602082019050919050565b6000602082019050818103600083015262000c898162000c47565b9050919050565b7f496e76616c696420746f6b656e20636f756e7473000000000000000000000000600082015250565b600062000cc860148362000b9b565b915062000cd58262000c90565b602082019050919050565b6000602082019050818103600083015262000cfb8162000cb9565b9050919050565b600060ff82169050919050565b600062000d1c8262000d02565b915060ff820362000d325762000d3162000b0f565b5b600182019050919050565b612fbc8062000d4d6000396000f3fe60806040526004361061014b5760003560e01c80639523c4cf116100b6578063c062f5781161006f578063c062f57814610484578063c30796ab1461049b578063de2d554b146104d8578063de5fef91146104f4578063ef571f3614610531578063f2fde38b1461056e5761014b565b80639523c4cf1461037657806396ff2d611461039f578063a7777b4d146103ca578063ad64d068146103f3578063bd8aa78014610430578063c040e6b8146104595761014b565b8063715018a611610108578063715018a6146102655780637a3c4c171461027c57806380bd4457146102b957806387dcd2b6146102e257806389ee12bd1461030d5780638da5cb5b1461034b5761014b565b8063041f173f146101505780631044c66b1461017957806321b95ad4146101a25780633b375003146101e55780633ca9d06c146102235780633ccfd60b1461024e575b600080fd5b34801561015c57600080fd5b5061017760048036038101906101729190612022565b610597565b005b34801561018557600080fd5b506101a0600480360381019061019b919061206b565b6106a8565b005b3480156101ae57600080fd5b506101c960048036038101906101c491906120ce565b6107eb565b6040516101dc979695949392919061210a565b60405180910390f35b3480156101f157600080fd5b5061020c600480360381019061020791906120ce565b61082d565b60405161021a929190612179565b60405180910390f35b34801561022f57600080fd5b50610238610851565b60405161024591906121a2565b60405180910390f35b34801561025a57600080fd5b50610263610856565b005b34801561027157600080fd5b5061027a610972565b005b34801561028857600080fd5b506102a3600480360381019061029e91906120ce565b6109fa565b6040516102b091906121a2565b60405180910390f35b3480156102c557600080fd5b506102e060048036038101906102db919061226e565b610b58565b005b3480156102ee57600080fd5b506102f7610c32565b60405161030491906122aa565b60405180910390f35b34801561031957600080fd5b50610334600480360381019061032f91906120ce565b610c58565b604051610342929190612179565b60405180910390f35b34801561035757600080fd5b50610360610c92565b60405161036d91906122aa565b60405180910390f35b34801561038257600080fd5b5061039d600480360381019061039891906122c5565b610cbb565b005b3480156103ab57600080fd5b506103b4610ff1565b6040516103c19190612364565b60405180910390f35b3480156103d657600080fd5b506103f160048036038101906103ec91906123bd565b611017565b005b3480156103ff57600080fd5b5061041a600480360381019061041591906120ce565b61124c565b60405161042791906121a2565b60405180910390f35b34801561043c57600080fd5b5061045760048036038101906104529190612022565b6112d1565b005b34801561046557600080fd5b5061046e6113e2565b60405161047b91906121a2565b60405180910390f35b34801561049057600080fd5b506104996113e8565b005b3480156104a757600080fd5b506104c260048036038101906104bd919061206b565b61146e565b6040516104cf9190612418565b60405180910390f35b6104f260048036038101906104ed9190612433565b61148e565b005b34801561050057600080fd5b5061051b600480360381019061051691906120ce565b611be7565b60405161052891906121a2565b60405180910390f35b34801561053d57600080fd5b50610558600480360381019061055391906122c5565b611c6c565b60405161056591906121a2565b60405180910390f35b34801561057a57600080fd5b506105956004803603810190610590919061206b565b611c94565b005b61059f611d8b565b73ffffffffffffffffffffffffffffffffffffffff166105bd610c92565b73ffffffffffffffffffffffffffffffffffffffff1614610613576040517f08c379a000000000000000000000000000000000000000000000000000000000815260040161060a906124e3565b60405180910390fd5b60005b81518110156106a45760006006600084848151811061063857610637612503565b5b602002602001015173ffffffffffffffffffffffffffffffffffffffff1673ffffffffffffffffffffffffffffffffffffffff16815260200190815260200160002060006101000a81548160ff021916908315150217905550808061069c90612561565b915050610616565b5050565b600360009054906101000a900473ffffffffffffffffffffffffffffffffffffffff1673ffffffffffffffffffffffffffffffffffffffff163373ffffffffffffffffffffffffffffffffffffffff1614610738576040517f08c379a000000000000000000000000000000000000000000000000000000000815260040161072f906125f5565b60405180910390fd5b600073ffffffffffffffffffffffffffffffffffffffff168173ffffffffffffffffffffffffffffffffffffffff16036107a7576040517f08c379a000000000000000000000000000000000000000000000000000000000815260040161079e90612661565b60405180910390fd5b80600360006101000a81548173ffffffffffffffffffffffffffffffffffffffff021916908373ffffffffffffffffffffffffffffffffffffffff16021790555050565b60046020528060005260406000206000915090508060000154908060010154908060020154908060030154908060040154908060050154908060060154905087565b60076020528060005260406000206000915090508060000154908060010154905082565b600381565b600360009054906101000a900473ffffffffffffffffffffffffffffffffffffffff1673ffffffffffffffffffffffffffffffffffffffff163373ffffffffffffffffffffffffffffffffffffffff16146108e6576040517f08c379a00000000000000000000000000000000000000000000000000000000081526004016108dd906125f5565b60405180910390fd5b60004711610929576040517f08c379a0000000000000000000000000000000000000000000000000000000008152600401610920906126cd565b60405180910390fd5b3373ffffffffffffffffffffffffffffffffffffffff166108fc479081150290604051600060405180830381858888f1935050505015801561096f573d6000803e3d6000fd5b50565b61097a611d8b565b73ffffffffffffffffffffffffffffffffffffffff16610998610c92565b73ffffffffffffffffffffffffffffffffffffffff16146109ee576040517f08c379a00000000000000000000000000000000000000000000000000000000081526004016109e5906124e3565b60405180910390fd5b6109f86000611d93565b565b60008160038110610a40576040517f08c379a0000000000000000000000000000000000000000000000000000000008152600401610a3790612739565b60405180910390fd5b6000600460008581526020019081526020016000206040518060e0016040529081600082015481526020016001820154815260200160028201548152602001600382015481526020016004820154815260200160058201548152602001600682015481525050905060028160200151610ab99190612788565b816080015110158015610aeb5750600481602001516003610ada91906127b9565b610ae49190612788565b8160800151105b15610b095760028160000151610b0191906127b9565b925050610b52565b600481602001516003610b1c91906127b9565b610b269190612788565b816080015110610b495760048160000151610b4191906127b9565b925050610b52565b80600001519250505b50919050565b610b60611d8b565b73ffffffffffffffffffffffffffffffffffffffff16610b7e610c92565b73ffffffffffffffffffffffffffffffffffffffff1614610bd4576040517f08c379a0000000000000000000000000000000000000000000000000000000008152600401610bcb906124e3565b60405180910390fd5b60005b60038160ff161015610c2e57818160ff1660038110610bf957610bf8612503565b5b6020020151600460008360ff168152602001908152602001600020600001819055508080610c2690612820565b915050610bd7565b5050565b600360009054906101000a900473ffffffffffffffffffffffffffffffffffffffff1681565b6000806007600084815260200190815260200160002060000154600760008581526020019081526020016000206001015491509150915091565b60008060009054906101000a900473ffffffffffffffffffffffffffffffffffffffff16905090565b610cc3611d8b565b73ffffffffffffffffffffffffffffffffffffffff16610ce1610c92565b73ffffffffffffffffffffffffffffffffffffffff1614610d37576040517f08c379a0000000000000000000000000000000000000000000000000000000008152600401610d2e906124e3565b60405180910390fd5b8160038110610d7b576040517f08c379a0000000000000000000000000000000000000000000000000000000008152600401610d7290612739565b60405180910390fd5b600160009054906101000a900473ffffffffffffffffffffffffffffffffffffffff1673ffffffffffffffffffffffffffffffffffffffff16637501f7416040518163ffffffff1660e01b81526004016020604051808303816000875af1158015610dea573d6000803e3d6000fd5b505050506040513d601f19601f82011682018060405250810190610e0e919061285e565b8211158015610e1d5750600082115b610e5c576040517f08c379a0000000000000000000000000000000000000000000000000000000008152600401610e53906128d7565b60405180910390fd5b60006004600085815260200190815260200160002090506000816006015490508160030154848360050154610e9191906128f7565b1115610ed2576040517f08c379a0000000000000000000000000000000000000000000000000000000008152600401610ec990612999565b60405180910390fd5b838260040154610ee291906128f7565b8260040181905550838260050154610efa91906128f7565b8260050181905550838260060154610f1291906128f7565b8260060181905550600160009054906101000a900473ffffffffffffffffffffffffffffffffffffffff1673ffffffffffffffffffffffffffffffffffffffff1663156e29f63383876040518463ffffffff1660e01b8152600401610f79939291906129b9565b600060405180830381600087803b158015610f9357600080fd5b505af1158015610fa7573d6000803e3d6000fd5b505050507f1e091b45ac802e6086817527d10af044f4cc8bbbe40d89b5440e9b90959735dd3386838742604051610fe29594939291906129f0565b60405180910390a15050505050565b600160009054906101000a900473ffffffffffffffffffffffffffffffffffffffff1681565b61101f611d8b565b73ffffffffffffffffffffffffffffffffffffffff1661103d610c92565b73ffffffffffffffffffffffffffffffffffffffff1614611093576040517f08c379a000000000000000000000000000000000000000000000000000000000815260040161108a906124e3565b60405180910390fd5b600082036110d6576040517f08c379a00000000000000000000000000000000000000000000000000000000081526004016110cd90612a8f565b60405180910390fd5b600073ffffffffffffffffffffffffffffffffffffffff168173ffffffffffffffffffffffffffffffffffffffff1603611145576040517f08c379a000000000000000000000000000000000000000000000000000000000815260040161113c90612661565b60405180910390fd5b60006007600084815260200190815260200160002060010154600760008581526020019081526020016000206000015461117f9190612aaf565b9050600081116111c4576040517f08c379a00000000000000000000000000000000000000000000000000000000081526004016111bb90612b2f565b60405180910390fd5b8060076000858152602001908152602001600020600101546111e691906128f7565b60076000858152602001908152602001600020600101819055508173ffffffffffffffffffffffffffffffffffffffff166108fc829081150290604051600060405180830381858888f19350505050158015611246573d6000803e3d6000fd5b50505050565b600080600460008481526020019081526020016000206040518060e00160405290816000820154815260200160018201548152602001600282015481526020016003820154815260200160048201548152602001600582015481526020016006820154815250509050806080015181602001516112c99190612aaf565b915050919050565b6112d9611d8b565b73ffffffffffffffffffffffffffffffffffffffff166112f7610c92565b73ffffffffffffffffffffffffffffffffffffffff161461134d576040517f08c379a0000000000000000000000000000000000000000000000000000000008152600401611344906124e3565b60405180910390fd5b60005b81518110156113de5760016006600084848151811061137257611371612503565b5b602002602001015173ffffffffffffffffffffffffffffffffffffffff1673ffffffffffffffffffffffffffffffffffffffff16815260200190815260200160002060006101000a81548160ff02191690831515021790555080806113d690612561565b915050611350565b5050565b60025481565b6113f0611d8b565b73ffffffffffffffffffffffffffffffffffffffff1661140e610c92565b73ffffffffffffffffffffffffffffffffffffffff1614611464576040517f08c379a000000000000000000000000000000000000000000000000000000000815260040161145b906124e3565b60405180910390fd5b6001600281905550565b60066020528060005260406000206000915054906101000a900460ff1681565b82600381106114d2576040517f08c379a00000000000000000000000000000000000000000000000000000000081526004016114c990612739565b60405180910390fd5b600160009054906101000a900473ffffffffffffffffffffffffffffffffffffffff1673ffffffffffffffffffffffffffffffffffffffff16637501f7416040518163ffffffff1660e01b81526004016020604051808303816000875af1158015611541573d6000803e3d6000fd5b505050506040513d601f19601f82011682018060405250810190611565919061285e565b83111580156115745750600083115b6115b3576040517f08c379a00000000000000000000000000000000000000000000000000000000081526004016115aa906128d7565b60405180910390fd5b60008390506000806004600088815260200190815260200160002090506000816006015490506000600254036116d957600660003373ffffffffffffffffffffffffffffffffffffffff1673ffffffffffffffffffffffffffffffffffffffff16815260200190815260200160002060009054906101000a900460ff1661166f576040517f08c379a000000000000000000000000000000000000000000000000000000000815260040161166690612b9b565b60405180910390fd5b816002015487836005015484600401546116899190612aaf565b61169391906128f7565b11156116d4576040517f08c379a00000000000000000000000000000000000000000000000000000000081526004016116cb90612c2d565b60405180910390fd5b61174e565b816003015482600101546116ed9190612aaf565b87836005015484600401546117029190612aaf565b61170c91906128f7565b111561174d576040517f08c379a000000000000000000000000000000000000000000000000000000000815260040161174490612999565b60405180910390fd5b5b6000611759896109fa565b8861176491906127b9565b9050803410156117a9576040517f08c379a00000000000000000000000000000000000000000000000000000000081526004016117a090612cbf565b60405180910390fd5b6000600f44426040516020016117c0929190612d00565b6040516020818303038152906040528051906020012060001c6117e39190612d2c565b905060008a821180156117f65750600382105b801561182857506000600560008481526020019081526020016000208c6003811061182457611823612503565b5b0154115b15611941576000600460008481526020019081526020016000209050600060025403611877578060020154816005015482600401546118679190612aaf565b101561187257600191505b6118ab565b8560030154866001015461188b9190612aaf565b8660050154876004015461189f9190612aaf565b10156118aa57600191505b5b811561193b578060040160008154809291906118c690612561565b9190505550806006015496508060060160008154809291906118e790612561565b9190505550600560008481526020019081526020016000208c6003811061191157611910612503565b5b01600081548092919061192390612d5d565b9190505550878061193390612d5d565b98505061193f565b8b92505b505b86856004015461195191906128f7565b856004018190555086856006015461196991906128f7565b8560060181905550600160009054906101000a900473ffffffffffffffffffffffffffffffffffffffff1673ffffffffffffffffffffffffffffffffffffffff1663156e29f633868a6040518463ffffffff1660e01b81526004016119d0939291906129b9565b600060405180830381600087803b1580156119ea57600080fd5b505af11580156119fe573d6000803e3d6000fd5b505050506000861115611ae657600160009054906101000a900473ffffffffffffffffffffffffffffffffffffffff1673ffffffffffffffffffffffffffffffffffffffff1663156e29f6338860016040518463ffffffff1660e01b8152600401611a6b93929190612dc1565b600060405180830381600087803b158015611a8557600080fd5b505af1158015611a99573d6000803e3d6000fd5b505050507f95a2a36ba8bd7986653b9d20d145fdc80d943ec36194b4ddff4e9051ba16d541338c848960018842600254604051611add989796959493929190612df8565b60405180910390a15b600034905060008a14611b2957600234611b009190612788565b90508034611b0e9190612aaf565b600760008c8152602001908152602001600020600001819055505b600360009054906101000a900473ffffffffffffffffffffffffffffffffffffffff1673ffffffffffffffffffffffffffffffffffffffff166108fc829081150290604051600060405180830381858888f19350505050158015611b91573d6000803e3d6000fd5b507f95a2a36ba8bd7986653b9d20d145fdc80d943ec36194b4ddff4e9051ba16d541338d8e888c8942600254604051611bd1989796959493929190612e76565b60405180910390a1505050505050505050505050565b600080600460008481526020019081526020016000206040518060e001604052908160008201548152602001600182015481526020016002820154815260200160038201548152602001600482015481526020016005820154815260200160068201548152505090508060a001518160600151611c649190612aaf565b915050919050565b60056020528160005260406000208160038110611c8857600080fd5b01600091509150505481565b611c9c611d8b565b73ffffffffffffffffffffffffffffffffffffffff16611cba610c92565b73ffffffffffffffffffffffffffffffffffffffff1614611d10576040517f08c379a0000000000000000000000000000000000000000000000000000000008152600401611d07906124e3565b60405180910390fd5b600073ffffffffffffffffffffffffffffffffffffffff168173ffffffffffffffffffffffffffffffffffffffff1603611d7f576040517f08c379a0000000000000000000000000000000000000000000000000000000008152600401611d7690612f66565b60405180910390fd5b611d8881611d93565b50565b600033905090565b60008060009054906101000a900473ffffffffffffffffffffffffffffffffffffffff169050816000806101000a81548173ffffffffffffffffffffffffffffffffffffffff021916908373ffffffffffffffffffffffffffffffffffffffff1602179055508173ffffffffffffffffffffffffffffffffffffffff168173ffffffffffffffffffffffffffffffffffffffff167f8be0079c531659141344cd1fd0a4f28419497f9722a3daafe3b4186f6b6457e060405160405180910390a35050565b6000604051905090565b600080fd5b600080fd5b600080fd5b6000601f19601f8301169050919050565b7f4e487b7100000000000000000000000000000000000000000000000000000000600052604160045260246000fd5b611eb982611e70565b810181811067ffffffffffffffff82111715611ed857611ed7611e81565b5b80604052505050565b6000611eeb611e57565b9050611ef78282611eb0565b919050565b600067ffffffffffffffff821115611f1757611f16611e81565b5b602082029050602081019050919050565b600080fd5b600073ffffffffffffffffffffffffffffffffffffffff82169050919050565b6000611f5882611f2d565b9050919050565b611f6881611f4d565b8114611f7357600080fd5b50565b600081359050611f8581611f5f565b92915050565b6000611f9e611f9984611efc565b611ee1565b90508083825260208201905060208402830185811115611fc157611fc0611f28565b5b835b81811015611fea5780611fd68882611f76565b845260208401935050602081019050611fc3565b5050509392505050565b600082601f83011261200957612008611e6b565b5b8135612019848260208601611f8b565b91505092915050565b60006020828403121561203857612037611e61565b5b600082013567ffffffffffffffff81111561205657612055611e66565b5b61206284828501611ff4565b91505092915050565b60006020828403121561208157612080611e61565b5b600061208f84828501611f76565b91505092915050565b6000819050919050565b6120ab81612098565b81146120b657600080fd5b50565b6000813590506120c8816120a2565b92915050565b6000602082840312156120e4576120e3611e61565b5b60006120f2848285016120b9565b91505092915050565b61210481612098565b82525050565b600060e08201905061211f600083018a6120fb565b61212c60208301896120fb565b61213960408301886120fb565b61214660608301876120fb565b61215360808301866120fb565b61216060a08301856120fb565b61216d60c08301846120fb565b98975050505050505050565b600060408201905061218e60008301856120fb565b61219b60208301846120fb565b9392505050565b60006020820190506121b760008301846120fb565b92915050565b600067ffffffffffffffff8211156121d8576121d7611e81565b5b602082029050919050565b60006121f66121f1846121bd565b611ee1565b905080602084028301858111156122105761220f611f28565b5b835b81811015612239578061222588826120b9565b845260208401935050602081019050612212565b5050509392505050565b600082601f83011261225857612257611e6b565b5b60036122658482856121e3565b91505092915050565b60006060828403121561228457612283611e61565b5b600061229284828501612243565b91505092915050565b6122a481611f4d565b82525050565b60006020820190506122bf600083018461229b565b92915050565b600080604083850312156122dc576122db611e61565b5b60006122ea858286016120b9565b92505060206122fb858286016120b9565b9150509250929050565b6000819050919050565b600061232a61232561232084611f2d565b612305565b611f2d565b9050919050565b600061233c8261230f565b9050919050565b600061234e82612331565b9050919050565b61235e81612343565b82525050565b60006020820190506123796000830184612355565b92915050565b600061238a82611f2d565b9050919050565b61239a8161237f565b81146123a557600080fd5b50565b6000813590506123b781612391565b92915050565b600080604083850312156123d4576123d3611e61565b5b60006123e2858286016120b9565b92505060206123f3858286016123a8565b9150509250929050565b60008115159050919050565b612412816123fd565b82525050565b600060208201905061242d6000830184612409565b92915050565b60008060006060848603121561244c5761244b611e61565b5b600061245a868287016120b9565b935050602061246b868287016120b9565b925050604061247c868287016120b9565b9150509250925092565b600082825260208201905092915050565b7f4f776e61626c653a2063616c6c6572206973206e6f7420746865206f776e6572600082015250565b60006124cd602083612486565b91506124d882612497565b602082019050919050565b600060208201905081810360008301526124fc816124c0565b9050919050565b7f4e487b7100000000000000000000000000000000000000000000000000000000600052603260045260246000fd5b7f4e487b7100000000000000000000000000000000000000000000000000000000600052601160045260246000fd5b600061256c82612098565b91507fffffffffffffffffffffffffffffffffffffffffffffffffffffffffffffffff820361259e5761259d612532565b5b600182019050919050565b7f4f6e6c79205375706572204f776e65722063616e2063616c6c00000000000000600082015250565b60006125df601983612486565b91506125ea826125a9565b602082019050919050565b6000602082019050818103600083015261260e816125d2565b9050919050565b7f496e76616c696420616464726573730000000000000000000000000000000000600082015250565b600061264b600f83612486565b915061265682612615565b602082019050919050565b6000602082019050818103600083015261267a8161263e565b9050919050565b7f4e6f7468696e6720746f20776974686472617700000000000000000000000000600082015250565b60006126b7601383612486565b91506126c282612681565b602082019050919050565b600060208201905081810360008301526126e6816126aa565b9050919050565b7f496e76616c696420746f6b656e2063617465676f726965730000000000000000600082015250565b6000612723601883612486565b915061272e826126ed565b602082019050919050565b6000602082019050818103600083015261275281612716565b9050919050565b7f4e487b7100000000000000000000000000000000000000000000000000000000600052601260045260246000fd5b600061279382612098565b915061279e83612098565b9250826127ae576127ad612759565b5b828204905092915050565b60006127c482612098565b91506127cf83612098565b9250817fffffffffffffffffffffffffffffffffffffffffffffffffffffffffffffffff048311821515161561280857612807612532565b5b828202905092915050565b600060ff82169050919050565b600061282b82612813565b915060ff820361283e5761283d612532565b5b600182019050919050565b600081519050612858816120a2565b92915050565b60006020828403121561287457612873611e61565b5b600061288284828501612849565b91505092915050565b7f496e76616c6964206e756d626572206f6620756e697473000000000000000000600082015250565b60006128c1601783612486565b91506128cc8261288b565b602082019050919050565b600060208201905081810360008301526128f0816128b4565b9050919050565b600061290282612098565b915061290d83612098565b9250827fffffffffffffffffffffffffffffffffffffffffffffffffffffffffffffffff0382111561294257612941612532565b5b828201905092915050565b7f54686174206d75636820746f6b656e20617265206e6f74206c65667400000000600082015250565b6000612983601c83612486565b915061298e8261294d565b602082019050919050565b600060208201905081810360008301526129b281612976565b9050919050565b60006060820190506129ce600083018661229b565b6129db60208301856120fb565b6129e860408301846120fb565b949350505050565b600060a082019050612a05600083018861229b565b612a1260208301876120fb565b612a1f60408301866120fb565b612a2c60608301856120fb565b612a3960808301846120fb565b9695505050505050565b7f496e76616c696420436f64650000000000000000000000000000000000000000600082015250565b6000612a79600c83612486565b9150612a8482612a43565b602082019050919050565b60006020820190508181036000830152612aa881612a6c565b9050919050565b6000612aba82612098565b9150612ac583612098565b925082821015612ad857612ad7612532565b5b828203905092915050565b7f4e6f7468696e6720746f20676976650000000000000000000000000000000000600082015250565b6000612b19600f83612486565b9150612b2482612ae3565b602082019050919050565b60006020820190508181036000830152612b4881612b0c565b9050919050565b7f4e6f7420656c696769626c6520746f2062757920696e2070726573616c650000600082015250565b6000612b85601e83612486565b9150612b9082612b4f565b602082019050919050565b60006020820190508181036000830152612bb481612b78565b9050919050565b7f54686174206d75636820746f6b656e206e6f74206c65667420696e207072657360008201527f616c650000000000000000000000000000000000000000000000000000000000602082015250565b6000612c17602383612486565b9150612c2282612bbb565b604082019050919050565b60006020820190508181036000830152612c4681612c0a565b9050919050565b7f5072696365206f6620746f6b656e73206973206d6f7265207468616e2074686560008201527f20676976656e0000000000000000000000000000000000000000000000000000602082015250565b6000612ca9602683612486565b9150612cb482612c4d565b604082019050919050565b60006020820190508181036000830152612cd881612c9c565b9050919050565b6000819050919050565b612cfa612cf582612098565b612cdf565b82525050565b6000612d0c8285612ce9565b602082019150612d1c8284612ce9565b6020820191508190509392505050565b6000612d3782612098565b9150612d4283612098565b925082612d5257612d51612759565b5b828206905092915050565b6000612d6882612098565b915060008203612d7b57612d7a612532565b5b600182039050919050565b6000819050919050565b6000612dab612da6612da184612d86565b612305565b612098565b9050919050565b612dbb81612d90565b82525050565b6000606082019050612dd6600083018661229b565b612de360208301856120fb565b612df06040830184612db2565b949350505050565b600061010082019050612e0e600083018b61229b565b612e1b602083018a6120fb565b612e2860408301896120fb565b612e3560608301886120fb565b612e426080830187612db2565b612e4f60a08301866120fb565b612e5c60c08301856120fb565b612e6960e08301846120fb565b9998505050505050505050565b600061010082019050612e8c600083018b61229b565b612e99602083018a6120fb565b612ea660408301896120fb565b612eb360608301886120fb565b612ec060808301876120fb565b612ecd60a08301866120fb565b612eda60c08301856120fb565b612ee760e08301846120fb565b9998505050505050505050565b7f4f776e61626c653a206e6577206f776e657220697320746865207a65726f206160008201527f6464726573730000000000000000000000000000000000000000000000000000602082015250565b6000612f50602683612486565b9150612f5b82612ef4565b604082019050919050565b60006020820190508181036000830152612f7f81612f43565b905091905056fea2646970667358221220c28084ec68bddc97e1bbce59182bcef0519e6ad21e6b1e822e0fd5239b2439da64736f6c634300080d0033",
  "immutableReferences": {},
  "source": "//SPDX-License-Identifier: UNLICENSED\r\npragma solidity ^0.8.0;\r\n\r\nimport \"@openzeppelin/contracts/access/Ownable.sol\";\r\ninterface BabyDogeNFT {\r\n    function mint(address, uint256, uint256) external;\r\n    function maxMint() external returns(uint256);\r\n}\r\ncontract BabyDogeMarketplace is Ownable{\r\n    BabyDogeNFT public babyDogeNFT;\r\n    uint256 public constant TOTAL_CATEGORIES = 3;\r\n    struct CategoryDetail {\r\n        uint256 price;\r\n        uint256 total;\r\n        uint256 totalForPresale;\r\n        uint256 totalForOwner;\r\n        uint256 totalMinted;\r\n        uint256 totalMintedForOwner;\r\n        uint256 nextTokenId;\r\n    }\r\n\r\n    struct CodeDetail {\r\n        uint256 totalCollected;\r\n        uint256 totalGiven;\r\n    }\r\n    //0 = presale 1 = postSale\r\n    uint256 public stage;\r\n    address public superOwner;\r\n    //0 gold 1 platinum 2 black\r\n    mapping(uint256 => CategoryDetail) public tokenCategories;\r\n    mapping(uint256 => uint256[3]) public randomAvailable;\r\n    mapping(address => bool) public whitelistedAddress;\r\n    mapping(uint256 => CodeDetail) public codesDetails;\r\n\r\n    //events\r\n    event buy(address buyer, uint256 requestedTokenCategory,uint256 givenTokenCategory, uint256 startTokenId, uint256 totalToken, uint256 price, uint256 boughtAt, uint256 stage);\r\n    event buyForOwner(address buyer, uint256 tokenCategory, uint256 startTokenId, uint256 totalToken, uint256 boughtAt);\r\n   \r\n    //modifer\r\n    modifier isValidCategory(uint256 _tokenCategory){\r\n        require(_tokenCategory < TOTAL_CATEGORIES, 'Invalid token categories');\r\n        _;\r\n    }\r\n    constructor(\r\n        address _babyDogeNFT, \r\n        uint256[TOTAL_CATEGORIES] memory _prices, \r\n        uint256[TOTAL_CATEGORIES] memory _total, \r\n        uint256[TOTAL_CATEGORIES] memory _totalForPresale, \r\n        uint256[TOTAL_CATEGORIES] memory _totalForOwner,\r\n        uint256[TOTAL_CATEGORIES][TOTAL_CATEGORIES] memory _random,\r\n        address _superOwner) {\r\n        babyDogeNFT = BabyDogeNFT(_babyDogeNFT);\r\n        uint256 nextTokenId = 1;\r\n        for(uint8 index = 0; index < TOTAL_CATEGORIES; index++){\r\n            if(index == 0){\r\n                require(_random[index][0] + _random[index][1] + _random[index][2] == 0, 'Invalid Random');\r\n            } else if(index == 1){\r\n                require(_random[index][1] + _random[index][2] == 0, 'Invalid Random');\r\n            } else {\r\n                require(_random[index][2] == 0, 'Invalid Random');\r\n            }\r\n            require(_random[index][0] + _random[index][1] + _random[index][2] <=  _total[index], 'Invalid Random sum');\r\n            require(_total[index] >= _totalForPresale[index] + _totalForOwner[index], 'Invalid token counts');\r\n            tokenCategories[index] = CategoryDetail(_prices[index], _total[index], _totalForPresale[index], _totalForOwner[index], 0,0, nextTokenId);\r\n            nextTokenId = nextTokenId + _total[index];\r\n            \r\n        }\r\n        superOwner = _superOwner;\r\n    }\r\n\r\n    //USER FUNCTIONS\r\n    function buyToken(uint256 _tokenCategory, uint256 _totalUnits, uint256 _code) external isValidCategory(_tokenCategory) payable{\r\n        require(_totalUnits <= babyDogeNFT.maxMint() && _totalUnits > 0, 'Invalid number of units');\r\n        uint256 categoryUnit = _totalUnits;\r\n        uint256 startRandomId;\r\n        CategoryDetail storage categoryDetail = tokenCategories[_tokenCategory];\r\n        uint256 startTokenId = categoryDetail.nextTokenId;\r\n        if(stage == 0){\r\n            require(whitelistedAddress[msg.sender], 'Not eligible to buy in presale');\r\n            require(categoryDetail.totalMinted - categoryDetail.totalMintedForOwner + _totalUnits <= categoryDetail.totalForPresale, 'That much token not left in presale');\r\n        } else {\r\n            require(categoryDetail.totalMinted - categoryDetail.totalMintedForOwner + _totalUnits <= categoryDetail.total - categoryDetail.totalForOwner, 'That much token are not left');\r\n        }\r\n        uint256 price = _totalUnits * currentPrice(_tokenCategory);\r\n        require(msg.value >= price, 'Price of tokens is more than the given');\r\n        uint random = uint(keccak256(abi.encodePacked(block.difficulty, block.timestamp))) % 15;\r\n        bool randomAllowed;\r\n        if (random > _tokenCategory && random < TOTAL_CATEGORIES && randomAvailable[random][_tokenCategory] > 0){\r\n            CategoryDetail storage randomCategoryDetail = tokenCategories[random];\r\n            if(stage == 0){\r\n                if(randomCategoryDetail.totalMinted - randomCategoryDetail.totalMintedForOwner < randomCategoryDetail.totalForPresale){\r\n                    randomAllowed = true;\r\n                }\r\n            } else {\r\n                if(categoryDetail.totalMinted - categoryDetail.totalMintedForOwner < categoryDetail.total - categoryDetail.totalForOwner){\r\n                    randomAllowed = true;\r\n                }\r\n            }\r\n            if(randomAllowed){\r\n                randomCategoryDetail.totalMinted++;\r\n                startRandomId = randomCategoryDetail.nextTokenId;\r\n                randomCategoryDetail.nextTokenId++;\r\n                randomAvailable[random][_tokenCategory]--;\r\n                categoryUnit--;\r\n            }\r\n            else {\r\n                random = _tokenCategory;\r\n            }\r\n        } \r\n        categoryDetail.totalMinted = categoryDetail.totalMinted + categoryUnit;\r\n        categoryDetail.nextTokenId = categoryDetail.nextTokenId + categoryUnit;\r\n        babyDogeNFT.mint(msg.sender, startTokenId, categoryUnit);\r\n        if(startRandomId > 0){\r\n            babyDogeNFT.mint(msg.sender, startRandomId, 1);\r\n            emit buy(msg.sender, _tokenCategory, random, startRandomId, 1, price, block.timestamp, stage);\r\n        }\r\n        uint256 ownerAmount = msg.value;\r\n        if(_code != 0){\r\n            ownerAmount = msg.value/2;\r\n            codesDetails[_code].totalCollected = msg.value - ownerAmount;\r\n        }\r\n        payable(superOwner).transfer(ownerAmount);\r\n        emit buy(msg.sender, _tokenCategory, _tokenCategory, startTokenId, categoryUnit, price, block.timestamp, stage);\r\n     }\r\n\r\n    //ADMIN FUNCTIONS\r\n    function updateStage() external onlyOwner(){\r\n        stage = 1;\r\n    }\r\n\r\n    function updatePrices(uint256[TOTAL_CATEGORIES] memory _prices) external onlyOwner(){\r\n        for(uint8 index = 0; index < TOTAL_CATEGORIES; index++){\r\n            tokenCategories[index].price = _prices[index];\r\n        }\r\n    }\r\n\r\n    function whitelist(address[] memory _userAddress) external onlyOwner(){\r\n        for(uint256 index = 0; index < _userAddress.length; index++){\r\n            whitelistedAddress[_userAddress[index]] = true;\r\n        }\r\n    }\r\n\r\n    function giveBenefit(uint256 _code, address payable _userAddress) external onlyOwner(){\r\n        require(_code != 0, 'Invalid Code');\r\n        require(_userAddress != address(0), 'Invalid address');\r\n        uint256 amountToGive = codesDetails[_code].totalCollected - codesDetails[_code].totalGiven ;\r\n        require(amountToGive > 0, 'Nothing to give');\r\n        codesDetails[_code].totalGiven = codesDetails[_code].totalGiven + amountToGive;\r\n        _userAddress.transfer(amountToGive);\r\n    }\r\n\r\n    function blacklist(address[] memory _userAddress) external onlyOwner(){\r\n        for(uint256 index = 0; index < _userAddress.length; index++){\r\n            whitelistedAddress[_userAddress[index]] = false;\r\n        }\r\n    }\r\n\r\n    function withdraw() external {\r\n        require(msg.sender == superOwner, 'Only Super Owner can call');\r\n        require(address(this).balance > 0, 'Nothing to withdraw');\r\n        payable(msg.sender).transfer(address(this).balance);\r\n    }\r\n      \r\n    function changeSuperOwner(address _newSuperOwner) external {\r\n        require(msg.sender == superOwner, 'Only Super Owner can call');\r\n        require(_newSuperOwner != address(0), 'Invalid address');\r\n        superOwner = _newSuperOwner;\r\n    }\r\n\r\n    function buyTokenForOwner(uint256 _tokenCategory, uint256 _totalUnits) external onlyOwner() isValidCategory(_tokenCategory){\r\n        require(_totalUnits <= babyDogeNFT.maxMint() && _totalUnits > 0, 'Invalid number of units');\r\n        CategoryDetail storage categoryDetail = tokenCategories[_tokenCategory];\r\n        uint256 startTokenId = categoryDetail.nextTokenId;\r\n        require(categoryDetail.totalMintedForOwner + _totalUnits <= categoryDetail.totalForOwner, 'That much token are not left');\r\n        categoryDetail.totalMinted = categoryDetail.totalMinted + _totalUnits;\r\n        categoryDetail.totalMintedForOwner = categoryDetail.totalMintedForOwner + _totalUnits;\r\n        categoryDetail.nextTokenId = categoryDetail.nextTokenId + _totalUnits;\r\n        babyDogeNFT.mint(msg.sender, startTokenId, _totalUnits);\r\n        emit buyForOwner(msg.sender, _tokenCategory, startTokenId, _totalUnits, block.timestamp);\r\n    }\r\n\r\n    //VIEW FUNCTIONS\r\n\r\n    function currentPrice(uint256 _category) public view isValidCategory(_category) returns(uint256) {\r\n        CategoryDetail memory categoryDetail = tokenCategories[_category];\r\n        if(categoryDetail.totalMinted >= categoryDetail.total / 2 && categoryDetail.totalMinted < 3 * categoryDetail.total / 4) {\r\n            return categoryDetail.price * 2;\r\n        } else if(categoryDetail.totalMinted >= 3 * categoryDetail.total / 4){\r\n            return categoryDetail.price * 4;\r\n        } \r\n        return categoryDetail.price;\r\n    }\r\n\r\n    function availableTokens(uint256 _category) public view returns(uint256) {\r\n        CategoryDetail memory categoryDetail = tokenCategories[_category];\r\n        return categoryDetail.total - categoryDetail.totalMinted;\r\n    }\r\n\r\n    function availableTokensForOwner(uint256 _category) public view returns(uint256) {\r\n        CategoryDetail memory categoryDetail = tokenCategories[_category];\r\n        return categoryDetail.totalForOwner - categoryDetail.totalMintedForOwner;\r\n    }\r\n\r\n    function beneftiDetails(uint256 _code) public view returns(uint256, uint256) {\r\n        return (codesDetails[_code].totalCollected, codesDetails[_code].totalGiven);\r\n    }\r\n }",
  "sourcePath": "C:\\Users\\USER\\Desktop\\baby Doge\\babyDoge\\contracts\\BabyDogeMarketplace.sol",
  "compiler": {
    "name": "solc",
    "version": "0.8.13+commit.abaa5c0e.Emscripten.clang"
  },
  "schemaVersion": "3.4.3",
  "updatedAt": "2022-04-24T17:16:15.033Z",
  "networkType": "ethereum",
  "devdoc": {
    "kind": "dev",
    "methods": {
      "owner()": {
        "details": "Returns the address of the current owner."
      },
      "renounceOwnership()": {
        "details": "Leaves the contract without owner. It will not be possible to call `onlyOwner` functions anymore. Can only be called by the current owner. NOTE: Renouncing ownership will leave the contract without an owner, thereby removing any functionality that is only available to the owner."
      },
      "transferOwnership(address)": {
        "details": "Transfers ownership of the contract to a new account (`newOwner`). Can only be called by the current owner."
      }
    },
    "version": 1
  },
  "userdoc": {
    "kind": "user",
    "methods": {},
    "version": 1
  }
}