{
  "contractName": "BabyDogeMarketplace",
  "abi": [
    {
      "inputs": [
        {
          "internalType": "address",
          "name": "_babyDogeNFT",
          "type": "address"
        },
        {
          "internalType": "uint256[3]",
          "name": "_prices",
          "type": "uint256[3]"
        },
        {
          "internalType": "uint256[3]",
          "name": "_total",
          "type": "uint256[3]"
        },
        {
          "internalType": "uint256[3]",
          "name": "_totalForPresale",
          "type": "uint256[3]"
        },
        {
          "internalType": "uint256[3]",
          "name": "_totalForOwner",
          "type": "uint256[3]"
        },
        {
          "internalType": "uint256[3][3]",
          "name": "_random",
          "type": "uint256[3][3]"
        }
      ],
      "stateMutability": "nonpayable",
      "type": "constructor"
    },
    {
      "anonymous": false,
      "inputs": [
        {
          "indexed": true,
          "internalType": "address",
          "name": "previousOwner",
          "type": "address"
        },
        {
          "indexed": true,
          "internalType": "address",
          "name": "newOwner",
          "type": "address"
        }
      ],
      "name": "OwnershipTransferred",
      "type": "event"
    },
    {
      "anonymous": false,
      "inputs": [
        {
          "indexed": false,
          "internalType": "address",
          "name": "buyer",
          "type": "address"
        },
        {
          "indexed": false,
          "internalType": "uint256",
          "name": "requestedTokenCategory",
          "type": "uint256"
        },
        {
          "indexed": false,
          "internalType": "uint256",
          "name": "givenTokenCategory",
          "type": "uint256"
        },
        {
          "indexed": false,
          "internalType": "uint256[]",
          "name": "tokenId",
          "type": "uint256[]"
        },
        {
          "indexed": false,
          "internalType": "uint256",
          "name": "price",
          "type": "uint256"
        },
        {
          "indexed": false,
          "internalType": "uint256",
          "name": "boughtAt",
          "type": "uint256"
        },
        {
          "indexed": false,
          "internalType": "uint256",
          "name": "stage",
          "type": "uint256"
        }
      ],
      "name": "buy",
      "type": "event"
    },
    {
      "anonymous": false,
      "inputs": [
        {
          "indexed": false,
          "internalType": "address",
          "name": "buyer",
          "type": "address"
        },
        {
          "indexed": false,
          "internalType": "uint256",
          "name": "tokenCategory",
          "type": "uint256"
        },
        {
          "indexed": false,
          "internalType": "uint256[]",
          "name": "tokenIds",
          "type": "uint256[]"
        },
        {
          "indexed": false,
          "internalType": "uint256",
          "name": "boughtAt",
          "type": "uint256"
        }
      ],
      "name": "buyForOwner",
      "type": "event"
    },
    {
      "inputs": [],
      "name": "TOTAL_CATEGORIES",
      "outputs": [
        {
          "internalType": "uint256",
          "name": "",
          "type": "uint256"
        }
      ],
      "stateMutability": "view",
      "type": "function"
    },
    {
      "inputs": [],
      "name": "babyDogeNFT",
      "outputs": [
        {
          "internalType": "contract BabyDogeNFT",
          "name": "",
          "type": "address"
        }
      ],
      "stateMutability": "view",
      "type": "function"
    },
    {
      "inputs": [],
      "name": "owner",
      "outputs": [
        {
          "internalType": "address",
          "name": "",
          "type": "address"
        }
      ],
      "stateMutability": "view",
      "type": "function"
    },
    {
      "inputs": [
        {
          "internalType": "uint256",
          "name": "",
          "type": "uint256"
        },
        {
          "internalType": "uint256",
          "name": "",
          "type": "uint256"
        }
      ],
      "name": "randomAvailable",
      "outputs": [
        {
          "internalType": "uint256",
          "name": "",
          "type": "uint256"
        }
      ],
      "stateMutability": "view",
      "type": "function"
    },
    {
      "inputs": [],
      "name": "renounceOwnership",
      "outputs": [],
      "stateMutability": "nonpayable",
      "type": "function"
    },
    {
      "inputs": [],
      "name": "stage",
      "outputs": [
        {
          "internalType": "uint256",
          "name": "",
          "type": "uint256"
        }
      ],
      "stateMutability": "view",
      "type": "function"
    },
    {
      "inputs": [
        {
          "internalType": "uint256",
          "name": "",
          "type": "uint256"
        }
      ],
      "name": "tokenCategories",
      "outputs": [
        {
          "internalType": "uint256",
          "name": "price",
          "type": "uint256"
        },
        {
          "internalType": "uint256",
          "name": "total",
          "type": "uint256"
        },
        {
          "internalType": "uint256",
          "name": "totalForPresale",
          "type": "uint256"
        },
        {
          "internalType": "uint256",
          "name": "totalForOwner",
          "type": "uint256"
        },
        {
          "internalType": "uint256",
          "name": "totalMinted",
          "type": "uint256"
        },
        {
          "internalType": "uint256",
          "name": "totalMintedForOwner",
          "type": "uint256"
        },
        {
          "internalType": "uint256",
          "name": "nextTokenId",
          "type": "uint256"
        }
      ],
      "stateMutability": "view",
      "type": "function"
    },
    {
      "inputs": [
        {
          "internalType": "address",
          "name": "newOwner",
          "type": "address"
        }
      ],
      "name": "transferOwnership",
      "outputs": [],
      "stateMutability": "nonpayable",
      "type": "function"
    },
    {
      "inputs": [
        {
          "internalType": "address",
          "name": "",
          "type": "address"
        }
      ],
      "name": "whitelistedAddress",
      "outputs": [
        {
          "internalType": "bool",
          "name": "",
          "type": "bool"
        }
      ],
      "stateMutability": "view",
      "type": "function"
    },
    {
      "inputs": [
        {
          "internalType": "uint256",
          "name": "_tokenCategory",
          "type": "uint256"
        },
        {
          "internalType": "uint256",
          "name": "_totalUnits",
          "type": "uint256"
        }
      ],
      "name": "buyToken",
      "outputs": [],
      "stateMutability": "payable",
      "type": "function"
    },
    {
      "inputs": [],
      "name": "updateStage",
      "outputs": [],
      "stateMutability": "nonpayable",
      "type": "function"
    },
    {
      "inputs": [
        {
          "internalType": "uint256[3]",
          "name": "_prices",
          "type": "uint256[3]"
        }
      ],
      "name": "updatePrices",
      "outputs": [],
      "stateMutability": "nonpayable",
      "type": "function"
    },
    {
      "inputs": [
        {
          "internalType": "address[]",
          "name": "_userAddress",
          "type": "address[]"
        }
      ],
      "name": "whitelist",
      "outputs": [],
      "stateMutability": "nonpayable",
      "type": "function"
    },
    {
      "inputs": [
        {
          "internalType": "address[]",
          "name": "_userAddress",
          "type": "address[]"
        }
      ],
      "name": "blacklist",
      "outputs": [],
      "stateMutability": "nonpayable",
      "type": "function"
    },
    {
      "inputs": [],
      "name": "withdraw",
      "outputs": [],
      "stateMutability": "nonpayable",
      "type": "function"
    },
    {
      "inputs": [
        {
          "internalType": "uint256",
          "name": "_tokenCategory",
          "type": "uint256"
        },
        {
          "internalType": "uint256",
          "name": "_totalUnits",
          "type": "uint256"
        }
      ],
      "name": "buyTokenForOwner2",
      "outputs": [],
      "stateMutability": "nonpayable",
      "type": "function"
    },
    {
      "inputs": [
        {
          "internalType": "uint256",
          "name": "_category",
          "type": "uint256"
        }
      ],
      "name": "currentPrice",
      "outputs": [
        {
          "internalType": "uint256",
          "name": "",
          "type": "uint256"
        }
      ],
      "stateMutability": "view",
      "type": "function"
    },
    {
      "inputs": [
        {
          "internalType": "uint256",
          "name": "_category",
          "type": "uint256"
        }
      ],
      "name": "availableTokens",
      "outputs": [
        {
          "internalType": "uint256",
          "name": "",
          "type": "uint256"
        }
      ],
      "stateMutability": "view",
      "type": "function"
    },
    {
      "inputs": [
        {
          "internalType": "uint256",
          "name": "_category",
          "type": "uint256"
        }
      ],
      "name": "availableTokensForOwner",
      "outputs": [
        {
          "internalType": "uint256",
          "name": "",
          "type": "uint256"
        }
      ],
      "stateMutability": "view",
      "type": "function"
    }
  ],
  "bytecode": "0x60806040523480156200001157600080fd5b50604051620032d4380380620032d48339818101604052810190620000379190620009e9565b620000576200004b6200064760201b60201c565b6200064f60201b60201c565b85600160006101000a81548173ffffffffffffffffffffffffffffffffffffffff021916908373ffffffffffffffffffffffffffffffffffffffff16021790555060006001905060005b60038160ff161015620006395760008160ff161415620001c9576000838260ff1660038110620000d657620000d562000a88565b5b6020020151600260038110620000f157620000f062000a88565b5b6020020151848360ff16600381106200010f576200010e62000a88565b5b60200201516001600381106200012a576200012962000a88565b5b6020020151858460ff166003811062000148576200014762000a88565b5b602002015160006003811062000163576200016262000a88565b5b602002015162000174919062000ae6565b62000180919062000ae6565b14620001c3576040517f08c379a0000000000000000000000000000000000000000000000000000000008152600401620001ba9062000ba4565b60405180910390fd5b6200031f565b60018160ff1614156200029f576000838260ff1660038110620001f157620001f062000a88565b5b60200201516002600381106200020c576200020b62000a88565b5b6020020151848360ff16600381106200022a576200022962000a88565b5b602002015160016003811062000245576200024462000a88565b5b602002015162000256919062000ae6565b1462000299576040517f08c379a0000000000000000000000000000000000000000000000000000000008152600401620002909062000ba4565b60405180910390fd5b6200031e565b6000838260ff1660038110620002ba57620002b962000a88565b5b6020020151600260038110620002d557620002d462000a88565b5b6020020151146200031d576040517f08c379a0000000000000000000000000000000000000000000000000000000008152600401620003149062000ba4565b60405180910390fd5b5b5b858160ff166003811062000338576200033762000a88565b5b6020020151838260ff166003811062000356576200035562000a88565b5b602002015160026003811062000371576200037062000a88565b5b6020020151848360ff16600381106200038f576200038e62000a88565b5b6020020151600160038110620003aa57620003a962000a88565b5b6020020151858460ff1660038110620003c857620003c762000a88565b5b6020020151600060038110620003e357620003e262000a88565b5b6020020151620003f4919062000ae6565b62000400919062000ae6565b111562000444576040517f08c379a00000000000000000000000000000000000000000000000000000000081526004016200043b9062000c16565b60405180910390fd5b838160ff16600381106200045d576200045c62000a88565b5b6020020151858260ff16600381106200047b576200047a62000a88565b5b60200201516200048c919062000ae6565b868260ff1660038110620004a557620004a462000a88565b5b60200201511015620004ee576040517f08c379a0000000000000000000000000000000000000000000000000000000008152600401620004e59062000c88565b60405180910390fd5b6040518060e00160405280888360ff166003811062000512576200051162000a88565b5b60200201518152602001878360ff166003811062000535576200053462000a88565b5b60200201518152602001868360ff166003811062000558576200055762000a88565b5b60200201518152602001858360ff16600381106200057b576200057a62000a88565b5b60200201518152602001600081526020016000815260200183815250600360008360ff168152602001908152602001600020600082015181600001556020820151816001015560408201518160020155606082015181600301556080820151816004015560a0820151816005015560c08201518160060155905050858160ff16600381106200060f576200060e62000a88565b5b60200201518262000621919062000ae6565b91508080620006309062000cb7565b915050620000a1565b505050505050505062000ce6565b600033905090565b60008060009054906101000a900473ffffffffffffffffffffffffffffffffffffffff169050816000806101000a81548173ffffffffffffffffffffffffffffffffffffffff021916908373ffffffffffffffffffffffffffffffffffffffff1602179055508173ffffffffffffffffffffffffffffffffffffffff168173ffffffffffffffffffffffffffffffffffffffff167f8be0079c531659141344cd1fd0a4f28419497f9722a3daafe3b4186f6b6457e060405160405180910390a35050565b6000604051905090565b600080fd5b600073ffffffffffffffffffffffffffffffffffffffff82169050919050565b60006200074f8262000722565b9050919050565b620007618162000742565b81146200076d57600080fd5b50565b600081519050620007818162000756565b92915050565b600080fd5b6000601f19601f8301169050919050565b7f4e487b7100000000000000000000000000000000000000000000000000000000600052604160045260246000fd5b620007d7826200078c565b810181811067ffffffffffffffff82111715620007f957620007f86200079d565b5b80604052505050565b60006200080e62000713565b90506200081c8282620007cc565b919050565b600067ffffffffffffffff8211156200083f576200083e6200079d565b5b602082029050919050565b600080fd5b6000819050919050565b62000864816200084f565b81146200087057600080fd5b50565b600081519050620008848162000859565b92915050565b6000620008a16200089b8462000821565b62000802565b90508060208402830185811115620008be57620008bd6200084a565b5b835b81811015620008eb5780620008d6888262000873565b845260208401935050602081019050620008c0565b5050509392505050565b600082601f8301126200090d576200090c62000787565b5b60036200091c8482856200088a565b91505092915050565b600067ffffffffffffffff8211156200094357620009426200079d565b5b602082029050919050565b6000620009656200095f8462000925565b62000802565b905080606084028301858111156200098257620009816200084a565b5b835b81811015620009af57806200099a8882620008f5565b84526020840193505060608101905062000984565b5050509392505050565b600082601f830112620009d157620009d062000787565b5b6003620009e08482856200094e565b91505092915050565b6000806000806000806102c0878903121562000a0a5762000a096200071d565b5b600062000a1a89828a0162000770565b965050602062000a2d89828a01620008f5565b955050608062000a4089828a01620008f5565b94505060e062000a5389828a01620008f5565b93505061014062000a6789828a01620008f5565b9250506101a062000a7b89828a01620009b9565b9150509295509295509295565b7f4e487b7100000000000000000000000000000000000000000000000000000000600052603260045260246000fd5b7f4e487b7100000000000000000000000000000000000000000000000000000000600052601160045260246000fd5b600062000af3826200084f565b915062000b00836200084f565b9250827fffffffffffffffffffffffffffffffffffffffffffffffffffffffffffffffff0382111562000b385762000b3762000ab7565b5b828201905092915050565b600082825260208201905092915050565b7f496e76616c69642052616e646f6d000000000000000000000000000000000000600082015250565b600062000b8c600e8362000b43565b915062000b998262000b54565b602082019050919050565b6000602082019050818103600083015262000bbf8162000b7d565b9050919050565b7f496e76616c69642052616e646f6d2073756d0000000000000000000000000000600082015250565b600062000bfe60128362000b43565b915062000c0b8262000bc6565b602082019050919050565b6000602082019050818103600083015262000c318162000bef565b9050919050565b7f496e76616c696420746f6b656e20636f756e7473000000000000000000000000600082015250565b600062000c7060148362000b43565b915062000c7d8262000c38565b602082019050919050565b6000602082019050818103600083015262000ca38162000c61565b9050919050565b600060ff82169050919050565b600062000cc48262000caa565b915060ff82141562000cdb5762000cda62000ab7565b5b600182019050919050565b6125de8062000cf66000396000f3fe6080604052600436106101145760003560e01c80638da5cb5b116100a0578063c062f57811610064578063c062f57814610370578063c30796ab14610387578063de5fef91146103c4578063ef571f3614610401578063f2fde38b1461043e57610114565b80638da5cb5b1461028957806396ff2d61146102b4578063ad64d068146102df578063bd8aa7801461031c578063c040e6b81461034557610114565b80633ccfd60b116100e75780633ccfd60b146101cc578063715018a6146101e35780637a3c4c17146101fa5780637e4d29081461023757806380bd44571461026057610114565b8063041f173f14610119578063057466ea1461014257806321b95ad41461015e5780633ca9d06c146101a1575b600080fd5b34801561012557600080fd5b50610140600480360381019061013b9190611933565b610467565b005b61015c600480360381019061015791906119b2565b610578565b005b34801561016a57600080fd5b50610185600480360381019061018091906119f2565b610bbe565b6040516101989796959493929190611a2e565b60405180910390f35b3480156101ad57600080fd5b506101b6610c00565b6040516101c39190611a9d565b60405180910390f35b3480156101d857600080fd5b506101e1610c05565b005b3480156101ef57600080fd5b506101f8610d0d565b005b34801561020657600080fd5b50610221600480360381019061021c91906119f2565b610d95565b60405161022e9190611a9d565b60405180910390f35b34801561024357600080fd5b5061025e600480360381019061025991906119b2565b610e80565b005b34801561026c57600080fd5b5061028760048036038101906102829190611b69565b61118c565b005b34801561029557600080fd5b5061029e611266565b6040516102ab9190611ba5565b60405180910390f35b3480156102c057600080fd5b506102c961128f565b6040516102d69190611c1f565b60405180910390f35b3480156102eb57600080fd5b50610306600480360381019061030191906119f2565b6112b5565b6040516103139190611a9d565b60405180910390f35b34801561032857600080fd5b50610343600480360381019061033e9190611933565b61133a565b005b34801561035157600080fd5b5061035a61144b565b6040516103679190611a9d565b60405180910390f35b34801561037c57600080fd5b50610385611451565b005b34801561039357600080fd5b506103ae60048036038101906103a99190611c3a565b6114d7565b6040516103bb9190611c82565b60405180910390f35b3480156103d057600080fd5b506103eb60048036038101906103e691906119f2565b6114f7565b6040516103f89190611a9d565b60405180910390f35b34801561040d57600080fd5b50610428600480360381019061042391906119b2565b61157c565b6040516104359190611a9d565b60405180910390f35b34801561044a57600080fd5b5061046560048036038101906104609190611c3a565b6115a4565b005b61046f61169c565b73ffffffffffffffffffffffffffffffffffffffff1661048d611266565b73ffffffffffffffffffffffffffffffffffffffff16146104e3576040517f08c379a00000000000000000000000000000000000000000000000000000000081526004016104da90611cfa565b60405180910390fd5b60005b81518110156105745760006005600084848151811061050857610507611d1a565b5b602002602001015173ffffffffffffffffffffffffffffffffffffffff1673ffffffffffffffffffffffffffffffffffffffff16815260200190815260200160002060006101000a81548160ff021916908315150217905550808061056c90611d78565b9150506104e6565b5050565b81600381106105bc576040517f08c379a00000000000000000000000000000000000000000000000000000000081526004016105b390611e0d565b60405180910390fd5b600160009054906101000a900473ffffffffffffffffffffffffffffffffffffffff1673ffffffffffffffffffffffffffffffffffffffff16637501f7416040518163ffffffff1660e01b81526004016020604051808303816000875af115801561062b573d6000803e3d6000fd5b505050506040513d601f19601f8201168201806040525081019061064f9190611e42565b821115801561065e5750600082115b61069d576040517f08c379a000000000000000000000000000000000000000000000000000000000815260040161069490611ebb565b60405180910390fd5b60606000808490506000600360008881526020019081526020016000209050600081600601549050600060025414156107c657600560003373ffffffffffffffffffffffffffffffffffffffff1673ffffffffffffffffffffffffffffffffffffffff16815260200190815260200160002060009054906101000a900460ff1661075c576040517f08c379a000000000000000000000000000000000000000000000000000000000815260040161075390611f27565b60405180910390fd5b816002015487836005015484600401546107769190611f47565b6107809190611f7b565b11156107c1576040517f08c379a00000000000000000000000000000000000000000000000000000000081526004016107b890612043565b60405180910390fd5b61083b565b816003015482600101546107da9190611f47565b87836005015484600401546107ef9190611f47565b6107f99190611f7b565b111561083a576040517f08c379a0000000000000000000000000000000000000000000000000000000008152600401610831906120af565b60405180910390fd5b5b600061084689610d95565b8861085191906120cf565b905080341015610896576040517f08c379a000000000000000000000000000000000000000000000000000000000815260040161088d9061219b565b60405180910390fd5b6000600f44426040516020016108ad9291906121dc565b6040516020818303038152906040528051906020012060001c6108d09190612237565b905060008a821180156108e35750600382105b801561091557506000600460008481526020019081526020016000208c6003811061091157610910611d1a565b5b0154115b15610a5d57600060036000848152602001908152602001600020905060006002541415610965578060020154816005015482600401546109559190611f47565b101561096057600191505b610999565b856003015486600101546109799190611f47565b8660050154876004015461098d9190611f47565b101561099857600191505b5b8115610a57578060040160008154809291906109b490611d78565b91905055508060060154898960ff16815181106109d4576109d3611d1a565b5b60200260200101818152505087806109eb90612275565b985050806006016000815480929190610a0390611d78565b9190505550600460008481526020019081526020016000208c60038110610a2d57610a2c611d1a565b5b016000815480929190610a3f9061229f565b91905055508680610a4f9061229f565b975050610a5b565b8b92505b505b5b898760ff161015610aad5783888860ff1681518110610a8057610a7f611d1a565b5b6020026020010181815250508380610a9790611d78565b9450508680610aa590612275565b975050610a5e565b858560040154610abd9190611f7b565b8560040181905550858560060154610ad59190611f7b565b8560060181905550600160009054906101000a900473ffffffffffffffffffffffffffffffffffffffff1673ffffffffffffffffffffffffffffffffffffffff1663de836ebd338a6040518363ffffffff1660e01b8152600401610b3a929190612387565b600060405180830381600087803b158015610b5457600080fd5b505af1158015610b68573d6000803e3d6000fd5b505050507f0fcf3e6b1e4ac8a3580fc135afc390ad169d1ce67834733e2689f8b2aeafebbb338c848b8742600254604051610ba997969594939291906123b7565b60405180910390a15050505050505050505050565b60036020528060005260406000206000915090508060000154908060010154908060020154908060030154908060040154908060050154908060060154905087565b600381565b610c0d61169c565b73ffffffffffffffffffffffffffffffffffffffff16610c2b611266565b73ffffffffffffffffffffffffffffffffffffffff1614610c81576040517f08c379a0000000000000000000000000000000000000000000000000000000008152600401610c7890611cfa565b60405180910390fd5b60004711610cc4576040517f08c379a0000000000000000000000000000000000000000000000000000000008152600401610cbb90612479565b60405180910390fd5b3373ffffffffffffffffffffffffffffffffffffffff166108fc479081150290604051600060405180830381858888f19350505050158015610d0a573d6000803e3d6000fd5b50565b610d1561169c565b73ffffffffffffffffffffffffffffffffffffffff16610d33611266565b73ffffffffffffffffffffffffffffffffffffffff1614610d89576040517f08c379a0000000000000000000000000000000000000000000000000000000008152600401610d8090611cfa565b60405180910390fd5b610d9360006116a4565b565b600080600360008481526020019081526020016000206040518060e0016040529081600082015481526020016001820154815260200160028201548152602001600382015481526020016004820154815260200160058201548152602001600682015481525050905060028160200151610e0f9190612499565b816080015110610e325760028160000151610e2a91906120cf565b915050610e7b565b600481602001516003610e4591906120cf565b610e4f9190612499565b816080015110610e725760048160000151610e6a91906120cf565b915050610e7b565b80600001519150505b919050565b8160038110610ec4576040517f08c379a0000000000000000000000000000000000000000000000000000000008152600401610ebb90611e0d565b60405180910390fd5b600160009054906101000a900473ffffffffffffffffffffffffffffffffffffffff1673ffffffffffffffffffffffffffffffffffffffff16637501f7416040518163ffffffff1660e01b81526004016020604051808303816000875af1158015610f33573d6000803e3d6000fd5b505050506040513d601f19601f82011682018060405250810190610f579190611e42565b8211158015610f665750600082115b610fa5576040517f08c379a0000000000000000000000000000000000000000000000000000000008152600401610f9c90611ebb565b60405180910390fd5b606060006003600086815260200190815260200160002090506000816006015490508160030154858360050154610fdc9190611f7b565b111561101d576040517f08c379a0000000000000000000000000000000000000000000000000000000008152600401611014906120af565b60405180910390fd5b60005b858160ff16101561106f5781848260ff168151811061104257611041611d1a565b5b602002602001018181525050818061105990611d78565b925050808061106790612275565b915050611020565b508482600401546110809190611f7b565b82600401819055508482600501546110989190611f7b565b82600501819055508482600601546110b09190611f7b565b8260060181905550600160009054906101000a900473ffffffffffffffffffffffffffffffffffffffff1673ffffffffffffffffffffffffffffffffffffffff1663de836ebd33856040518363ffffffff1660e01b8152600401611115929190612387565b600060405180830381600087803b15801561112f57600080fd5b505af1158015611143573d6000803e3d6000fd5b505050507f1956ff3beaecbe40798f87c87b8ae710154e1490a06cd8d3ed93b1dfec03e0ed3387854260405161117c94939291906124ca565b60405180910390a1505050505050565b61119461169c565b73ffffffffffffffffffffffffffffffffffffffff166111b2611266565b73ffffffffffffffffffffffffffffffffffffffff1614611208576040517f08c379a00000000000000000000000000000000000000000000000000000000081526004016111ff90611cfa565b60405180910390fd5b60005b60038160ff16101561126257818160ff166003811061122d5761122c611d1a565b5b6020020151600360008360ff16815260200190815260200160002060000181905550808061125a90612275565b91505061120b565b5050565b60008060009054906101000a900473ffffffffffffffffffffffffffffffffffffffff16905090565b600160009054906101000a900473ffffffffffffffffffffffffffffffffffffffff1681565b600080600360008481526020019081526020016000206040518060e00160405290816000820154815260200160018201548152602001600282015481526020016003820154815260200160048201548152602001600582015481526020016006820154815250509050806080015181602001516113329190611f47565b915050919050565b61134261169c565b73ffffffffffffffffffffffffffffffffffffffff16611360611266565b73ffffffffffffffffffffffffffffffffffffffff16146113b6576040517f08c379a00000000000000000000000000000000000000000000000000000000081526004016113ad90611cfa565b60405180910390fd5b60005b8151811015611447576001600560008484815181106113db576113da611d1a565b5b602002602001015173ffffffffffffffffffffffffffffffffffffffff1673ffffffffffffffffffffffffffffffffffffffff16815260200190815260200160002060006101000a81548160ff021916908315150217905550808061143f90611d78565b9150506113b9565b5050565b60025481565b61145961169c565b73ffffffffffffffffffffffffffffffffffffffff16611477611266565b73ffffffffffffffffffffffffffffffffffffffff16146114cd576040517f08c379a00000000000000000000000000000000000000000000000000000000081526004016114c490611cfa565b60405180910390fd5b6001600281905550565b60056020528060005260406000206000915054906101000a900460ff1681565b600080600360008481526020019081526020016000206040518060e001604052908160008201548152602001600182015481526020016002820154815260200160038201548152602001600482015481526020016005820154815260200160068201548152505090508060a0015181606001516115749190611f47565b915050919050565b6004602052816000526040600020816003811061159857600080fd5b01600091509150505481565b6115ac61169c565b73ffffffffffffffffffffffffffffffffffffffff166115ca611266565b73ffffffffffffffffffffffffffffffffffffffff1614611620576040517f08c379a000000000000000000000000000000000000000000000000000000000815260040161161790611cfa565b60405180910390fd5b600073ffffffffffffffffffffffffffffffffffffffff168173ffffffffffffffffffffffffffffffffffffffff161415611690576040517f08c379a000000000000000000000000000000000000000000000000000000000815260040161168790612588565b60405180910390fd5b611699816116a4565b50565b600033905090565b60008060009054906101000a900473ffffffffffffffffffffffffffffffffffffffff169050816000806101000a81548173ffffffffffffffffffffffffffffffffffffffff021916908373ffffffffffffffffffffffffffffffffffffffff1602179055508173ffffffffffffffffffffffffffffffffffffffff168173ffffffffffffffffffffffffffffffffffffffff167f8be0079c531659141344cd1fd0a4f28419497f9722a3daafe3b4186f6b6457e060405160405180910390a35050565b6000604051905090565b600080fd5b600080fd5b600080fd5b6000601f19601f8301169050919050565b7f4e487b7100000000000000000000000000000000000000000000000000000000600052604160045260246000fd5b6117ca82611781565b810181811067ffffffffffffffff821117156117e9576117e8611792565b5b80604052505050565b60006117fc611768565b905061180882826117c1565b919050565b600067ffffffffffffffff82111561182857611827611792565b5b602082029050602081019050919050565b600080fd5b600073ffffffffffffffffffffffffffffffffffffffff82169050919050565b60006118698261183e565b9050919050565b6118798161185e565b811461188457600080fd5b50565b60008135905061189681611870565b92915050565b60006118af6118aa8461180d565b6117f2565b905080838252602082019050602084028301858111156118d2576118d1611839565b5b835b818110156118fb57806118e78882611887565b8452602084019350506020810190506118d4565b5050509392505050565b600082601f83011261191a5761191961177c565b5b813561192a84826020860161189c565b91505092915050565b60006020828403121561194957611948611772565b5b600082013567ffffffffffffffff81111561196757611966611777565b5b61197384828501611905565b91505092915050565b6000819050919050565b61198f8161197c565b811461199a57600080fd5b50565b6000813590506119ac81611986565b92915050565b600080604083850312156119c9576119c8611772565b5b60006119d78582860161199d565b92505060206119e88582860161199d565b9150509250929050565b600060208284031215611a0857611a07611772565b5b6000611a168482850161199d565b91505092915050565b611a288161197c565b82525050565b600060e082019050611a43600083018a611a1f565b611a506020830189611a1f565b611a5d6040830188611a1f565b611a6a6060830187611a1f565b611a776080830186611a1f565b611a8460a0830185611a1f565b611a9160c0830184611a1f565b98975050505050505050565b6000602082019050611ab26000830184611a1f565b92915050565b600067ffffffffffffffff821115611ad357611ad2611792565b5b602082029050919050565b6000611af1611aec84611ab8565b6117f2565b90508060208402830185811115611b0b57611b0a611839565b5b835b81811015611b345780611b20888261199d565b845260208401935050602081019050611b0d565b5050509392505050565b600082601f830112611b5357611b5261177c565b5b6003611b60848285611ade565b91505092915050565b600060608284031215611b7f57611b7e611772565b5b6000611b8d84828501611b3e565b91505092915050565b611b9f8161185e565b82525050565b6000602082019050611bba6000830184611b96565b92915050565b6000819050919050565b6000611be5611be0611bdb8461183e565b611bc0565b61183e565b9050919050565b6000611bf782611bca565b9050919050565b6000611c0982611bec565b9050919050565b611c1981611bfe565b82525050565b6000602082019050611c346000830184611c10565b92915050565b600060208284031215611c5057611c4f611772565b5b6000611c5e84828501611887565b91505092915050565b60008115159050919050565b611c7c81611c67565b82525050565b6000602082019050611c976000830184611c73565b92915050565b600082825260208201905092915050565b7f4f776e61626c653a2063616c6c6572206973206e6f7420746865206f776e6572600082015250565b6000611ce4602083611c9d565b9150611cef82611cae565b602082019050919050565b60006020820190508181036000830152611d1381611cd7565b9050919050565b7f4e487b7100000000000000000000000000000000000000000000000000000000600052603260045260246000fd5b7f4e487b7100000000000000000000000000000000000000000000000000000000600052601160045260246000fd5b6000611d838261197c565b91507fffffffffffffffffffffffffffffffffffffffffffffffffffffffffffffffff821415611db657611db5611d49565b5b600182019050919050565b7f496e76616c696420746f6b656e2063617465676f726965730000000000000000600082015250565b6000611df7601883611c9d565b9150611e0282611dc1565b602082019050919050565b60006020820190508181036000830152611e2681611dea565b9050919050565b600081519050611e3c81611986565b92915050565b600060208284031215611e5857611e57611772565b5b6000611e6684828501611e2d565b91505092915050565b7f496e76616c6964206e756d626572206f6620756e697473000000000000000000600082015250565b6000611ea5601783611c9d565b9150611eb082611e6f565b602082019050919050565b60006020820190508181036000830152611ed481611e98565b9050919050565b7f4e6f7420656c696769626c6520746f2062757920696e2070726573616c650000600082015250565b6000611f11601e83611c9d565b9150611f1c82611edb565b602082019050919050565b60006020820190508181036000830152611f4081611f04565b9050919050565b6000611f528261197c565b9150611f5d8361197c565b925082821015611f7057611f6f611d49565b5b828203905092915050565b6000611f868261197c565b9150611f918361197c565b9250827fffffffffffffffffffffffffffffffffffffffffffffffffffffffffffffffff03821115611fc657611fc5611d49565b5b828201905092915050565b7f54686174206d75636820746f6b656e206e6f74206c65667420696e207072657360008201527f616c650000000000000000000000000000000000000000000000000000000000602082015250565b600061202d602383611c9d565b915061203882611fd1565b604082019050919050565b6000602082019050818103600083015261205c81612020565b9050919050565b7f54686174206d75636820746f6b656e20617265206e6f74206c65667400000000600082015250565b6000612099601c83611c9d565b91506120a482612063565b602082019050919050565b600060208201905081810360008301526120c88161208c565b9050919050565b60006120da8261197c565b91506120e58361197c565b9250817fffffffffffffffffffffffffffffffffffffffffffffffffffffffffffffffff048311821515161561211e5761211d611d49565b5b828202905092915050565b7f5072696365206f6620746f6b656e73206973206d6f7265207468616e2074686560008201527f20676976656e0000000000000000000000000000000000000000000000000000602082015250565b6000612185602683611c9d565b915061219082612129565b604082019050919050565b600060208201905081810360008301526121b481612178565b9050919050565b6000819050919050565b6121d66121d18261197c565b6121bb565b82525050565b60006121e882856121c5565b6020820191506121f882846121c5565b6020820191508190509392505050565b7f4e487b7100000000000000000000000000000000000000000000000000000000600052601260045260246000fd5b60006122428261197c565b915061224d8361197c565b92508261225d5761225c612208565b5b828206905092915050565b600060ff82169050919050565b600061228082612268565b915060ff82141561229457612293611d49565b5b600182019050919050565b60006122aa8261197c565b915060008214156122be576122bd611d49565b5b600182039050919050565b600081519050919050565b600082825260208201905092915050565b6000819050602082019050919050565b6122fe8161197c565b82525050565b600061231083836122f5565b60208301905092915050565b6000602082019050919050565b6000612334826122c9565b61233e81856122d4565b9350612349836122e5565b8060005b8381101561237a5781516123618882612304565b975061236c8361231c565b92505060018101905061234d565b5085935050505092915050565b600060408201905061239c6000830185611b96565b81810360208301526123ae8184612329565b90509392505050565b600060e0820190506123cc600083018a611b96565b6123d96020830189611a1f565b6123e66040830188611a1f565b81810360608301526123f88187612329565b90506124076080830186611a1f565b61241460a0830185611a1f565b61242160c0830184611a1f565b98975050505050505050565b7f4e6f7468696e6720746f20776974686472617700000000000000000000000000600082015250565b6000612463601383611c9d565b915061246e8261242d565b602082019050919050565b6000602082019050818103600083015261249281612456565b9050919050565b60006124a48261197c565b91506124af8361197c565b9250826124bf576124be612208565b5b828204905092915050565b60006080820190506124df6000830187611b96565b6124ec6020830186611a1f565b81810360408301526124fe8185612329565b905061250d6060830184611a1f565b95945050505050565b7f4f776e61626c653a206e6577206f776e657220697320746865207a65726f206160008201527f6464726573730000000000000000000000000000000000000000000000000000602082015250565b6000612572602683611c9d565b915061257d82612516565b604082019050919050565b600060208201905081810360008301526125a181612565565b905091905056fea2646970667358221220ad0b67dca524c75bf1efd67246d7dcff0097962fac63779678735afb5e495d4264736f6c634300080b0033",
  "immutableReferences": {},
  "source": "//SPDX-License-Identifier: UNLICENSED\r\npragma solidity ^0.8.0;\r\n\r\nimport \"@openzeppelin/contracts/access/Ownable.sol\";\r\ninterface BabyDogeNFT {\r\n    function mint(address, uint256[] memory) external;\r\n    function maxMint() external returns(uint256);\r\n    \r\n}\r\ncontract BabyDogeMarketplace is Ownable{\r\n    BabyDogeNFT public babyDogeNFT;\r\n    uint256 public constant TOTAL_CATEGORIES = 3;\r\n    struct CategoryDetail {\r\n        uint256 price;\r\n        uint256 total;\r\n        uint256 totalForPresale;\r\n        uint256 totalForOwner;\r\n        uint256 totalMinted;\r\n        uint256 totalMintedForOwner;\r\n        uint256 nextTokenId;\r\n    }\r\n    //0 = presale 1 = postSale\r\n    uint256 public stage;\r\n    //0 gold 1 platinum 2 black\r\n    mapping(uint256 => CategoryDetail) public tokenCategories;\r\n    mapping(uint256 => uint256[3]) public randomAvailable;\r\n    mapping(address => bool) public whitelistedAddress;\r\n\r\n    //events\r\n    event buy(address buyer, uint256 requestedTokenCategory,uint256 givenTokenCategory, uint256[] tokenId, uint256 price, uint256 boughtAt, uint256 stage);\r\n    event buyForOwner(address buyer, uint256 tokenCategory, uint256[] tokenIds, uint256 boughtAt);\r\n   \r\n    //modifer\r\n    modifier isValidCategory(uint256 _tokenCategory){\r\n        require(_tokenCategory < TOTAL_CATEGORIES, 'Invalid token categories');\r\n        _;\r\n    }\r\n    constructor(\r\n        address _babyDogeNFT, \r\n        uint256[TOTAL_CATEGORIES] memory _prices, \r\n        uint256[TOTAL_CATEGORIES] memory _total, \r\n        uint256[TOTAL_CATEGORIES] memory _totalForPresale, \r\n        uint256[TOTAL_CATEGORIES] memory _totalForOwner,\r\n        uint256[TOTAL_CATEGORIES][TOTAL_CATEGORIES] memory _random) {\r\n        babyDogeNFT = BabyDogeNFT(_babyDogeNFT);\r\n        uint256 nextTokenId = 1;\r\n        for(uint8 index = 0; index < TOTAL_CATEGORIES; index++){\r\n            if(index == 0){\r\n                require(_random[index][0] + _random[index][1] + _random[index][2] == 0, 'Invalid Random');\r\n            } else if(index == 1){\r\n                require(_random[index][1] + _random[index][2] == 0, 'Invalid Random');\r\n            } else {\r\n                require(_random[index][2] == 0, 'Invalid Random');\r\n            }\r\n            require(_random[index][0] + _random[index][1] + _random[index][2] <=  _total[index], 'Invalid Random sum');\r\n            require(_total[index] >= _totalForPresale[index] + _totalForOwner[index], 'Invalid token counts');\r\n            tokenCategories[index] = CategoryDetail(_prices[index], _total[index], _totalForPresale[index], _totalForOwner[index], 0,0, nextTokenId);\r\n            nextTokenId = nextTokenId + _total[index];\r\n        }\r\n    }\r\n\r\n    //USER FUNCTIONS\r\n    function buyToken(uint256 _tokenCategory, uint256 _totalUnits) external isValidCategory(_tokenCategory) payable{\r\n        require(_totalUnits <= babyDogeNFT.maxMint() && _totalUnits > 0, 'Invalid number of units');\r\n        uint256[] memory tokenIds;\r\n        uint8 index;\r\n        uint256 categoryUnit = _totalUnits;\r\n        CategoryDetail storage categoryDetail = tokenCategories[_tokenCategory];\r\n        uint256 startTokenId = categoryDetail.nextTokenId;\r\n        if(stage == 0){\r\n            require(whitelistedAddress[msg.sender], 'Not eligible to buy in presale');\r\n            require(categoryDetail.totalMinted - categoryDetail.totalMintedForOwner + _totalUnits <= categoryDetail.totalForPresale, 'That much token not left in presale');\r\n        } else {\r\n            require(categoryDetail.totalMinted - categoryDetail.totalMintedForOwner + _totalUnits <= categoryDetail.total - categoryDetail.totalForOwner, 'That much token are not left');\r\n        }\r\n        uint256 price = _totalUnits * currentPrice(_tokenCategory);\r\n        require(msg.value >= price, 'Price of tokens is more than the given');\r\n        uint random = uint(keccak256(abi.encodePacked(block.difficulty, block.timestamp))) % 15;\r\n        bool randomAllowed;\r\n        if(random > _tokenCategory && random < TOTAL_CATEGORIES && randomAvailable[random][_tokenCategory] > 0){\r\n            CategoryDetail storage randomCategoryDetail = tokenCategories[random];\r\n            if(stage == 0){\r\n                if(randomCategoryDetail.totalMinted - randomCategoryDetail.totalMintedForOwner < randomCategoryDetail.totalForPresale){\r\n                    randomAllowed = true;\r\n                }\r\n            } else {\r\n                if(categoryDetail.totalMinted - categoryDetail.totalMintedForOwner < categoryDetail.total - categoryDetail.totalForOwner){\r\n                    randomAllowed = true;\r\n                }\r\n            }\r\n            if(randomAllowed){\r\n                randomCategoryDetail.totalMinted++;\r\n                tokenIds[index] = randomCategoryDetail.nextTokenId;\r\n                index++;\r\n                randomCategoryDetail.nextTokenId++;\r\n                randomAvailable[random][_tokenCategory]--;\r\n                categoryUnit--;\r\n            }\r\n            else {\r\n                random = _tokenCategory;\r\n            }\r\n        } \r\n        for(index; index < _totalUnits; index++){\r\n            tokenIds[index] = startTokenId;\r\n            startTokenId++;\r\n        }\r\n        categoryDetail.totalMinted = categoryDetail.totalMinted + categoryUnit;\r\n        categoryDetail.nextTokenId = categoryDetail.nextTokenId + categoryUnit;\r\n        babyDogeNFT.mint(msg.sender, tokenIds);\r\n        emit buy(msg.sender, _tokenCategory, random, tokenIds, price, block.timestamp, stage);\r\n    }\r\n\r\n    //ADMIN FUNCTIONS\r\n    function updateStage() external onlyOwner(){\r\n        stage = 1;\r\n    }\r\n\r\n    function updatePrices(uint256[TOTAL_CATEGORIES] memory _prices) external onlyOwner(){\r\n        for(uint8 index = 0; index < TOTAL_CATEGORIES; index++){\r\n            tokenCategories[index].price = _prices[index];\r\n        }\r\n    }\r\n\r\n    function whitelist(address[] memory _userAddress) external onlyOwner(){\r\n        for(uint256 index = 0; index < _userAddress.length; index++){\r\n            whitelistedAddress[_userAddress[index]] = true;\r\n        }\r\n    }\r\n\r\n    function blacklist(address[] memory _userAddress) external onlyOwner(){\r\n        for(uint256 index = 0; index < _userAddress.length; index++){\r\n            whitelistedAddress[_userAddress[index]] = false;\r\n        }\r\n    }\r\n\r\n    function withdraw() external onlyOwner(){\r\n        require(address(this).balance > 0, 'Nothing to withdraw');\r\n        payable(msg.sender).transfer(address(this).balance);\r\n    }\r\n\r\n\r\n      function buyTokenForOwner2(uint256 _tokenCategory, uint256 _totalUnits) external isValidCategory(_tokenCategory){\r\n        require(_totalUnits <= babyDogeNFT.maxMint() && _totalUnits > 0, 'Invalid number of units');\r\n        uint256[] memory tokenIds;\r\n        CategoryDetail storage categoryDetail = tokenCategories[_tokenCategory];\r\n        uint256 startTokenId = categoryDetail.nextTokenId;\r\n        require(categoryDetail.totalMintedForOwner + _totalUnits <= categoryDetail.totalForOwner, 'That much token are not left');\r\n        for(uint8 index = 0; index < _totalUnits; index++){\r\n            tokenIds[index] = startTokenId;\r\n            startTokenId++;\r\n        }\r\n        categoryDetail.totalMinted = categoryDetail.totalMinted + _totalUnits;\r\n        categoryDetail.totalMintedForOwner = categoryDetail.totalMintedForOwner + _totalUnits;\r\n        categoryDetail.nextTokenId = categoryDetail.nextTokenId + _totalUnits;\r\n        babyDogeNFT.mint(msg.sender, tokenIds);\r\n        emit buyForOwner(msg.sender, _tokenCategory, tokenIds, block.timestamp);\r\n    }\r\n\r\n    //VIEW FUNCTIONS\r\n\r\n    function currentPrice(uint256 _category) public view returns(uint256) {\r\n        CategoryDetail memory categoryDetail = tokenCategories[_category];\r\n        if(categoryDetail.totalMinted >= categoryDetail.total / 2) {\r\n            return categoryDetail.price * 2;\r\n        } else if(categoryDetail.totalMinted >= 3 * categoryDetail.total / 4){\r\n            return categoryDetail.price * 4;\r\n        } \r\n        return categoryDetail.price;\r\n    }\r\n\r\n    function availableTokens(uint256 _category) public view returns(uint256) {\r\n        CategoryDetail memory categoryDetail = tokenCategories[_category];\r\n        return categoryDetail.total - categoryDetail.totalMinted;\r\n    }\r\n\r\n    function availableTokensForOwner(uint256 _category) public view returns(uint256) {\r\n        CategoryDetail memory categoryDetail = tokenCategories[_category];\r\n        return categoryDetail.totalForOwner - categoryDetail.totalMintedForOwner;\r\n    }\r\n }",
  "sourcePath": "C:\\Users\\USER\\Desktop\\baby Doge\\babyDoge\\contracts\\BabyDogeMarketplace.sol",
  "compiler": {
    "name": "solc",
    "version": "0.8.11+commit.d7f03943.Emscripten.clang"
  },
  "schemaVersion": "3.4.3",
  "updatedAt": "2022-02-06T16:18:23.489Z",
  "devdoc": {
    "kind": "dev",
    "methods": {
      "owner()": {
        "details": "Returns the address of the current owner."
      },
      "renounceOwnership()": {
        "details": "Leaves the contract without owner. It will not be possible to call `onlyOwner` functions anymore. Can only be called by the current owner. NOTE: Renouncing ownership will leave the contract without an owner, thereby removing any functionality that is only available to the owner."
      },
      "transferOwnership(address)": {
        "details": "Transfers ownership of the contract to a new account (`newOwner`). Can only be called by the current owner."
      }
    },
    "version": 1
  },
  "userdoc": {
    "kind": "user",
    "methods": {},
    "version": 1
  }
}