{
  "contractName": "BabyDogeNFT",
  "abi": [
    {
      "inputs": [
        {
          "internalType": "string",
          "name": "_name",
          "type": "string"
        },
        {
          "internalType": "string",
          "name": "_symbol",
          "type": "string"
        },
        {
          "internalType": "string",
          "name": "_initBaseURI",
          "type": "string"
        }
      ],
      "stateMutability": "nonpayable",
      "type": "constructor"
    },
    {
      "anonymous": false,
      "inputs": [
        {
          "indexed": true,
          "internalType": "address",
          "name": "owner",
          "type": "address"
        },
        {
          "indexed": true,
          "internalType": "address",
          "name": "approved",
          "type": "address"
        },
        {
          "indexed": true,
          "internalType": "uint256",
          "name": "tokenId",
          "type": "uint256"
        }
      ],
      "name": "Approval",
      "type": "event"
    },
    {
      "anonymous": false,
      "inputs": [
        {
          "indexed": true,
          "internalType": "address",
          "name": "owner",
          "type": "address"
        },
        {
          "indexed": true,
          "internalType": "address",
          "name": "operator",
          "type": "address"
        },
        {
          "indexed": false,
          "internalType": "bool",
          "name": "approved",
          "type": "bool"
        }
      ],
      "name": "ApprovalForAll",
      "type": "event"
    },
    {
      "anonymous": false,
      "inputs": [
        {
          "indexed": true,
          "internalType": "address",
          "name": "previousOwner",
          "type": "address"
        },
        {
          "indexed": true,
          "internalType": "address",
          "name": "newOwner",
          "type": "address"
        }
      ],
      "name": "OwnershipTransferred",
      "type": "event"
    },
    {
      "anonymous": false,
      "inputs": [
        {
          "indexed": true,
          "internalType": "address",
          "name": "from",
          "type": "address"
        },
        {
          "indexed": true,
          "internalType": "address",
          "name": "to",
          "type": "address"
        },
        {
          "indexed": true,
          "internalType": "uint256",
          "name": "tokenId",
          "type": "uint256"
        }
      ],
      "name": "Transfer",
      "type": "event"
    },
    {
      "inputs": [
        {
          "internalType": "address",
          "name": "to",
          "type": "address"
        },
        {
          "internalType": "uint256",
          "name": "tokenId",
          "type": "uint256"
        }
      ],
      "name": "approve",
      "outputs": [],
      "stateMutability": "nonpayable",
      "type": "function"
    },
    {
      "inputs": [
        {
          "internalType": "address",
          "name": "owner",
          "type": "address"
        }
      ],
      "name": "balanceOf",
      "outputs": [
        {
          "internalType": "uint256",
          "name": "",
          "type": "uint256"
        }
      ],
      "stateMutability": "view",
      "type": "function",
      "constant": true
    },
    {
      "inputs": [],
      "name": "baseExtension",
      "outputs": [
        {
          "internalType": "string",
          "name": "",
          "type": "string"
        }
      ],
      "stateMutability": "view",
      "type": "function",
      "constant": true
    },
    {
      "inputs": [],
      "name": "baseURI",
      "outputs": [
        {
          "internalType": "string",
          "name": "",
          "type": "string"
        }
      ],
      "stateMutability": "view",
      "type": "function",
      "constant": true
    },
    {
      "inputs": [
        {
          "internalType": "uint256",
          "name": "tokenId",
          "type": "uint256"
        }
      ],
      "name": "getApproved",
      "outputs": [
        {
          "internalType": "address",
          "name": "",
          "type": "address"
        }
      ],
      "stateMutability": "view",
      "type": "function",
      "constant": true
    },
    {
      "inputs": [
        {
          "internalType": "address",
          "name": "owner",
          "type": "address"
        },
        {
          "internalType": "address",
          "name": "operator",
          "type": "address"
        }
      ],
      "name": "isApprovedForAll",
      "outputs": [
        {
          "internalType": "bool",
          "name": "",
          "type": "bool"
        }
      ],
      "stateMutability": "view",
      "type": "function",
      "constant": true
    },
    {
      "inputs": [],
      "name": "maxMintAmount",
      "outputs": [
        {
          "internalType": "uint256",
          "name": "",
          "type": "uint256"
        }
      ],
      "stateMutability": "view",
      "type": "function",
      "constant": true
    },
    {
      "inputs": [],
      "name": "maxSupply",
      "outputs": [
        {
          "internalType": "uint256",
          "name": "",
          "type": "uint256"
        }
      ],
      "stateMutability": "view",
      "type": "function",
      "constant": true
    },
    {
      "inputs": [],
      "name": "minterAddress",
      "outputs": [
        {
          "internalType": "address",
          "name": "",
          "type": "address"
        }
      ],
      "stateMutability": "view",
      "type": "function",
      "constant": true
    },
    {
      "inputs": [],
      "name": "name",
      "outputs": [
        {
          "internalType": "string",
          "name": "",
          "type": "string"
        }
      ],
      "stateMutability": "view",
      "type": "function",
      "constant": true
    },
    {
      "inputs": [],
      "name": "owner",
      "outputs": [
        {
          "internalType": "address",
          "name": "",
          "type": "address"
        }
      ],
      "stateMutability": "view",
      "type": "function",
      "constant": true
    },
    {
      "inputs": [
        {
          "internalType": "uint256",
          "name": "tokenId",
          "type": "uint256"
        }
      ],
      "name": "ownerOf",
      "outputs": [
        {
          "internalType": "address",
          "name": "",
          "type": "address"
        }
      ],
      "stateMutability": "view",
      "type": "function",
      "constant": true
    },
    {
      "inputs": [],
      "name": "renounceOwnership",
      "outputs": [],
      "stateMutability": "nonpayable",
      "type": "function"
    },
    {
      "inputs": [
        {
          "internalType": "address",
          "name": "from",
          "type": "address"
        },
        {
          "internalType": "address",
          "name": "to",
          "type": "address"
        },
        {
          "internalType": "uint256",
          "name": "tokenId",
          "type": "uint256"
        }
      ],
      "name": "safeTransferFrom",
      "outputs": [],
      "stateMutability": "nonpayable",
      "type": "function"
    },
    {
      "inputs": [
        {
          "internalType": "address",
          "name": "from",
          "type": "address"
        },
        {
          "internalType": "address",
          "name": "to",
          "type": "address"
        },
        {
          "internalType": "uint256",
          "name": "tokenId",
          "type": "uint256"
        },
        {
          "internalType": "bytes",
          "name": "_data",
          "type": "bytes"
        }
      ],
      "name": "safeTransferFrom",
      "outputs": [],
      "stateMutability": "nonpayable",
      "type": "function"
    },
    {
      "inputs": [
        {
          "internalType": "address",
          "name": "operator",
          "type": "address"
        },
        {
          "internalType": "bool",
          "name": "approved",
          "type": "bool"
        }
      ],
      "name": "setApprovalForAll",
      "outputs": [],
      "stateMutability": "nonpayable",
      "type": "function"
    },
    {
      "inputs": [
        {
          "internalType": "bytes4",
          "name": "interfaceId",
          "type": "bytes4"
        }
      ],
      "name": "supportsInterface",
      "outputs": [
        {
          "internalType": "bool",
          "name": "",
          "type": "bool"
        }
      ],
      "stateMutability": "view",
      "type": "function",
      "constant": true
    },
    {
      "inputs": [],
      "name": "symbol",
      "outputs": [
        {
          "internalType": "string",
          "name": "",
          "type": "string"
        }
      ],
      "stateMutability": "view",
      "type": "function",
      "constant": true
    },
    {
      "inputs": [
        {
          "internalType": "uint256",
          "name": "index",
          "type": "uint256"
        }
      ],
      "name": "tokenByIndex",
      "outputs": [
        {
          "internalType": "uint256",
          "name": "",
          "type": "uint256"
        }
      ],
      "stateMutability": "view",
      "type": "function",
      "constant": true
    },
    {
      "inputs": [
        {
          "internalType": "address",
          "name": "owner",
          "type": "address"
        },
        {
          "internalType": "uint256",
          "name": "index",
          "type": "uint256"
        }
      ],
      "name": "tokenOfOwnerByIndex",
      "outputs": [
        {
          "internalType": "uint256",
          "name": "",
          "type": "uint256"
        }
      ],
      "stateMutability": "view",
      "type": "function",
      "constant": true
    },
    {
      "inputs": [],
      "name": "totalSupply",
      "outputs": [
        {
          "internalType": "uint256",
          "name": "",
          "type": "uint256"
        }
      ],
      "stateMutability": "view",
      "type": "function",
      "constant": true
    },
    {
      "inputs": [
        {
          "internalType": "address",
          "name": "from",
          "type": "address"
        },
        {
          "internalType": "address",
          "name": "to",
          "type": "address"
        },
        {
          "internalType": "uint256",
          "name": "tokenId",
          "type": "uint256"
        }
      ],
      "name": "transferFrom",
      "outputs": [],
      "stateMutability": "nonpayable",
      "type": "function"
    },
    {
      "inputs": [
        {
          "internalType": "address",
          "name": "newOwner",
          "type": "address"
        }
      ],
      "name": "transferOwnership",
      "outputs": [],
      "stateMutability": "nonpayable",
      "type": "function"
    },
    {
      "inputs": [
        {
          "internalType": "address",
          "name": "_to",
          "type": "address"
        },
        {
          "internalType": "uint256[]",
          "name": "_id",
          "type": "uint256[]"
        }
      ],
      "name": "mint",
      "outputs": [],
      "stateMutability": "nonpayable",
      "type": "function"
    },
    {
      "inputs": [
        {
          "internalType": "uint256",
          "name": "tokenId",
          "type": "uint256"
        }
      ],
      "name": "tokenURI",
      "outputs": [
        {
          "internalType": "string",
          "name": "",
          "type": "string"
        }
      ],
      "stateMutability": "view",
      "type": "function",
      "constant": true
    },
    {
      "inputs": [
        {
          "internalType": "uint256",
          "name": "_nftId",
          "type": "uint256"
        }
      ],
      "name": "burn",
      "outputs": [],
      "stateMutability": "nonpayable",
      "type": "function"
    },
    {
      "inputs": [
        {
          "internalType": "uint256",
          "name": "_newmaxMintAmount",
          "type": "uint256"
        }
      ],
      "name": "setmaxMintAmount",
      "outputs": [],
      "stateMutability": "nonpayable",
      "type": "function"
    },
    {
      "inputs": [
        {
          "internalType": "address",
          "name": "_minterAddress",
          "type": "address"
        }
      ],
      "name": "setMinterAddress",
      "outputs": [],
      "stateMutability": "nonpayable",
      "type": "function"
    },
    {
      "inputs": [
        {
          "internalType": "string",
          "name": "_newBaseURI",
          "type": "string"
        }
      ],
      "name": "setBaseURI",
      "outputs": [],
      "stateMutability": "nonpayable",
      "type": "function"
    },
    {
      "inputs": [
        {
          "internalType": "string",
          "name": "_newBaseExtension",
          "type": "string"
        }
      ],
      "name": "setBaseExtension",
      "outputs": [],
      "stateMutability": "nonpayable",
      "type": "function"
    }
  ],
  "bytecode": "0x60806040526040518060400160405280600581526020017f2e6a736f6e000000000000000000000000000000000000000000000000000000815250600c908051906020019062000051929190620002a3565b50610c4e600d55600a600e553480156200006a57600080fd5b5060405162004868380380620048688339818101604052810190620000909190620003c5565b82828160009080519060200190620000aa929190620002a3565b508060019080519060200190620000c3929190620002a3565b505050620000e6620000da6200010060201b60201c565b6200010860201b60201c565b620000f781620001ce60201b60201c565b50505062000659565b600033905090565b6000600a60009054906101000a900473ffffffffffffffffffffffffffffffffffffffff16905081600a60006101000a81548173ffffffffffffffffffffffffffffffffffffffff021916908373ffffffffffffffffffffffffffffffffffffffff1602179055508173ffffffffffffffffffffffffffffffffffffffff168173ffffffffffffffffffffffffffffffffffffffff167f8be0079c531659141344cd1fd0a4f28419497f9722a3daafe3b4186f6b6457e060405160405180910390a35050565b620001de6200010060201b60201c565b73ffffffffffffffffffffffffffffffffffffffff16620002046200027960201b60201c565b73ffffffffffffffffffffffffffffffffffffffff16146200025d576040517f08c379a000000000000000000000000000000000000000000000000000000000815260040162000254906200048d565b60405180910390fd5b80600b908051906020019062000275929190620002a3565b5050565b6000600a60009054906101000a900473ffffffffffffffffffffffffffffffffffffffff16905090565b828054620002b19062000555565b90600052602060002090601f016020900481019282620002d5576000855562000321565b82601f10620002f057805160ff191683800117855562000321565b8280016001018555821562000321579182015b828111156200032057825182559160200191906001019062000303565b5b50905062000330919062000334565b5090565b5b808211156200034f57600081600090555060010162000335565b5090565b60006200036a6200036484620004d8565b620004af565b9050828152602081018484840111156200038357600080fd5b620003908482856200051f565b509392505050565b600082601f830112620003aa57600080fd5b8151620003bc84826020860162000353565b91505092915050565b600080600060608486031215620003db57600080fd5b600084015167ffffffffffffffff811115620003f657600080fd5b620004048682870162000398565b935050602084015167ffffffffffffffff8111156200042257600080fd5b620004308682870162000398565b925050604084015167ffffffffffffffff8111156200044e57600080fd5b6200045c8682870162000398565b9150509250925092565b6000620004756020836200050e565b9150620004828262000630565b602082019050919050565b60006020820190508181036000830152620004a88162000466565b9050919050565b6000620004bb620004ce565b9050620004c982826200058b565b919050565b6000604051905090565b600067ffffffffffffffff821115620004f657620004f5620005f0565b5b62000501826200061f565b9050602081019050919050565b600082825260208201905092915050565b60005b838110156200053f57808201518184015260208101905062000522565b838111156200054f576000848401525b50505050565b600060028204905060018216806200056e57607f821691505b60208210811415620005855762000584620005c1565b5b50919050565b62000596826200061f565b810181811067ffffffffffffffff82111715620005b857620005b7620005f0565b5b80604052505050565b7f4e487b7100000000000000000000000000000000000000000000000000000000600052602260045260246000fd5b7f4e487b7100000000000000000000000000000000000000000000000000000000600052604160045260246000fd5b6000601f19601f8301169050919050565b7f4f776e61626c653a2063616c6c6572206973206e6f7420746865206f776e6572600082015250565b6141ff80620006696000396000f3fe608060405234801561001057600080fd5b50600436106101da5760003560e01c806370a0823111610104578063b88d4fde116100a2578063da3ef23f11610071578063da3ef23f14610543578063de836ebd1461055f578063e985e9c51461057b578063f2fde38b146105ab576101da565b8063b88d4fde146104bb578063c6682862146104d7578063c87b56dd146104f5578063d5abeb0114610525576101da565b80638da5cb5b116100de5780638da5cb5b1461044757806395d89b4114610465578063a22cb46514610483578063a3106b951461049f576101da565b806370a08231146103f1578063715018a6146104215780637f00c7a61461042b576101da565b80632f745c591161017c5780634f6ccce71161014b5780634f6ccce71461035757806355f804b3146103875780636352211e146103a35780636c0360eb146103d3576101da565b80632f745c59146102d157806334d722c91461030157806342842e0e1461031f57806342966c681461033b576101da565b8063095ea7b3116101b8578063095ea7b31461025d57806318160ddd14610279578063239c70ae1461029757806323b872dd146102b5576101da565b806301ffc9a7146101df57806306fdde031461020f578063081812fc1461022d575b600080fd5b6101f960048036038101906101f49190612e12565b6105c7565b60405161020691906133da565b60405180910390f35b610217610641565b60405161022491906133f5565b60405180910390f35b61024760048036038101906102429190612ea5565b6106d3565b6040516102549190613373565b60405180910390f35b61027760048036038101906102729190612dd6565b610758565b005b610281610870565b60405161028e91906136f7565b60405180910390f35b61029f61087d565b6040516102ac91906136f7565b60405180910390f35b6102cf60048036038101906102ca9190612c7c565b610883565b005b6102eb60048036038101906102e69190612dd6565b6108e3565b6040516102f891906136f7565b60405180910390f35b610309610988565b6040516103169190613373565b60405180910390f35b61033960048036038101906103349190612c7c565b6109ae565b005b61035560048036038101906103509190612ea5565b6109ce565b005b610371600480360381019061036c9190612ea5565b610a50565b60405161037e91906136f7565b60405180910390f35b6103a1600480360381019061039c9190612e64565b610ae7565b005b6103bd60048036038101906103b89190612ea5565b610b7d565b6040516103ca9190613373565b60405180910390f35b6103db610c2f565b6040516103e891906133f5565b60405180910390f35b61040b60048036038101906104069190612c17565b610cbd565b60405161041891906136f7565b60405180910390f35b610429610d75565b005b61044560048036038101906104409190612ea5565b610dfd565b005b61044f610e83565b60405161045c9190613373565b60405180910390f35b61046d610ead565b60405161047a91906133f5565b60405180910390f35b61049d60048036038101906104989190612d9a565b610f3f565b005b6104b960048036038101906104b49190612c17565b610f55565b005b6104d560048036038101906104d09190612ccb565b611015565b005b6104df611077565b6040516104ec91906133f5565b60405180910390f35b61050f600480360381019061050a9190612ea5565b611105565b60405161051c91906133f5565b60405180910390f35b61052d6111af565b60405161053a91906136f7565b60405180910390f35b61055d60048036038101906105589190612e64565b6111b5565b005b61057960048036038101906105749190612d46565b61124b565b005b61059560048036038101906105909190612c40565b611405565b6040516105a291906133da565b60405180910390f35b6105c560048036038101906105c09190612c17565b611499565b005b60007f780e9d63000000000000000000000000000000000000000000000000000000007bffffffffffffffffffffffffffffffffffffffffffffffffffffffff1916827bffffffffffffffffffffffffffffffffffffffffffffffffffffffff1916148061063a575061063982611591565b5b9050919050565b6060600080546106509061398e565b80601f016020809104026020016040519081016040528092919081815260200182805461067c9061398e565b80156106c95780601f1061069e576101008083540402835291602001916106c9565b820191906000526020600020905b8154815290600101906020018083116106ac57829003601f168201915b5050505050905090565b60006106de82611673565b61071d576040517f08c379a0000000000000000000000000000000000000000000000000000000008152600401610714906135d7565b60405180910390fd5b6004600083815260200190815260200160002060009054906101000a900473ffffffffffffffffffffffffffffffffffffffff169050919050565b600061076382610b7d565b90508073ffffffffffffffffffffffffffffffffffffffff168373ffffffffffffffffffffffffffffffffffffffff1614156107d4576040517f08c379a00000000000000000000000000000000000000000000000000000000081526004016107cb90613657565b60405180910390fd5b8073ffffffffffffffffffffffffffffffffffffffff166107f36116df565b73ffffffffffffffffffffffffffffffffffffffff16148061082257506108218161081c6116df565b611405565b5b610861576040517f08c379a000000000000000000000000000000000000000000000000000000000815260040161085890613537565b60405180910390fd5b61086b83836116e7565b505050565b6000600880549050905090565b600e5481565b61089461088e6116df565b826117a0565b6108d3576040517f08c379a00000000000000000000000000000000000000000000000000000000081526004016108ca906136b7565b60405180910390fd5b6108de83838361187e565b505050565b60006108ee83610cbd565b821061092f576040517f08c379a000000000000000000000000000000000000000000000000000000000815260040161092690613457565b60405180910390fd5b600660008473ffffffffffffffffffffffffffffffffffffffff1673ffffffffffffffffffffffffffffffffffffffff168152602001908152602001600020600083815260200190815260200160002054905092915050565b600f60009054906101000a900473ffffffffffffffffffffffffffffffffffffffff1681565b6109c983838360405180602001604052806000815250611015565b505050565b3373ffffffffffffffffffffffffffffffffffffffff166109ee82610b7d565b73ffffffffffffffffffffffffffffffffffffffff1614610a44576040517f08c379a0000000000000000000000000000000000000000000000000000000008152600401610a3b90613417565b60405180910390fd5b610a4d81611ada565b50565b6000610a5a610870565b8210610a9b576040517f08c379a0000000000000000000000000000000000000000000000000000000008152600401610a92906136d7565b60405180910390fd5b60088281548110610ad5577f4e487b7100000000000000000000000000000000000000000000000000000000600052603260045260246000fd5b90600052602060002001549050919050565b610aef6116df565b73ffffffffffffffffffffffffffffffffffffffff16610b0d610e83565b73ffffffffffffffffffffffffffffffffffffffff1614610b63576040517f08c379a0000000000000000000000000000000000000000000000000000000008152600401610b5a906135f7565b60405180910390fd5b80600b9080519060200190610b799291906129a5565b5050565b6000806002600084815260200190815260200160002060009054906101000a900473ffffffffffffffffffffffffffffffffffffffff169050600073ffffffffffffffffffffffffffffffffffffffff168173ffffffffffffffffffffffffffffffffffffffff161415610c26576040517f08c379a0000000000000000000000000000000000000000000000000000000008152600401610c1d90613577565b60405180910390fd5b80915050919050565b600b8054610c3c9061398e565b80601f0160208091040260200160405190810160405280929190818152602001828054610c689061398e565b8015610cb55780601f10610c8a57610100808354040283529160200191610cb5565b820191906000526020600020905b815481529060010190602001808311610c9857829003601f168201915b505050505081565b60008073ffffffffffffffffffffffffffffffffffffffff168273ffffffffffffffffffffffffffffffffffffffff161415610d2e576040517f08c379a0000000000000000000000000000000000000000000000000000000008152600401610d2590613557565b60405180910390fd5b600360008373ffffffffffffffffffffffffffffffffffffffff1673ffffffffffffffffffffffffffffffffffffffff168152602001908152602001600020549050919050565b610d7d6116df565b73ffffffffffffffffffffffffffffffffffffffff16610d9b610e83565b73ffffffffffffffffffffffffffffffffffffffff1614610df1576040517f08c379a0000000000000000000000000000000000000000000000000000000008152600401610de8906135f7565b60405180910390fd5b610dfb6000611beb565b565b610e056116df565b73ffffffffffffffffffffffffffffffffffffffff16610e23610e83565b73ffffffffffffffffffffffffffffffffffffffff1614610e79576040517f08c379a0000000000000000000000000000000000000000000000000000000008152600401610e70906135f7565b60405180910390fd5b80600e8190555050565b6000600a60009054906101000a900473ffffffffffffffffffffffffffffffffffffffff16905090565b606060018054610ebc9061398e565b80601f0160208091040260200160405190810160405280929190818152602001828054610ee89061398e565b8015610f355780601f10610f0a57610100808354040283529160200191610f35565b820191906000526020600020905b815481529060010190602001808311610f1857829003601f168201915b5050505050905090565b610f51610f4a6116df565b8383611cb1565b5050565b610f5d6116df565b73ffffffffffffffffffffffffffffffffffffffff16610f7b610e83565b73ffffffffffffffffffffffffffffffffffffffff1614610fd1576040517f08c379a0000000000000000000000000000000000000000000000000000000008152600401610fc8906135f7565b60405180910390fd5b80600f60006101000a81548173ffffffffffffffffffffffffffffffffffffffff021916908373ffffffffffffffffffffffffffffffffffffffff16021790555050565b6110266110206116df565b836117a0565b611065576040517f08c379a000000000000000000000000000000000000000000000000000000000815260040161105c906136b7565b60405180910390fd5b61107184848484611e1e565b50505050565b600c80546110849061398e565b80601f01602080910402602001604051908101604052809291908181526020018280546110b09061398e565b80156110fd5780601f106110d2576101008083540402835291602001916110fd565b820191906000526020600020905b8154815290600101906020018083116110e057829003601f168201915b505050505081565b606061111082611673565b61114f576040517f08c379a000000000000000000000000000000000000000000000000000000000815260040161114690613637565b60405180910390fd5b6000611159611e7a565b9050600081511161117957604051806020016040528060008152506111a7565b8061118384611f0c565b600c60405160200161119793929190613342565b6040516020818303038152906040525b915050919050565b600d5481565b6111bd6116df565b73ffffffffffffffffffffffffffffffffffffffff166111db610e83565b73ffffffffffffffffffffffffffffffffffffffff1614611231576040517f08c379a0000000000000000000000000000000000000000000000000000000008152600401611228906135f7565b60405180910390fd5b80600c90805190602001906112479291906129a5565b5050565b6000611255610870565b9050600e5461126384610cbd565b11156112a4576040517f08c379a000000000000000000000000000000000000000000000000000000000815260040161129b906135b7565b60405180910390fd5b600e5482516112b285610cbd565b6112bc919061381d565b106112fc576040517f08c379a00000000000000000000000000000000000000000000000000000000081526004016112f390613677565b60405180910390fd5b600e5482511115611342576040517f08c379a000000000000000000000000000000000000000000000000000000000815260040161133990613437565b60405180910390fd5b600d54825182611352919061381d565b1115611393576040517f08c379a000000000000000000000000000000000000000000000000000000000815260040161138a90613697565b60405180910390fd5b6000600190505b825181116113ff576113ec848483815181106113df577f4e487b7100000000000000000000000000000000000000000000000000000000600052603260045260246000fd5b60200260200101516120b9565b80806113f7906139f1565b91505061139a565b50505050565b6000600560008473ffffffffffffffffffffffffffffffffffffffff1673ffffffffffffffffffffffffffffffffffffffff16815260200190815260200160002060008373ffffffffffffffffffffffffffffffffffffffff1673ffffffffffffffffffffffffffffffffffffffff16815260200190815260200160002060009054906101000a900460ff16905092915050565b6114a16116df565b73ffffffffffffffffffffffffffffffffffffffff166114bf610e83565b73ffffffffffffffffffffffffffffffffffffffff1614611515576040517f08c379a000000000000000000000000000000000000000000000000000000000815260040161150c906135f7565b60405180910390fd5b600073ffffffffffffffffffffffffffffffffffffffff168173ffffffffffffffffffffffffffffffffffffffff161415611585576040517f08c379a000000000000000000000000000000000000000000000000000000000815260040161157c90613497565b60405180910390fd5b61158e81611beb565b50565b60007f80ac58cd000000000000000000000000000000000000000000000000000000007bffffffffffffffffffffffffffffffffffffffffffffffffffffffff1916827bffffffffffffffffffffffffffffffffffffffffffffffffffffffff1916148061165c57507f5b5e139f000000000000000000000000000000000000000000000000000000007bffffffffffffffffffffffffffffffffffffffffffffffffffffffff1916827bffffffffffffffffffffffffffffffffffffffffffffffffffffffff1916145b8061166c575061166b826120d7565b5b9050919050565b60008073ffffffffffffffffffffffffffffffffffffffff166002600084815260200190815260200160002060009054906101000a900473ffffffffffffffffffffffffffffffffffffffff1673ffffffffffffffffffffffffffffffffffffffff1614159050919050565b600033905090565b816004600083815260200190815260200160002060006101000a81548173ffffffffffffffffffffffffffffffffffffffff021916908373ffffffffffffffffffffffffffffffffffffffff160217905550808273ffffffffffffffffffffffffffffffffffffffff1661175a83610b7d565b73ffffffffffffffffffffffffffffffffffffffff167f8c5be1e5ebec7d5bd14f71427d1e84f3dd0314c0f7b2291e5b200ac8c7c3b92560405160405180910390a45050565b60006117ab82611673565b6117ea576040517f08c379a00000000000000000000000000000000000000000000000000000000081526004016117e190613517565b60405180910390fd5b60006117f583610b7d565b90508073ffffffffffffffffffffffffffffffffffffffff168473ffffffffffffffffffffffffffffffffffffffff16148061186457508373ffffffffffffffffffffffffffffffffffffffff1661184c846106d3565b73ffffffffffffffffffffffffffffffffffffffff16145b8061187557506118748185611405565b5b91505092915050565b8273ffffffffffffffffffffffffffffffffffffffff1661189e82610b7d565b73ffffffffffffffffffffffffffffffffffffffff16146118f4576040517f08c379a00000000000000000000000000000000000000000000000000000000081526004016118eb90613617565b60405180910390fd5b600073ffffffffffffffffffffffffffffffffffffffff168273ffffffffffffffffffffffffffffffffffffffff161415611964576040517f08c379a000000000000000000000000000000000000000000000000000000000815260040161195b906134d7565b60405180910390fd5b61196f838383612141565b61197a6000826116e7565b6001600360008573ffffffffffffffffffffffffffffffffffffffff1673ffffffffffffffffffffffffffffffffffffffff16815260200190815260200160002060008282546119ca91906138a4565b925050819055506001600360008473ffffffffffffffffffffffffffffffffffffffff1673ffffffffffffffffffffffffffffffffffffffff1681526020019081526020016000206000828254611a21919061381d565b92505081905550816002600083815260200190815260200160002060006101000a81548173ffffffffffffffffffffffffffffffffffffffff021916908373ffffffffffffffffffffffffffffffffffffffff160217905550808273ffffffffffffffffffffffffffffffffffffffff168473ffffffffffffffffffffffffffffffffffffffff167fddf252ad1be2c89b69c2b068fc378daa952ba7f163c4a11628f55a4df523b3ef60405160405180910390a4505050565b6000611ae582610b7d565b9050611af381600084612141565b611afe6000836116e7565b6001600360008373ffffffffffffffffffffffffffffffffffffffff1673ffffffffffffffffffffffffffffffffffffffff1681526020019081526020016000206000828254611b4e91906138a4565b925050819055506002600083815260200190815260200160002060006101000a81549073ffffffffffffffffffffffffffffffffffffffff021916905581600073ffffffffffffffffffffffffffffffffffffffff168273ffffffffffffffffffffffffffffffffffffffff167fddf252ad1be2c89b69c2b068fc378daa952ba7f163c4a11628f55a4df523b3ef60405160405180910390a45050565b6000600a60009054906101000a900473ffffffffffffffffffffffffffffffffffffffff16905081600a60006101000a81548173ffffffffffffffffffffffffffffffffffffffff021916908373ffffffffffffffffffffffffffffffffffffffff1602179055508173ffffffffffffffffffffffffffffffffffffffff168173ffffffffffffffffffffffffffffffffffffffff167f8be0079c531659141344cd1fd0a4f28419497f9722a3daafe3b4186f6b6457e060405160405180910390a35050565b8173ffffffffffffffffffffffffffffffffffffffff168373ffffffffffffffffffffffffffffffffffffffff161415611d20576040517f08c379a0000000000000000000000000000000000000000000000000000000008152600401611d17906134f7565b60405180910390fd5b80600560008573ffffffffffffffffffffffffffffffffffffffff1673ffffffffffffffffffffffffffffffffffffffff16815260200190815260200160002060008473ffffffffffffffffffffffffffffffffffffffff1673ffffffffffffffffffffffffffffffffffffffff16815260200190815260200160002060006101000a81548160ff0219169083151502179055508173ffffffffffffffffffffffffffffffffffffffff168373ffffffffffffffffffffffffffffffffffffffff167f17307eab39ab6107e8899845ad3d59bd9653f200f220920489ca2b5937696c3183604051611e1191906133da565b60405180910390a3505050565b611e2984848461187e565b611e3584848484612255565b611e74576040517f08c379a0000000000000000000000000000000000000000000000000000000008152600401611e6b90613477565b60405180910390fd5b50505050565b6060600b8054611e899061398e565b80601f0160208091040260200160405190810160405280929190818152602001828054611eb59061398e565b8015611f025780601f10611ed757610100808354040283529160200191611f02565b820191906000526020600020905b815481529060010190602001808311611ee557829003601f168201915b5050505050905090565b60606000821415611f54576040518060400160405280600181526020017f300000000000000000000000000000000000000000000000000000000000000081525090506120b4565b600082905060005b60008214611f86578080611f6f906139f1565b915050600a82611f7f9190613873565b9150611f5c565b60008167ffffffffffffffff811115611fc8577f4e487b7100000000000000000000000000000000000000000000000000000000600052604160045260246000fd5b6040519080825280601f01601f191660200182016040528015611ffa5781602001600182028036833780820191505090505b5090505b600085146120ad5760018261201391906138a4565b9150600a856120229190613a3a565b603061202e919061381d565b60f81b81838151811061206a577f4e487b7100000000000000000000000000000000000000000000000000000000600052603260045260246000fd5b60200101907effffffffffffffffffffffffffffffffffffffffffffffffffffffffffffff1916908160001a905350600a856120a69190613873565b9450611ffe565b8093505050505b919050565b6120d38282604051806020016040528060008152506123ec565b5050565b60007f01ffc9a7000000000000000000000000000000000000000000000000000000007bffffffffffffffffffffffffffffffffffffffffffffffffffffffff1916827bffffffffffffffffffffffffffffffffffffffffffffffffffffffff1916149050919050565b61214c838383612447565b600073ffffffffffffffffffffffffffffffffffffffff168373ffffffffffffffffffffffffffffffffffffffff16141561218f5761218a8161244c565b6121ce565b8173ffffffffffffffffffffffffffffffffffffffff168373ffffffffffffffffffffffffffffffffffffffff16146121cd576121cc8382612495565b5b5b600073ffffffffffffffffffffffffffffffffffffffff168273ffffffffffffffffffffffffffffffffffffffff1614156122115761220c81612602565b612250565b8273ffffffffffffffffffffffffffffffffffffffff168273ffffffffffffffffffffffffffffffffffffffff161461224f5761224e8282612745565b5b5b505050565b60006122768473ffffffffffffffffffffffffffffffffffffffff166127c4565b156123df578373ffffffffffffffffffffffffffffffffffffffff1663150b7a0261229f6116df565b8786866040518563ffffffff1660e01b81526004016122c1949392919061338e565b602060405180830381600087803b1580156122db57600080fd5b505af192505050801561230c57506040513d601f19601f820116820180604052508101906123099190612e3b565b60015b61238f573d806000811461233c576040519150601f19603f3d011682016040523d82523d6000602084013e612341565b606091505b50600081511415612387576040517f08c379a000000000000000000000000000000000000000000000000000000000815260040161237e90613477565b60405180910390fd5b805181602001fd5b63150b7a0260e01b7bffffffffffffffffffffffffffffffffffffffffffffffffffffffff1916817bffffffffffffffffffffffffffffffffffffffffffffffffffffffff1916149150506123e4565b600190505b949350505050565b6123f683836127d7565b6124036000848484612255565b612442576040517f08c379a000000000000000000000000000000000000000000000000000000000815260040161243990613477565b60405180910390fd5b505050565b505050565b6008805490506009600083815260200190815260200160002081905550600881908060018154018082558091505060019003906000526020600020016000909190919091505550565b600060016124a284610cbd565b6124ac91906138a4565b9050600060076000848152602001908152602001600020549050818114612591576000600660008673ffffffffffffffffffffffffffffffffffffffff1673ffffffffffffffffffffffffffffffffffffffff168152602001908152602001600020600084815260200190815260200160002054905080600660008773ffffffffffffffffffffffffffffffffffffffff1673ffffffffffffffffffffffffffffffffffffffff168152602001908152602001600020600084815260200190815260200160002081905550816007600083815260200190815260200160002081905550505b6007600084815260200190815260200160002060009055600660008573ffffffffffffffffffffffffffffffffffffffff1673ffffffffffffffffffffffffffffffffffffffff16815260200190815260200160002060008381526020019081526020016000206000905550505050565b6000600160088054905061261691906138a4565b905060006009600084815260200190815260200160002054905060006008838154811061266c577f4e487b7100000000000000000000000000000000000000000000000000000000600052603260045260246000fd5b9060005260206000200154905080600883815481106126b4577f4e487b7100000000000000000000000000000000000000000000000000000000600052603260045260246000fd5b906000526020600020018190555081600960008381526020019081526020016000208190555060096000858152602001908152602001600020600090556008805480612729577f4e487b7100000000000000000000000000000000000000000000000000000000600052603160045260246000fd5b6001900381819060005260206000200160009055905550505050565b600061275083610cbd565b905081600660008573ffffffffffffffffffffffffffffffffffffffff1673ffffffffffffffffffffffffffffffffffffffff168152602001908152602001600020600083815260200190815260200160002081905550806007600084815260200190815260200160002081905550505050565b600080823b905060008111915050919050565b600073ffffffffffffffffffffffffffffffffffffffff168273ffffffffffffffffffffffffffffffffffffffff161415612847576040517f08c379a000000000000000000000000000000000000000000000000000000000815260040161283e90613597565b60405180910390fd5b61285081611673565b15612890576040517f08c379a0000000000000000000000000000000000000000000000000000000008152600401612887906134b7565b60405180910390fd5b61289c60008383612141565b6001600360008473ffffffffffffffffffffffffffffffffffffffff1673ffffffffffffffffffffffffffffffffffffffff16815260200190815260200160002060008282546128ec919061381d565b92505081905550816002600083815260200190815260200160002060006101000a81548173ffffffffffffffffffffffffffffffffffffffff021916908373ffffffffffffffffffffffffffffffffffffffff160217905550808273ffffffffffffffffffffffffffffffffffffffff16600073ffffffffffffffffffffffffffffffffffffffff167fddf252ad1be2c89b69c2b068fc378daa952ba7f163c4a11628f55a4df523b3ef60405160405180910390a45050565b8280546129b19061398e565b90600052602060002090601f0160209004810192826129d35760008555612a1a565b82601f106129ec57805160ff1916838001178555612a1a565b82800160010185558215612a1a579182015b82811115612a195782518255916020019190600101906129fe565b5b509050612a279190612a2b565b5090565b5b80821115612a44576000816000905550600101612a2c565b5090565b6000612a5b612a5684613737565b613712565b90508083825260208201905082856020860282011115612a7a57600080fd5b60005b85811015612aaa5781612a908882612c02565b845260208401935060208301925050600181019050612a7d565b5050509392505050565b6000612ac7612ac284613763565b613712565b905082815260208101848484011115612adf57600080fd5b612aea84828561394c565b509392505050565b6000612b05612b0084613794565b613712565b905082815260208101848484011115612b1d57600080fd5b612b2884828561394c565b509392505050565b600081359050612b3f8161416d565b92915050565b600082601f830112612b5657600080fd5b8135612b66848260208601612a48565b91505092915050565b600081359050612b7e81614184565b92915050565b600081359050612b938161419b565b92915050565b600081519050612ba88161419b565b92915050565b600082601f830112612bbf57600080fd5b8135612bcf848260208601612ab4565b91505092915050565b600082601f830112612be957600080fd5b8135612bf9848260208601612af2565b91505092915050565b600081359050612c11816141b2565b92915050565b600060208284031215612c2957600080fd5b6000612c3784828501612b30565b91505092915050565b60008060408385031215612c5357600080fd5b6000612c6185828601612b30565b9250506020612c7285828601612b30565b9150509250929050565b600080600060608486031215612c9157600080fd5b6000612c9f86828701612b30565b9350506020612cb086828701612b30565b9250506040612cc186828701612c02565b9150509250925092565b60008060008060808587031215612ce157600080fd5b6000612cef87828801612b30565b9450506020612d0087828801612b30565b9350506040612d1187828801612c02565b925050606085013567ffffffffffffffff811115612d2e57600080fd5b612d3a87828801612bae565b91505092959194509250565b60008060408385031215612d5957600080fd5b6000612d6785828601612b30565b925050602083013567ffffffffffffffff811115612d8457600080fd5b612d9085828601612b45565b9150509250929050565b60008060408385031215612dad57600080fd5b6000612dbb85828601612b30565b9250506020612dcc85828601612b6f565b9150509250929050565b60008060408385031215612de957600080fd5b6000612df785828601612b30565b9250506020612e0885828601612c02565b9150509250929050565b600060208284031215612e2457600080fd5b6000612e3284828501612b84565b91505092915050565b600060208284031215612e4d57600080fd5b6000612e5b84828501612b99565b91505092915050565b600060208284031215612e7657600080fd5b600082013567ffffffffffffffff811115612e9057600080fd5b612e9c84828501612bd8565b91505092915050565b600060208284031215612eb757600080fd5b6000612ec584828501612c02565b91505092915050565b612ed7816138d8565b82525050565b612ee6816138ea565b82525050565b6000612ef7826137da565b612f0181856137f0565b9350612f1181856020860161395b565b612f1a81613b27565b840191505092915050565b6000612f30826137e5565b612f3a8185613801565b9350612f4a81856020860161395b565b612f5381613b27565b840191505092915050565b6000612f69826137e5565b612f738185613812565b9350612f8381856020860161395b565b80840191505092915050565b60008154612f9c8161398e565b612fa68186613812565b94506001821660008114612fc15760018114612fd257613005565b60ff19831686528186019350613005565b612fdb856137c5565b60005b83811015612ffd57815481890152600182019150602081019050612fde565b838801955050505b50505092915050565b600061301b600d83613801565b915061302682613b38565b602082019050919050565b600061303e602a83613801565b915061304982613b61565b604082019050919050565b6000613061602b83613801565b915061306c82613bb0565b604082019050919050565b6000613084603283613801565b915061308f82613bff565b604082019050919050565b60006130a7602683613801565b91506130b282613c4e565b604082019050919050565b60006130ca601c83613801565b91506130d582613c9d565b602082019050919050565b60006130ed602483613801565b91506130f882613cc6565b604082019050919050565b6000613110601983613801565b915061311b82613d15565b602082019050919050565b6000613133602c83613801565b915061313e82613d3e565b604082019050919050565b6000613156603883613801565b915061316182613d8d565b604082019050919050565b6000613179602a83613801565b915061318482613ddc565b604082019050919050565b600061319c602983613801565b91506131a782613e2b565b604082019050919050565b60006131bf602083613801565b91506131ca82613e7a565b602082019050919050565b60006131e2602e83613801565b91506131ed82613ea3565b604082019050919050565b6000613205602c83613801565b915061321082613ef2565b604082019050919050565b6000613228602083613801565b915061323382613f41565b602082019050919050565b600061324b602983613801565b915061325682613f6a565b604082019050919050565b600061326e602f83613801565b915061327982613fb9565b604082019050919050565b6000613291602183613801565b915061329c82614008565b604082019050919050565b60006132b4602d83613801565b91506132bf82614057565b604082019050919050565b60006132d7601e83613801565b91506132e2826140a6565b602082019050919050565b60006132fa603183613801565b9150613305826140cf565b604082019050919050565b600061331d602c83613801565b91506133288261411e565b604082019050919050565b61333c81613942565b82525050565b600061334e8286612f5e565b915061335a8285612f5e565b91506133668284612f8f565b9150819050949350505050565b60006020820190506133886000830184612ece565b92915050565b60006080820190506133a36000830187612ece565b6133b06020830186612ece565b6133bd6040830185613333565b81810360608301526133cf8184612eec565b905095945050505050565b60006020820190506133ef6000830184612edd565b92915050565b6000602082019050818103600083015261340f8184612f25565b905092915050565b600060208201905081810360008301526134308161300e565b9050919050565b6000602082019050818103600083015261345081613031565b9050919050565b6000602082019050818103600083015261347081613054565b9050919050565b6000602082019050818103600083015261349081613077565b9050919050565b600060208201905081810360008301526134b08161309a565b9050919050565b600060208201905081810360008301526134d0816130bd565b9050919050565b600060208201905081810360008301526134f0816130e0565b9050919050565b6000602082019050818103600083015261351081613103565b9050919050565b6000602082019050818103600083015261353081613126565b9050919050565b6000602082019050818103600083015261355081613149565b9050919050565b600060208201905081810360008301526135708161316c565b9050919050565b600060208201905081810360008301526135908161318f565b9050919050565b600060208201905081810360008301526135b0816131b2565b9050919050565b600060208201905081810360008301526135d0816131d5565b9050919050565b600060208201905081810360008301526135f0816131f8565b9050919050565b600060208201905081810360008301526136108161321b565b9050919050565b600060208201905081810360008301526136308161323e565b9050919050565b6000602082019050818103600083015261365081613261565b9050919050565b6000602082019050818103600083015261367081613284565b9050919050565b60006020820190508181036000830152613690816132a7565b9050919050565b600060208201905081810360008301526136b0816132ca565b9050919050565b600060208201905081810360008301526136d0816132ed565b9050919050565b600060208201905081810360008301526136f081613310565b9050919050565b600060208201905061370c6000830184613333565b92915050565b600061371c61372d565b905061372882826139c0565b919050565b6000604051905090565b600067ffffffffffffffff82111561375257613751613af8565b5b602082029050602081019050919050565b600067ffffffffffffffff82111561377e5761377d613af8565b5b61378782613b27565b9050602081019050919050565b600067ffffffffffffffff8211156137af576137ae613af8565b5b6137b882613b27565b9050602081019050919050565b60008190508160005260206000209050919050565b600081519050919050565b600081519050919050565b600082825260208201905092915050565b600082825260208201905092915050565b600081905092915050565b600061382882613942565b915061383383613942565b9250827fffffffffffffffffffffffffffffffffffffffffffffffffffffffffffffffff0382111561386857613867613a6b565b5b828201905092915050565b600061387e82613942565b915061388983613942565b92508261389957613898613a9a565b5b828204905092915050565b60006138af82613942565b91506138ba83613942565b9250828210156138cd576138cc613a6b565b5b828203905092915050565b60006138e382613922565b9050919050565b60008115159050919050565b60007fffffffff0000000000000000000000000000000000000000000000000000000082169050919050565b600073ffffffffffffffffffffffffffffffffffffffff82169050919050565b6000819050919050565b82818337600083830152505050565b60005b8381101561397957808201518184015260208101905061395e565b83811115613988576000848401525b50505050565b600060028204905060018216806139a657607f821691505b602082108114156139ba576139b9613ac9565b5b50919050565b6139c982613b27565b810181811067ffffffffffffffff821117156139e8576139e7613af8565b5b80604052505050565b60006139fc82613942565b91507fffffffffffffffffffffffffffffffffffffffffffffffffffffffffffffffff821415613a2f57613a2e613a6b565b5b600182019050919050565b6000613a4582613942565b9150613a5083613942565b925082613a6057613a5f613a9a565b5b828206905092915050565b7f4e487b7100000000000000000000000000000000000000000000000000000000600052601160045260246000fd5b7f4e487b7100000000000000000000000000000000000000000000000000000000600052601260045260246000fd5b7f4e487b7100000000000000000000000000000000000000000000000000000000600052602260045260246000fd5b7f4e487b7100000000000000000000000000000000000000000000000000000000600052604160045260246000fd5b6000601f19601f8301169050919050565b7f496e76616c6964204f776e657200000000000000000000000000000000000000600082015250565b7f42616279446f6765204e46543a2043616e6e6f74206d696e742074686973206d60008201527f75636820616d6f756e7400000000000000000000000000000000000000000000602082015250565b7f455243373231456e756d657261626c653a206f776e657220696e646578206f7560008201527f74206f6620626f756e6473000000000000000000000000000000000000000000602082015250565b7f4552433732313a207472616e7366657220746f206e6f6e20455243373231526560008201527f63656976657220696d706c656d656e7465720000000000000000000000000000602082015250565b7f4f776e61626c653a206e6577206f776e657220697320746865207a65726f206160008201527f6464726573730000000000000000000000000000000000000000000000000000602082015250565b7f4552433732313a20746f6b656e20616c7265616479206d696e74656400000000600082015250565b7f4552433732313a207472616e7366657220746f20746865207a65726f2061646460008201527f7265737300000000000000000000000000000000000000000000000000000000602082015250565b7f4552433732313a20617070726f766520746f2063616c6c657200000000000000600082015250565b7f4552433732313a206f70657261746f7220717565727920666f72206e6f6e657860008201527f697374656e7420746f6b656e0000000000000000000000000000000000000000602082015250565b7f4552433732313a20617070726f76652063616c6c6572206973206e6f74206f7760008201527f6e6572206e6f7220617070726f76656420666f7220616c6c0000000000000000602082015250565b7f4552433732313a2062616c616e636520717565727920666f7220746865207a6560008201527f726f206164647265737300000000000000000000000000000000000000000000602082015250565b7f4552433732313a206f776e657220717565727920666f72206e6f6e657869737460008201527f656e7420746f6b656e0000000000000000000000000000000000000000000000602082015250565b7f4552433732313a206d696e7420746f20746865207a65726f2061646472657373600082015250565b7f42616279446f6765204e46543a20557365722065786365656473206d6178696d60008201527f756d206d696e7420616d6f756e74000000000000000000000000000000000000602082015250565b7f4552433732313a20617070726f76656420717565727920666f72206e6f6e657860008201527f697374656e7420746f6b656e0000000000000000000000000000000000000000602082015250565b7f4f776e61626c653a2063616c6c6572206973206e6f7420746865206f776e6572600082015250565b7f4552433732313a207472616e73666572206f6620746f6b656e2074686174206960008201527f73206e6f74206f776e0000000000000000000000000000000000000000000000602082015250565b7f4552433732314d657461646174613a2055524920717565727920666f72206e6f60008201527f6e6578697374656e7420746f6b656e0000000000000000000000000000000000602082015250565b7f4552433732313a20617070726f76616c20746f2063757272656e74206f776e6560008201527f7200000000000000000000000000000000000000000000000000000000000000602082015250565b7f42616279446f6765204e46543a204578747261204e465420696427732070726f60008201527f766964656420746f206d696e7400000000000000000000000000000000000000602082015250565b7f42616279446f6765204e46543a204e6f206d6f7265204e4654206c6566740000600082015250565b7f4552433732313a207472616e736665722063616c6c6572206973206e6f74206f60008201527f776e6572206e6f7220617070726f766564000000000000000000000000000000602082015250565b7f455243373231456e756d657261626c653a20676c6f62616c20696e646578206f60008201527f7574206f6620626f756e64730000000000000000000000000000000000000000602082015250565b614176816138d8565b811461418157600080fd5b50565b61418d816138ea565b811461419857600080fd5b50565b6141a4816138f6565b81146141af57600080fd5b50565b6141bb81613942565b81146141c657600080fd5b5056fea2646970667358221220ec759124f2c56f6ba90c608f54f0ba6ed670bb697eda36a1edadf3bc46775d2764736f6c63430008030033",
  "immutableReferences": {},
  "source": "pragma solidity 0.8.3;\r\n//SPDX-License-Identifier: UNLICENSED\r\nimport \"@openzeppelin/contracts/token/ERC721/extensions/ERC721Enumerable.sol\";\r\nimport \"@openzeppelin/contracts/token/ERC721/ERC721.sol\";\r\nimport \"@openzeppelin/contracts/access/Ownable.sol\";\r\n\r\ncontract BabyDogeNFT is ERC721Enumerable, Ownable {\r\n  using Strings for uint256;\r\n\r\n  string public baseURI;\r\n  string public baseExtension = \".json\";\r\n  uint256 public maxSupply = 3150;\r\n  uint256 public maxMintAmount = 10;\r\n  address public minterAddress;\r\n\r\n  constructor(\r\n    string memory _name,\r\n    string memory _symbol,\r\n    string memory _initBaseURI\r\n  ) ERC721(_name, _symbol) {\r\n    setBaseURI(_initBaseURI);\r\n  }\r\n\r\n  modifier onlyMinter() {\r\n        require(minterAddress == msg.sender,\"BabyDoge NFT: caller is not the Minter\");\r\n        _;\r\n    }\r\n\r\n  function _baseURI() internal view virtual override returns (string memory) {\r\n    return baseURI;\r\n  }\r\n\r\n\r\n  function mint(address _to, uint256[] memory _id) external {\r\n    uint256 supply = totalSupply();\r\n    require(balanceOf(_to) <= maxMintAmount, \"BabyDoge NFT: User exceeds maximum mint amount\");\r\n    require(balanceOf(_to) + _id.length < maxMintAmount, \"BabyDoge NFT: Extra NFT id's provided to mint\");\r\n    require(_id.length <= maxMintAmount, \"BabyDoge NFT: Cannot mint this much amount\");\r\n    require(supply + _id.length <= maxSupply, \"BabyDoge NFT: No more NFT left\");   \r\n    for (uint256 i = 1; i <= _id.length; i++) {\r\n      _safeMint(_to, _id[i]);\r\n    }\r\n  }\r\n\r\n\r\n  function tokenURI(uint256 tokenId)\r\n    public\r\n    view\r\n    virtual\r\n    override\r\n    returns (string memory)\r\n  {\r\n    require(\r\n      _exists(tokenId),\r\n      \"ERC721Metadata: URI query for nonexistent token\"\r\n    );\r\n\r\n    string memory currentBaseURI = _baseURI();\r\n    return bytes(currentBaseURI).length > 0\r\n        ? string(abi.encodePacked(currentBaseURI, tokenId.toString(), baseExtension))\r\n        : \"\";\r\n  }\r\n\r\n  function burn(uint256 _nftId) external{\r\n        require(ownerOf(_nftId) == msg.sender, 'Invalid Owner');\r\n        _burn(_nftId);\r\n    }\r\n\r\n  function setmaxMintAmount(uint256 _newmaxMintAmount) external onlyOwner {\r\n    maxMintAmount = _newmaxMintAmount;\r\n  }\r\n  function setMinterAddress(address _minterAddress) external onlyOwner {\r\n    minterAddress = _minterAddress;\r\n  }\r\n  function setBaseURI(string memory _newBaseURI) public onlyOwner {\r\n    baseURI = _newBaseURI;\r\n  }\r\n\r\n  function setBaseExtension(string memory _newBaseExtension) public onlyOwner {\r\n    baseExtension = _newBaseExtension;\r\n  }\r\n\r\n}\r\n\r\n",
  "sourcePath": "C:\\Users\\USER\\Desktop\\baby Doge\\babyDoge\\contracts\\BabyDogeNFT.sol",
  "compiler": {
    "name": "solc",
    "version": "0.8.3+commit.8d00100c.Emscripten.clang"
  },
  "schemaVersion": "3.4.3",
  "updatedAt": "2022-01-27T16:56:39.645Z",
  "networkType": "ethereum",
  "devdoc": {
    "kind": "dev",
    "methods": {
      "approve(address,uint256)": {
        "details": "See {IERC721-approve}."
      },
      "balanceOf(address)": {
        "details": "See {IERC721-balanceOf}."
      },
      "getApproved(uint256)": {
        "details": "See {IERC721-getApproved}."
      },
      "isApprovedForAll(address,address)": {
        "details": "See {IERC721-isApprovedForAll}."
      },
      "name()": {
        "details": "See {IERC721Metadata-name}."
      },
      "owner()": {
        "details": "Returns the address of the current owner."
      },
      "ownerOf(uint256)": {
        "details": "See {IERC721-ownerOf}."
      },
      "renounceOwnership()": {
        "details": "Leaves the contract without owner. It will not be possible to call `onlyOwner` functions anymore. Can only be called by the current owner. NOTE: Renouncing ownership will leave the contract without an owner, thereby removing any functionality that is only available to the owner."
      },
      "safeTransferFrom(address,address,uint256)": {
        "details": "See {IERC721-safeTransferFrom}."
      },
      "safeTransferFrom(address,address,uint256,bytes)": {
        "details": "See {IERC721-safeTransferFrom}."
      },
      "setApprovalForAll(address,bool)": {
        "details": "See {IERC721-setApprovalForAll}."
      },
      "supportsInterface(bytes4)": {
        "details": "See {IERC165-supportsInterface}."
      },
      "symbol()": {
        "details": "See {IERC721Metadata-symbol}."
      },
      "tokenByIndex(uint256)": {
        "details": "See {IERC721Enumerable-tokenByIndex}."
      },
      "tokenOfOwnerByIndex(address,uint256)": {
        "details": "See {IERC721Enumerable-tokenOfOwnerByIndex}."
      },
      "tokenURI(uint256)": {
        "details": "See {IERC721Metadata-tokenURI}."
      },
      "totalSupply()": {
        "details": "See {IERC721Enumerable-totalSupply}."
      },
      "transferFrom(address,address,uint256)": {
        "details": "See {IERC721-transferFrom}."
      },
      "transferOwnership(address)": {
        "details": "Transfers ownership of the contract to a new account (`newOwner`). Can only be called by the current owner."
      }
    },
    "version": 1
  },
  "userdoc": {
    "kind": "user",
    "methods": {},
    "version": 1
  }
}