{
  "contractName": "BabyDogeNFT",
  "abi": [
    {
      "inputs": [
        {
          "internalType": "string",
          "name": "_name",
          "type": "string"
        },
        {
          "internalType": "string",
          "name": "_symbol",
          "type": "string"
        },
        {
          "internalType": "string",
          "name": "_initBaseURI",
          "type": "string"
        }
      ],
      "stateMutability": "nonpayable",
      "type": "constructor"
    },
    {
      "anonymous": false,
      "inputs": [
        {
          "indexed": true,
          "internalType": "address",
          "name": "owner",
          "type": "address"
        },
        {
          "indexed": true,
          "internalType": "address",
          "name": "approved",
          "type": "address"
        },
        {
          "indexed": true,
          "internalType": "uint256",
          "name": "tokenId",
          "type": "uint256"
        }
      ],
      "name": "Approval",
      "type": "event"
    },
    {
      "anonymous": false,
      "inputs": [
        {
          "indexed": true,
          "internalType": "address",
          "name": "owner",
          "type": "address"
        },
        {
          "indexed": true,
          "internalType": "address",
          "name": "operator",
          "type": "address"
        },
        {
          "indexed": false,
          "internalType": "bool",
          "name": "approved",
          "type": "bool"
        }
      ],
      "name": "ApprovalForAll",
      "type": "event"
    },
    {
      "anonymous": false,
      "inputs": [
        {
          "indexed": true,
          "internalType": "address",
          "name": "previousOwner",
          "type": "address"
        },
        {
          "indexed": true,
          "internalType": "address",
          "name": "newOwner",
          "type": "address"
        }
      ],
      "name": "OwnershipTransferred",
      "type": "event"
    },
    {
      "anonymous": false,
      "inputs": [
        {
          "indexed": true,
          "internalType": "address",
          "name": "from",
          "type": "address"
        },
        {
          "indexed": true,
          "internalType": "address",
          "name": "to",
          "type": "address"
        },
        {
          "indexed": true,
          "internalType": "uint256",
          "name": "tokenId",
          "type": "uint256"
        }
      ],
      "name": "Transfer",
      "type": "event"
    },
    {
      "inputs": [
        {
          "internalType": "address",
          "name": "to",
          "type": "address"
        },
        {
          "internalType": "uint256",
          "name": "tokenId",
          "type": "uint256"
        }
      ],
      "name": "approve",
      "outputs": [],
      "stateMutability": "nonpayable",
      "type": "function"
    },
    {
      "inputs": [
        {
          "internalType": "address",
          "name": "owner",
          "type": "address"
        }
      ],
      "name": "balanceOf",
      "outputs": [
        {
          "internalType": "uint256",
          "name": "",
          "type": "uint256"
        }
      ],
      "stateMutability": "view",
      "type": "function"
    },
    {
      "inputs": [],
      "name": "baseExtension",
      "outputs": [
        {
          "internalType": "string",
          "name": "",
          "type": "string"
        }
      ],
      "stateMutability": "view",
      "type": "function"
    },
    {
      "inputs": [],
      "name": "baseURI",
      "outputs": [
        {
          "internalType": "string",
          "name": "",
          "type": "string"
        }
      ],
      "stateMutability": "view",
      "type": "function"
    },
    {
      "inputs": [
        {
          "internalType": "uint256",
          "name": "tokenId",
          "type": "uint256"
        }
      ],
      "name": "getApproved",
      "outputs": [
        {
          "internalType": "address",
          "name": "",
          "type": "address"
        }
      ],
      "stateMutability": "view",
      "type": "function"
    },
    {
      "inputs": [
        {
          "internalType": "address",
          "name": "owner",
          "type": "address"
        },
        {
          "internalType": "address",
          "name": "operator",
          "type": "address"
        }
      ],
      "name": "isApprovedForAll",
      "outputs": [
        {
          "internalType": "bool",
          "name": "",
          "type": "bool"
        }
      ],
      "stateMutability": "view",
      "type": "function"
    },
    {
      "inputs": [],
      "name": "maxMint",
      "outputs": [
        {
          "internalType": "uint256",
          "name": "",
          "type": "uint256"
        }
      ],
      "stateMutability": "view",
      "type": "function"
    },
    {
      "inputs": [],
      "name": "maxSupply",
      "outputs": [
        {
          "internalType": "uint256",
          "name": "",
          "type": "uint256"
        }
      ],
      "stateMutability": "view",
      "type": "function"
    },
    {
      "inputs": [],
      "name": "minterAddress",
      "outputs": [
        {
          "internalType": "address",
          "name": "",
          "type": "address"
        }
      ],
      "stateMutability": "view",
      "type": "function"
    },
    {
      "inputs": [],
      "name": "name",
      "outputs": [
        {
          "internalType": "string",
          "name": "",
          "type": "string"
        }
      ],
      "stateMutability": "view",
      "type": "function"
    },
    {
      "inputs": [],
      "name": "owner",
      "outputs": [
        {
          "internalType": "address",
          "name": "",
          "type": "address"
        }
      ],
      "stateMutability": "view",
      "type": "function"
    },
    {
      "inputs": [
        {
          "internalType": "uint256",
          "name": "tokenId",
          "type": "uint256"
        }
      ],
      "name": "ownerOf",
      "outputs": [
        {
          "internalType": "address",
          "name": "",
          "type": "address"
        }
      ],
      "stateMutability": "view",
      "type": "function"
    },
    {
      "inputs": [],
      "name": "renounceOwnership",
      "outputs": [],
      "stateMutability": "nonpayable",
      "type": "function"
    },
    {
      "inputs": [
        {
          "internalType": "address",
          "name": "from",
          "type": "address"
        },
        {
          "internalType": "address",
          "name": "to",
          "type": "address"
        },
        {
          "internalType": "uint256",
          "name": "tokenId",
          "type": "uint256"
        }
      ],
      "name": "safeTransferFrom",
      "outputs": [],
      "stateMutability": "nonpayable",
      "type": "function"
    },
    {
      "inputs": [
        {
          "internalType": "address",
          "name": "from",
          "type": "address"
        },
        {
          "internalType": "address",
          "name": "to",
          "type": "address"
        },
        {
          "internalType": "uint256",
          "name": "tokenId",
          "type": "uint256"
        },
        {
          "internalType": "bytes",
          "name": "_data",
          "type": "bytes"
        }
      ],
      "name": "safeTransferFrom",
      "outputs": [],
      "stateMutability": "nonpayable",
      "type": "function"
    },
    {
      "inputs": [
        {
          "internalType": "address",
          "name": "operator",
          "type": "address"
        },
        {
          "internalType": "bool",
          "name": "approved",
          "type": "bool"
        }
      ],
      "name": "setApprovalForAll",
      "outputs": [],
      "stateMutability": "nonpayable",
      "type": "function"
    },
    {
      "inputs": [
        {
          "internalType": "bytes4",
          "name": "interfaceId",
          "type": "bytes4"
        }
      ],
      "name": "supportsInterface",
      "outputs": [
        {
          "internalType": "bool",
          "name": "",
          "type": "bool"
        }
      ],
      "stateMutability": "view",
      "type": "function"
    },
    {
      "inputs": [],
      "name": "symbol",
      "outputs": [
        {
          "internalType": "string",
          "name": "",
          "type": "string"
        }
      ],
      "stateMutability": "view",
      "type": "function"
    },
    {
      "inputs": [
        {
          "internalType": "uint256",
          "name": "index",
          "type": "uint256"
        }
      ],
      "name": "tokenByIndex",
      "outputs": [
        {
          "internalType": "uint256",
          "name": "",
          "type": "uint256"
        }
      ],
      "stateMutability": "view",
      "type": "function"
    },
    {
      "inputs": [
        {
          "internalType": "address",
          "name": "owner",
          "type": "address"
        },
        {
          "internalType": "uint256",
          "name": "index",
          "type": "uint256"
        }
      ],
      "name": "tokenOfOwnerByIndex",
      "outputs": [
        {
          "internalType": "uint256",
          "name": "",
          "type": "uint256"
        }
      ],
      "stateMutability": "view",
      "type": "function"
    },
    {
      "inputs": [],
      "name": "totalMinted",
      "outputs": [
        {
          "internalType": "uint256",
          "name": "",
          "type": "uint256"
        }
      ],
      "stateMutability": "view",
      "type": "function"
    },
    {
      "inputs": [],
      "name": "totalSupply",
      "outputs": [
        {
          "internalType": "uint256",
          "name": "",
          "type": "uint256"
        }
      ],
      "stateMutability": "view",
      "type": "function"
    },
    {
      "inputs": [
        {
          "internalType": "address",
          "name": "from",
          "type": "address"
        },
        {
          "internalType": "address",
          "name": "to",
          "type": "address"
        },
        {
          "internalType": "uint256",
          "name": "tokenId",
          "type": "uint256"
        }
      ],
      "name": "transferFrom",
      "outputs": [],
      "stateMutability": "nonpayable",
      "type": "function"
    },
    {
      "inputs": [
        {
          "internalType": "address",
          "name": "newOwner",
          "type": "address"
        }
      ],
      "name": "transferOwnership",
      "outputs": [],
      "stateMutability": "nonpayable",
      "type": "function"
    },
    {
      "inputs": [],
      "name": "visibility",
      "outputs": [
        {
          "internalType": "bool",
          "name": "",
          "type": "bool"
        }
      ],
      "stateMutability": "view",
      "type": "function"
    },
    {
      "inputs": [
        {
          "internalType": "address",
          "name": "_to",
          "type": "address"
        },
        {
          "internalType": "uint256[]",
          "name": "_id",
          "type": "uint256[]"
        }
      ],
      "name": "mint",
      "outputs": [],
      "stateMutability": "nonpayable",
      "type": "function"
    },
    {
      "inputs": [
        {
          "internalType": "uint256",
          "name": "tokenId",
          "type": "uint256"
        }
      ],
      "name": "tokenURI",
      "outputs": [
        {
          "internalType": "string",
          "name": "",
          "type": "string"
        }
      ],
      "stateMutability": "view",
      "type": "function"
    },
    {
      "inputs": [
        {
          "internalType": "uint256",
          "name": "_nftId",
          "type": "uint256"
        }
      ],
      "name": "burn",
      "outputs": [],
      "stateMutability": "nonpayable",
      "type": "function"
    },
    {
      "inputs": [
        {
          "internalType": "uint256",
          "name": "_newmaxMint",
          "type": "uint256"
        }
      ],
      "name": "setmaxMint",
      "outputs": [],
      "stateMutability": "nonpayable",
      "type": "function"
    },
    {
      "inputs": [
        {
          "internalType": "address",
          "name": "_minterAddress",
          "type": "address"
        }
      ],
      "name": "setMinterAddress",
      "outputs": [],
      "stateMutability": "nonpayable",
      "type": "function"
    },
    {
      "inputs": [
        {
          "internalType": "string",
          "name": "_newBaseURI",
          "type": "string"
        }
      ],
      "name": "setBaseURI",
      "outputs": [],
      "stateMutability": "nonpayable",
      "type": "function"
    },
    {
      "inputs": [
        {
          "internalType": "string",
          "name": "_newDefaultBaseURI",
          "type": "string"
        }
      ],
      "name": "setDefaultBaseURI",
      "outputs": [],
      "stateMutability": "nonpayable",
      "type": "function"
    },
    {
      "inputs": [
        {
          "internalType": "string",
          "name": "_newBaseExtension",
          "type": "string"
        }
      ],
      "name": "setBaseExtension",
      "outputs": [],
      "stateMutability": "nonpayable",
      "type": "function"
    },
    {
      "inputs": [
        {
          "internalType": "bool",
          "name": "_visibility",
          "type": "bool"
        }
      ],
      "name": "setVisibility",
      "outputs": [],
      "stateMutability": "nonpayable",
      "type": "function"
    }
  ],
  "bytecode": "0x60806040526040518060400160405280600581526020017f2e6a736f6e000000000000000000000000000000000000000000000000000000815250600c908051906020019062000051929190620002a3565b50610c4e600d55600a600e553480156200006a57600080fd5b50604051620049ea380380620049ea8339818101604052810190620000909190620004f0565b82828160009080519060200190620000aa929190620002a3565b508060019080519060200190620000c3929190620002a3565b505050620000e6620000da6200010060201b60201c565b6200010860201b60201c565b620000f781620001ce60201b60201c565b50505062000691565b600033905090565b6000600a60009054906101000a900473ffffffffffffffffffffffffffffffffffffffff16905081600a60006101000a81548173ffffffffffffffffffffffffffffffffffffffff021916908373ffffffffffffffffffffffffffffffffffffffff1602179055508173ffffffffffffffffffffffffffffffffffffffff168173ffffffffffffffffffffffffffffffffffffffff167f8be0079c531659141344cd1fd0a4f28419497f9722a3daafe3b4186f6b6457e060405160405180910390a35050565b620001de6200010060201b60201c565b73ffffffffffffffffffffffffffffffffffffffff16620002046200027960201b60201c565b73ffffffffffffffffffffffffffffffffffffffff16146200025d576040517f08c379a000000000000000000000000000000000000000000000000000000000815260040162000254906200060a565b60405180910390fd5b80600b908051906020019062000275929190620002a3565b5050565b6000600a60009054906101000a900473ffffffffffffffffffffffffffffffffffffffff16905090565b828054620002b1906200065b565b90600052602060002090601f016020900481019282620002d5576000855562000321565b82601f10620002f057805160ff191683800117855562000321565b8280016001018555821562000321579182015b828111156200032057825182559160200191906001019062000303565b5b50905062000330919062000334565b5090565b5b808211156200034f57600081600090555060010162000335565b5090565b6000604051905090565b600080fd5b600080fd5b600080fd5b600080fd5b6000601f19601f8301169050919050565b7f4e487b7100000000000000000000000000000000000000000000000000000000600052604160045260246000fd5b620003bc8262000371565b810181811067ffffffffffffffff82111715620003de57620003dd62000382565b5b80604052505050565b6000620003f362000353565b9050620004018282620003b1565b919050565b600067ffffffffffffffff82111562000424576200042362000382565b5b6200042f8262000371565b9050602081019050919050565b60005b838110156200045c5780820151818401526020810190506200043f565b838111156200046c576000848401525b50505050565b600062000489620004838462000406565b620003e7565b905082815260208101848484011115620004a857620004a76200036c565b5b620004b58482856200043c565b509392505050565b600082601f830112620004d557620004d462000367565b5b8151620004e784826020860162000472565b91505092915050565b6000806000606084860312156200050c576200050b6200035d565b5b600084015167ffffffffffffffff8111156200052d576200052c62000362565b5b6200053b86828701620004bd565b935050602084015167ffffffffffffffff8111156200055f576200055e62000362565b5b6200056d86828701620004bd565b925050604084015167ffffffffffffffff81111562000591576200059062000362565b5b6200059f86828701620004bd565b9150509250925092565b600082825260208201905092915050565b7f4f776e61626c653a2063616c6c6572206973206e6f7420746865206f776e6572600082015250565b6000620005f2602083620005a9565b9150620005ff82620005ba565b602082019050919050565b600060208201905081810360008301526200062581620005e3565b9050919050565b7f4e487b7100000000000000000000000000000000000000000000000000000000600052602260045260246000fd5b600060028204905060018216806200067457607f821691505b602082108114156200068b576200068a6200062c565b5b50919050565b61434980620006a16000396000f3fe608060405234801561001057600080fd5b50600436106102065760003560e01c80636c0360eb1161011a578063a3106b95116100ad578063d5abeb011161007c578063d5abeb01146105c5578063da3ef23f146105e3578063de836ebd146105ff578063e985e9c51461061b578063f2fde38b1461064b57610206565b8063a3106b951461053f578063b88d4fde1461055b578063c668286214610577578063c87b56dd1461059557610206565b80638da5cb5b116100e95780638da5cb5b146104c957806395d89b41146104e7578063a22cb46514610505578063a2309ff81461052157610206565b80636c0360eb1461045357806370a0823114610471578063715018a6146104a15780637501f741146104ab57610206565b806329adec141161019d57806342842e0e1161016c57806342842e0e1461039f57806342966c68146103bb5780634f6ccce7146103d757806355f804b3146104075780636352211e1461042357610206565b806329adec14146103175780632f745c59146103355780632fc2e29c1461036557806334d722c91461038157610206565b8063095ea7b3116101d9578063095ea7b3146102a557806318160ddd146102c157806323b872dd146102df57806328c30c07146102fb57610206565b806301e669721461020b57806301ffc9a71461022757806306fdde0314610257578063081812fc14610275575b600080fd5b61022560048036038101906102209190612c91565b610667565b005b610241600480360381019061023c9190612d32565b6106fd565b60405161024e9190612d7a565b60405180910390f35b61025f610777565b60405161026c9190612e1d565b60405180910390f35b61028f600480360381019061028a9190612e75565b610809565b60405161029c9190612ee3565b60405180910390f35b6102bf60048036038101906102ba9190612f2a565b61088e565b005b6102c96109a6565b6040516102d69190612f79565b60405180910390f35b6102f960048036038101906102f49190612f94565b6109b3565b005b61031560048036038101906103109190613013565b610a13565b005b61031f610aac565b60405161032c9190612d7a565b60405180910390f35b61034f600480360381019061034a9190612f2a565b610abf565b60405161035c9190612f79565b60405180910390f35b61037f600480360381019061037a9190612e75565b610b64565b005b610389610bea565b6040516103969190612ee3565b60405180910390f35b6103b960048036038101906103b49190612f94565b610c10565b005b6103d560048036038101906103d09190612e75565b610c30565b005b6103f160048036038101906103ec9190612e75565b610cb2565b6040516103fe9190612f79565b60405180910390f35b610421600480360381019061041c9190612c91565b610d23565b005b61043d60048036038101906104389190612e75565b610db9565b60405161044a9190612ee3565b60405180910390f35b61045b610e6b565b6040516104689190612e1d565b60405180910390f35b61048b60048036038101906104869190613040565b610ef9565b6040516104989190612f79565b60405180910390f35b6104a9610fb1565b005b6104b3611039565b6040516104c09190612f79565b60405180910390f35b6104d161103f565b6040516104de9190612ee3565b60405180910390f35b6104ef611069565b6040516104fc9190612e1d565b60405180910390f35b61051f600480360381019061051a919061306d565b6110fb565b005b610529611111565b6040516105369190612f79565b60405180910390f35b61055960048036038101906105549190613040565b611117565b005b6105756004803603810190610570919061314e565b6111d7565b005b61057f611239565b60405161058c9190612e1d565b60405180910390f35b6105af60048036038101906105aa9190612e75565b6112c7565b6040516105bc9190612e1d565b60405180910390f35b6105cd611418565b6040516105da9190612f79565b60405180910390f35b6105fd60048036038101906105f89190612c91565b61141e565b005b61061960048036038101906106149190613299565b6114b4565b005b610635600480360381019061063091906132f5565b61163a565b6040516106429190612d7a565b60405180910390f35b61066560048036038101906106609190613040565b6116ce565b005b61066f6117c6565b73ffffffffffffffffffffffffffffffffffffffff1661068d61103f565b73ffffffffffffffffffffffffffffffffffffffff16146106e3576040517f08c379a00000000000000000000000000000000000000000000000000000000081526004016106da90613381565b60405180910390fd5b80601290805190602001906106f9929190612a94565b5050565b60007f780e9d63000000000000000000000000000000000000000000000000000000007bffffffffffffffffffffffffffffffffffffffffffffffffffffffff1916827bffffffffffffffffffffffffffffffffffffffffffffffffffffffff19161480610770575061076f826117ce565b5b9050919050565b606060008054610786906133d0565b80601f01602080910402602001604051908101604052809291908181526020018280546107b2906133d0565b80156107ff5780601f106107d4576101008083540402835291602001916107ff565b820191906000526020600020905b8154815290600101906020018083116107e257829003601f168201915b5050505050905090565b6000610814826118b0565b610853576040517f08c379a000000000000000000000000000000000000000000000000000000000815260040161084a90613474565b60405180910390fd5b6004600083815260200190815260200160002060009054906101000a900473ffffffffffffffffffffffffffffffffffffffff169050919050565b600061089982610db9565b90508073ffffffffffffffffffffffffffffffffffffffff168373ffffffffffffffffffffffffffffffffffffffff16141561090a576040517f08c379a000000000000000000000000000000000000000000000000000000000815260040161090190613506565b60405180910390fd5b8073ffffffffffffffffffffffffffffffffffffffff166109296117c6565b73ffffffffffffffffffffffffffffffffffffffff1614806109585750610957816109526117c6565b61163a565b5b610997576040517f08c379a000000000000000000000000000000000000000000000000000000000815260040161098e90613598565b60405180910390fd5b6109a1838361191c565b505050565b6000600880549050905090565b6109c46109be6117c6565b826119d5565b610a03576040517f08c379a00000000000000000000000000000000000000000000000000000000081526004016109fa9061362a565b60405180910390fd5b610a0e838383611ab3565b505050565b610a1b6117c6565b73ffffffffffffffffffffffffffffffffffffffff16610a3961103f565b73ffffffffffffffffffffffffffffffffffffffff1614610a8f576040517f08c379a0000000000000000000000000000000000000000000000000000000008152600401610a8690613381565b60405180910390fd5b80601160006101000a81548160ff02191690831515021790555050565b601160009054906101000a900460ff1681565b6000610aca83610ef9565b8210610b0b576040517f08c379a0000000000000000000000000000000000000000000000000000000008152600401610b02906136bc565b60405180910390fd5b600660008473ffffffffffffffffffffffffffffffffffffffff1673ffffffffffffffffffffffffffffffffffffffff168152602001908152602001600020600083815260200190815260200160002054905092915050565b610b6c6117c6565b73ffffffffffffffffffffffffffffffffffffffff16610b8a61103f565b73ffffffffffffffffffffffffffffffffffffffff1614610be0576040517f08c379a0000000000000000000000000000000000000000000000000000000008152600401610bd790613381565b60405180910390fd5b80600e8190555050565b600f60009054906101000a900473ffffffffffffffffffffffffffffffffffffffff1681565b610c2b838383604051806020016040528060008152506111d7565b505050565b3373ffffffffffffffffffffffffffffffffffffffff16610c5082610db9565b73ffffffffffffffffffffffffffffffffffffffff1614610ca6576040517f08c379a0000000000000000000000000000000000000000000000000000000008152600401610c9d90613728565b60405180910390fd5b610caf81611d0f565b50565b6000610cbc6109a6565b8210610cfd576040517f08c379a0000000000000000000000000000000000000000000000000000000008152600401610cf4906137ba565b60405180910390fd5b60088281548110610d1157610d106137da565b5b90600052602060002001549050919050565b610d2b6117c6565b73ffffffffffffffffffffffffffffffffffffffff16610d4961103f565b73ffffffffffffffffffffffffffffffffffffffff1614610d9f576040517f08c379a0000000000000000000000000000000000000000000000000000000008152600401610d9690613381565b60405180910390fd5b80600b9080519060200190610db5929190612a94565b5050565b6000806002600084815260200190815260200160002060009054906101000a900473ffffffffffffffffffffffffffffffffffffffff169050600073ffffffffffffffffffffffffffffffffffffffff168173ffffffffffffffffffffffffffffffffffffffff161415610e62576040517f08c379a0000000000000000000000000000000000000000000000000000000008152600401610e599061387b565b60405180910390fd5b80915050919050565b600b8054610e78906133d0565b80601f0160208091040260200160405190810160405280929190818152602001828054610ea4906133d0565b8015610ef15780601f10610ec657610100808354040283529160200191610ef1565b820191906000526020600020905b815481529060010190602001808311610ed457829003601f168201915b505050505081565b60008073ffffffffffffffffffffffffffffffffffffffff168273ffffffffffffffffffffffffffffffffffffffff161415610f6a576040517f08c379a0000000000000000000000000000000000000000000000000000000008152600401610f619061390d565b60405180910390fd5b600360008373ffffffffffffffffffffffffffffffffffffffff1673ffffffffffffffffffffffffffffffffffffffff168152602001908152602001600020549050919050565b610fb96117c6565b73ffffffffffffffffffffffffffffffffffffffff16610fd761103f565b73ffffffffffffffffffffffffffffffffffffffff161461102d576040517f08c379a000000000000000000000000000000000000000000000000000000000815260040161102490613381565b60405180910390fd5b6110376000611e20565b565b600e5481565b6000600a60009054906101000a900473ffffffffffffffffffffffffffffffffffffffff16905090565b606060018054611078906133d0565b80601f01602080910402602001604051908101604052809291908181526020018280546110a4906133d0565b80156110f15780601f106110c6576101008083540402835291602001916110f1565b820191906000526020600020905b8154815290600101906020018083116110d457829003601f168201915b5050505050905090565b61110d6111066117c6565b8383611ee6565b5050565b60105481565b61111f6117c6565b73ffffffffffffffffffffffffffffffffffffffff1661113d61103f565b73ffffffffffffffffffffffffffffffffffffffff1614611193576040517f08c379a000000000000000000000000000000000000000000000000000000000815260040161118a90613381565b60405180910390fd5b80600f60006101000a81548173ffffffffffffffffffffffffffffffffffffffff021916908373ffffffffffffffffffffffffffffffffffffffff16021790555050565b6111e86111e26117c6565b836119d5565b611227576040517f08c379a000000000000000000000000000000000000000000000000000000000815260040161121e9061362a565b60405180910390fd5b61123384848484612053565b50505050565b600c8054611246906133d0565b80601f0160208091040260200160405190810160405280929190818152602001828054611272906133d0565b80156112bf5780601f10611294576101008083540402835291602001916112bf565b820191906000526020600020905b8154815290600101906020018083116112a257829003601f168201915b505050505081565b60606112d2826118b0565b611311576040517f08c379a00000000000000000000000000000000000000000000000000000000081526004016113089061399f565b60405180910390fd5b601160009054906101000a900460ff166113b75760128054611332906133d0565b80601f016020809104026020016040519081016040528092919081815260200182805461135e906133d0565b80156113ab5780601f10611380576101008083540402835291602001916113ab565b820191906000526020600020905b81548152906001019060200180831161138e57829003601f168201915b50505050509050611413565b60006113c16120af565b905060008151116113e1576040518060200160405280600081525061140f565b806113eb84612141565b600c6040516020016113ff93929190613a8f565b6040516020818303038152906040525b9150505b919050565b600d5481565b6114266117c6565b73ffffffffffffffffffffffffffffffffffffffff1661144461103f565b73ffffffffffffffffffffffffffffffffffffffff161461149a576040517f08c379a000000000000000000000000000000000000000000000000000000000815260040161149190613381565b60405180910390fd5b80600c90805190602001906114b0929190612a94565b5050565b3373ffffffffffffffffffffffffffffffffffffffff16600f60009054906101000a900473ffffffffffffffffffffffffffffffffffffffff1673ffffffffffffffffffffffffffffffffffffffff1614611544576040517f08c379a000000000000000000000000000000000000000000000000000000000815260040161153b90613b32565b60405180910390fd5b600e548151111561158a576040517f08c379a000000000000000000000000000000000000000000000000000000000815260040161158190613bc4565b60405180910390fd5b600d54815160105461159c9190613c13565b11156115dd576040517f08c379a00000000000000000000000000000000000000000000000000000000081526004016115d490613cb5565b60405180910390fd5b60005b81518110156116205761160d83838381518110611600576115ff6137da565b5b60200260200101516122a2565b808061161890613cd5565b9150506115e0565b5080516010546116309190613c13565b6010819055505050565b6000600560008473ffffffffffffffffffffffffffffffffffffffff1673ffffffffffffffffffffffffffffffffffffffff16815260200190815260200160002060008373ffffffffffffffffffffffffffffffffffffffff1673ffffffffffffffffffffffffffffffffffffffff16815260200190815260200160002060009054906101000a900460ff16905092915050565b6116d66117c6565b73ffffffffffffffffffffffffffffffffffffffff166116f461103f565b73ffffffffffffffffffffffffffffffffffffffff161461174a576040517f08c379a000000000000000000000000000000000000000000000000000000000815260040161174190613381565b60405180910390fd5b600073ffffffffffffffffffffffffffffffffffffffff168173ffffffffffffffffffffffffffffffffffffffff1614156117ba576040517f08c379a00000000000000000000000000000000000000000000000000000000081526004016117b190613d90565b60405180910390fd5b6117c381611e20565b50565b600033905090565b60007f80ac58cd000000000000000000000000000000000000000000000000000000007bffffffffffffffffffffffffffffffffffffffffffffffffffffffff1916827bffffffffffffffffffffffffffffffffffffffffffffffffffffffff1916148061189957507f5b5e139f000000000000000000000000000000000000000000000000000000007bffffffffffffffffffffffffffffffffffffffffffffffffffffffff1916827bffffffffffffffffffffffffffffffffffffffffffffffffffffffff1916145b806118a957506118a882612470565b5b9050919050565b60008073ffffffffffffffffffffffffffffffffffffffff166002600084815260200190815260200160002060009054906101000a900473ffffffffffffffffffffffffffffffffffffffff1673ffffffffffffffffffffffffffffffffffffffff1614159050919050565b816004600083815260200190815260200160002060006101000a81548173ffffffffffffffffffffffffffffffffffffffff021916908373ffffffffffffffffffffffffffffffffffffffff160217905550808273ffffffffffffffffffffffffffffffffffffffff1661198f83610db9565b73ffffffffffffffffffffffffffffffffffffffff167f8c5be1e5ebec7d5bd14f71427d1e84f3dd0314c0f7b2291e5b200ac8c7c3b92560405160405180910390a45050565b60006119e0826118b0565b611a1f576040517f08c379a0000000000000000000000000000000000000000000000000000000008152600401611a1690613e22565b60405180910390fd5b6000611a2a83610db9565b90508073ffffffffffffffffffffffffffffffffffffffff168473ffffffffffffffffffffffffffffffffffffffff161480611a9957508373ffffffffffffffffffffffffffffffffffffffff16611a8184610809565b73ffffffffffffffffffffffffffffffffffffffff16145b80611aaa5750611aa9818561163a565b5b91505092915050565b8273ffffffffffffffffffffffffffffffffffffffff16611ad382610db9565b73ffffffffffffffffffffffffffffffffffffffff1614611b29576040517f08c379a0000000000000000000000000000000000000000000000000000000008152600401611b2090613eb4565b60405180910390fd5b600073ffffffffffffffffffffffffffffffffffffffff168273ffffffffffffffffffffffffffffffffffffffff161415611b99576040517f08c379a0000000000000000000000000000000000000000000000000000000008152600401611b9090613f46565b60405180910390fd5b611ba48383836124da565b611baf60008261191c565b6001600360008573ffffffffffffffffffffffffffffffffffffffff1673ffffffffffffffffffffffffffffffffffffffff1681526020019081526020016000206000828254611bff9190613f66565b925050819055506001600360008473ffffffffffffffffffffffffffffffffffffffff1673ffffffffffffffffffffffffffffffffffffffff1681526020019081526020016000206000828254611c569190613c13565b92505081905550816002600083815260200190815260200160002060006101000a81548173ffffffffffffffffffffffffffffffffffffffff021916908373ffffffffffffffffffffffffffffffffffffffff160217905550808273ffffffffffffffffffffffffffffffffffffffff168473ffffffffffffffffffffffffffffffffffffffff167fddf252ad1be2c89b69c2b068fc378daa952ba7f163c4a11628f55a4df523b3ef60405160405180910390a4505050565b6000611d1a82610db9565b9050611d28816000846124da565b611d3360008361191c565b6001600360008373ffffffffffffffffffffffffffffffffffffffff1673ffffffffffffffffffffffffffffffffffffffff1681526020019081526020016000206000828254611d839190613f66565b925050819055506002600083815260200190815260200160002060006101000a81549073ffffffffffffffffffffffffffffffffffffffff021916905581600073ffffffffffffffffffffffffffffffffffffffff168273ffffffffffffffffffffffffffffffffffffffff167fddf252ad1be2c89b69c2b068fc378daa952ba7f163c4a11628f55a4df523b3ef60405160405180910390a45050565b6000600a60009054906101000a900473ffffffffffffffffffffffffffffffffffffffff16905081600a60006101000a81548173ffffffffffffffffffffffffffffffffffffffff021916908373ffffffffffffffffffffffffffffffffffffffff1602179055508173ffffffffffffffffffffffffffffffffffffffff168173ffffffffffffffffffffffffffffffffffffffff167f8be0079c531659141344cd1fd0a4f28419497f9722a3daafe3b4186f6b6457e060405160405180910390a35050565b8173ffffffffffffffffffffffffffffffffffffffff168373ffffffffffffffffffffffffffffffffffffffff161415611f55576040517f08c379a0000000000000000000000000000000000000000000000000000000008152600401611f4c90613fe6565b60405180910390fd5b80600560008573ffffffffffffffffffffffffffffffffffffffff1673ffffffffffffffffffffffffffffffffffffffff16815260200190815260200160002060008473ffffffffffffffffffffffffffffffffffffffff1673ffffffffffffffffffffffffffffffffffffffff16815260200190815260200160002060006101000a81548160ff0219169083151502179055508173ffffffffffffffffffffffffffffffffffffffff168373ffffffffffffffffffffffffffffffffffffffff167f17307eab39ab6107e8899845ad3d59bd9653f200f220920489ca2b5937696c31836040516120469190612d7a565b60405180910390a3505050565b61205e848484611ab3565b61206a848484846125ee565b6120a9576040517f08c379a00000000000000000000000000000000000000000000000000000000081526004016120a090614078565b60405180910390fd5b50505050565b6060600b80546120be906133d0565b80601f01602080910402602001604051908101604052809291908181526020018280546120ea906133d0565b80156121375780601f1061210c57610100808354040283529160200191612137565b820191906000526020600020905b81548152906001019060200180831161211a57829003601f168201915b5050505050905090565b60606000821415612189576040518060400160405280600181526020017f3000000000000000000000000000000000000000000000000000000000000000815250905061229d565b600082905060005b600082146121bb5780806121a490613cd5565b915050600a826121b491906140c7565b9150612191565b60008167ffffffffffffffff8111156121d7576121d6612b66565b5b6040519080825280601f01601f1916602001820160405280156122095781602001600182028036833780820191505090505b5090505b60008514612296576001826122229190613f66565b9150600a8561223191906140f8565b603061223d9190613c13565b60f81b818381518110612253576122526137da565b5b60200101907effffffffffffffffffffffffffffffffffffffffffffffffffffffffffffff1916908160001a905350600a8561228f91906140c7565b945061220d565b8093505050505b919050565b600073ffffffffffffffffffffffffffffffffffffffff168273ffffffffffffffffffffffffffffffffffffffff161415612312576040517f08c379a000000000000000000000000000000000000000000000000000000000815260040161230990614175565b60405180910390fd5b61231b816118b0565b1561235b576040517f08c379a0000000000000000000000000000000000000000000000000000000008152600401612352906141e1565b60405180910390fd5b612367600083836124da565b6001600360008473ffffffffffffffffffffffffffffffffffffffff1673ffffffffffffffffffffffffffffffffffffffff16815260200190815260200160002060008282546123b79190613c13565b92505081905550816002600083815260200190815260200160002060006101000a81548173ffffffffffffffffffffffffffffffffffffffff021916908373ffffffffffffffffffffffffffffffffffffffff160217905550808273ffffffffffffffffffffffffffffffffffffffff16600073ffffffffffffffffffffffffffffffffffffffff167fddf252ad1be2c89b69c2b068fc378daa952ba7f163c4a11628f55a4df523b3ef60405160405180910390a45050565b60007f01ffc9a7000000000000000000000000000000000000000000000000000000007bffffffffffffffffffffffffffffffffffffffffffffffffffffffff1916827bffffffffffffffffffffffffffffffffffffffffffffffffffffffff1916149050919050565b6124e5838383612776565b600073ffffffffffffffffffffffffffffffffffffffff168373ffffffffffffffffffffffffffffffffffffffff161415612528576125238161277b565b612567565b8173ffffffffffffffffffffffffffffffffffffffff168373ffffffffffffffffffffffffffffffffffffffff16146125665761256583826127c4565b5b5b600073ffffffffffffffffffffffffffffffffffffffff168273ffffffffffffffffffffffffffffffffffffffff1614156125aa576125a581612931565b6125e9565b8273ffffffffffffffffffffffffffffffffffffffff168273ffffffffffffffffffffffffffffffffffffffff16146125e8576125e78282612a02565b5b5b505050565b600061260f8473ffffffffffffffffffffffffffffffffffffffff16612a81565b15612769578373ffffffffffffffffffffffffffffffffffffffff1663150b7a026126386117c6565b8786866040518563ffffffff1660e01b815260040161265a9493929190614256565b6020604051808303816000875af192505050801561269657506040513d601f19601f8201168201806040525081019061269391906142b7565b60015b612719573d80600081146126c6576040519150601f19603f3d011682016040523d82523d6000602084013e6126cb565b606091505b50600081511415612711576040517f08c379a000000000000000000000000000000000000000000000000000000000815260040161270890614078565b60405180910390fd5b805181602001fd5b63150b7a0260e01b7bffffffffffffffffffffffffffffffffffffffffffffffffffffffff1916817bffffffffffffffffffffffffffffffffffffffffffffffffffffffff19161491505061276e565b600190505b949350505050565b505050565b6008805490506009600083815260200190815260200160002081905550600881908060018154018082558091505060019003906000526020600020016000909190919091505550565b600060016127d184610ef9565b6127db9190613f66565b90506000600760008481526020019081526020016000205490508181146128c0576000600660008673ffffffffffffffffffffffffffffffffffffffff1673ffffffffffffffffffffffffffffffffffffffff168152602001908152602001600020600084815260200190815260200160002054905080600660008773ffffffffffffffffffffffffffffffffffffffff1673ffffffffffffffffffffffffffffffffffffffff168152602001908152602001600020600084815260200190815260200160002081905550816007600083815260200190815260200160002081905550505b6007600084815260200190815260200160002060009055600660008573ffffffffffffffffffffffffffffffffffffffff1673ffffffffffffffffffffffffffffffffffffffff16815260200190815260200160002060008381526020019081526020016000206000905550505050565b600060016008805490506129459190613f66565b9050600060096000848152602001908152602001600020549050600060088381548110612975576129746137da565b5b906000526020600020015490508060088381548110612997576129966137da565b5b9060005260206000200181905550816009600083815260200190815260200160002081905550600960008581526020019081526020016000206000905560088054806129e6576129e56142e4565b5b6001900381819060005260206000200160009055905550505050565b6000612a0d83610ef9565b905081600660008573ffffffffffffffffffffffffffffffffffffffff1673ffffffffffffffffffffffffffffffffffffffff168152602001908152602001600020600083815260200190815260200160002081905550806007600084815260200190815260200160002081905550505050565b600080823b905060008111915050919050565b828054612aa0906133d0565b90600052602060002090601f016020900481019282612ac25760008555612b09565b82601f10612adb57805160ff1916838001178555612b09565b82800160010185558215612b09579182015b82811115612b08578251825591602001919060010190612aed565b5b509050612b169190612b1a565b5090565b5b80821115612b33576000816000905550600101612b1b565b5090565b6000604051905090565b600080fd5b600080fd5b600080fd5b600080fd5b6000601f19601f8301169050919050565b7f4e487b7100000000000000000000000000000000000000000000000000000000600052604160045260246000fd5b612b9e82612b55565b810181811067ffffffffffffffff82111715612bbd57612bbc612b66565b5b80604052505050565b6000612bd0612b37565b9050612bdc8282612b95565b919050565b600067ffffffffffffffff821115612bfc57612bfb612b66565b5b612c0582612b55565b9050602081019050919050565b82818337600083830152505050565b6000612c34612c2f84612be1565b612bc6565b905082815260208101848484011115612c5057612c4f612b50565b5b612c5b848285612c12565b509392505050565b600082601f830112612c7857612c77612b4b565b5b8135612c88848260208601612c21565b91505092915050565b600060208284031215612ca757612ca6612b41565b5b600082013567ffffffffffffffff811115612cc557612cc4612b46565b5b612cd184828501612c63565b91505092915050565b60007fffffffff0000000000000000000000000000000000000000000000000000000082169050919050565b612d0f81612cda565b8114612d1a57600080fd5b50565b600081359050612d2c81612d06565b92915050565b600060208284031215612d4857612d47612b41565b5b6000612d5684828501612d1d565b91505092915050565b60008115159050919050565b612d7481612d5f565b82525050565b6000602082019050612d8f6000830184612d6b565b92915050565b600081519050919050565b600082825260208201905092915050565b60005b83811015612dcf578082015181840152602081019050612db4565b83811115612dde576000848401525b50505050565b6000612def82612d95565b612df98185612da0565b9350612e09818560208601612db1565b612e1281612b55565b840191505092915050565b60006020820190508181036000830152612e378184612de4565b905092915050565b6000819050919050565b612e5281612e3f565b8114612e5d57600080fd5b50565b600081359050612e6f81612e49565b92915050565b600060208284031215612e8b57612e8a612b41565b5b6000612e9984828501612e60565b91505092915050565b600073ffffffffffffffffffffffffffffffffffffffff82169050919050565b6000612ecd82612ea2565b9050919050565b612edd81612ec2565b82525050565b6000602082019050612ef86000830184612ed4565b92915050565b612f0781612ec2565b8114612f1257600080fd5b50565b600081359050612f2481612efe565b92915050565b60008060408385031215612f4157612f40612b41565b5b6000612f4f85828601612f15565b9250506020612f6085828601612e60565b9150509250929050565b612f7381612e3f565b82525050565b6000602082019050612f8e6000830184612f6a565b92915050565b600080600060608486031215612fad57612fac612b41565b5b6000612fbb86828701612f15565b9350506020612fcc86828701612f15565b9250506040612fdd86828701612e60565b9150509250925092565b612ff081612d5f565b8114612ffb57600080fd5b50565b60008135905061300d81612fe7565b92915050565b60006020828403121561302957613028612b41565b5b600061303784828501612ffe565b91505092915050565b60006020828403121561305657613055612b41565b5b600061306484828501612f15565b91505092915050565b6000806040838503121561308457613083612b41565b5b600061309285828601612f15565b92505060206130a385828601612ffe565b9150509250929050565b600067ffffffffffffffff8211156130c8576130c7612b66565b5b6130d182612b55565b9050602081019050919050565b60006130f16130ec846130ad565b612bc6565b90508281526020810184848401111561310d5761310c612b50565b5b613118848285612c12565b509392505050565b600082601f83011261313557613134612b4b565b5b81356131458482602086016130de565b91505092915050565b6000806000806080858703121561316857613167612b41565b5b600061317687828801612f15565b945050602061318787828801612f15565b935050604061319887828801612e60565b925050606085013567ffffffffffffffff8111156131b9576131b8612b46565b5b6131c587828801613120565b91505092959194509250565b600067ffffffffffffffff8211156131ec576131eb612b66565b5b602082029050602081019050919050565b600080fd5b6000613215613210846131d1565b612bc6565b90508083825260208201905060208402830185811115613238576132376131fd565b5b835b81811015613261578061324d8882612e60565b84526020840193505060208101905061323a565b5050509392505050565b600082601f8301126132805761327f612b4b565b5b8135613290848260208601613202565b91505092915050565b600080604083850312156132b0576132af612b41565b5b60006132be85828601612f15565b925050602083013567ffffffffffffffff8111156132df576132de612b46565b5b6132eb8582860161326b565b9150509250929050565b6000806040838503121561330c5761330b612b41565b5b600061331a85828601612f15565b925050602061332b85828601612f15565b9150509250929050565b7f4f776e61626c653a2063616c6c6572206973206e6f7420746865206f776e6572600082015250565b600061336b602083612da0565b915061337682613335565b602082019050919050565b6000602082019050818103600083015261339a8161335e565b9050919050565b7f4e487b7100000000000000000000000000000000000000000000000000000000600052602260045260246000fd5b600060028204905060018216806133e857607f821691505b602082108114156133fc576133fb6133a1565b5b50919050565b7f4552433732313a20617070726f76656420717565727920666f72206e6f6e657860008201527f697374656e7420746f6b656e0000000000000000000000000000000000000000602082015250565b600061345e602c83612da0565b915061346982613402565b604082019050919050565b6000602082019050818103600083015261348d81613451565b9050919050565b7f4552433732313a20617070726f76616c20746f2063757272656e74206f776e6560008201527f7200000000000000000000000000000000000000000000000000000000000000602082015250565b60006134f0602183612da0565b91506134fb82613494565b604082019050919050565b6000602082019050818103600083015261351f816134e3565b9050919050565b7f4552433732313a20617070726f76652063616c6c6572206973206e6f74206f7760008201527f6e6572206e6f7220617070726f76656420666f7220616c6c0000000000000000602082015250565b6000613582603883612da0565b915061358d82613526565b604082019050919050565b600060208201905081810360008301526135b181613575565b9050919050565b7f4552433732313a207472616e736665722063616c6c6572206973206e6f74206f60008201527f776e6572206e6f7220617070726f766564000000000000000000000000000000602082015250565b6000613614603183612da0565b915061361f826135b8565b604082019050919050565b6000602082019050818103600083015261364381613607565b9050919050565b7f455243373231456e756d657261626c653a206f776e657220696e646578206f7560008201527f74206f6620626f756e6473000000000000000000000000000000000000000000602082015250565b60006136a6602b83612da0565b91506136b18261364a565b604082019050919050565b600060208201905081810360008301526136d581613699565b9050919050565b7f496e76616c6964204f776e657200000000000000000000000000000000000000600082015250565b6000613712600d83612da0565b915061371d826136dc565b602082019050919050565b6000602082019050818103600083015261374181613705565b9050919050565b7f455243373231456e756d657261626c653a20676c6f62616c20696e646578206f60008201527f7574206f6620626f756e64730000000000000000000000000000000000000000602082015250565b60006137a4602c83612da0565b91506137af82613748565b604082019050919050565b600060208201905081810360008301526137d381613797565b9050919050565b7f4e487b7100000000000000000000000000000000000000000000000000000000600052603260045260246000fd5b7f4552433732313a206f776e657220717565727920666f72206e6f6e657869737460008201527f656e7420746f6b656e0000000000000000000000000000000000000000000000602082015250565b6000613865602983612da0565b915061387082613809565b604082019050919050565b6000602082019050818103600083015261389481613858565b9050919050565b7f4552433732313a2062616c616e636520717565727920666f7220746865207a6560008201527f726f206164647265737300000000000000000000000000000000000000000000602082015250565b60006138f7602a83612da0565b91506139028261389b565b604082019050919050565b60006020820190508181036000830152613926816138ea565b9050919050565b7f4552433732314d657461646174613a2055524920717565727920666f72206e6f60008201527f6e6578697374656e7420746f6b656e0000000000000000000000000000000000602082015250565b6000613989602f83612da0565b91506139948261392d565b604082019050919050565b600060208201905081810360008301526139b88161397c565b9050919050565b600081905092915050565b60006139d582612d95565b6139df81856139bf565b93506139ef818560208601612db1565b80840191505092915050565b60008190508160005260206000209050919050565b60008154613a1d816133d0565b613a2781866139bf565b94506001821660008114613a425760018114613a5357613a86565b60ff19831686528186019350613a86565b613a5c856139fb565b60005b83811015613a7e57815481890152600182019150602081019050613a5f565b838801955050505b50505092915050565b6000613a9b82866139ca565b9150613aa782856139ca565b9150613ab38284613a10565b9150819050949350505050565b7f42616279446f6765204e46543a2063616c6c6572206973206e6f74207468652060008201527f4d696e7465720000000000000000000000000000000000000000000000000000602082015250565b6000613b1c602683612da0565b9150613b2782613ac0565b604082019050919050565b60006020820190508181036000830152613b4b81613b0f565b9050919050565b7f42616279446f6765204e46543a2043616e6e6f74206d696e742074686973206d60008201527f75636820616d6f756e7400000000000000000000000000000000000000000000602082015250565b6000613bae602a83612da0565b9150613bb982613b52565b604082019050919050565b60006020820190508181036000830152613bdd81613ba1565b9050919050565b7f4e487b7100000000000000000000000000000000000000000000000000000000600052601160045260246000fd5b6000613c1e82612e3f565b9150613c2983612e3f565b9250827fffffffffffffffffffffffffffffffffffffffffffffffffffffffffffffffff03821115613c5e57613c5d613be4565b5b828201905092915050565b7f42616279446f6765204e46543a204e6f206d6f7265204e4654206c6566740000600082015250565b6000613c9f601e83612da0565b9150613caa82613c69565b602082019050919050565b60006020820190508181036000830152613cce81613c92565b9050919050565b6000613ce082612e3f565b91507fffffffffffffffffffffffffffffffffffffffffffffffffffffffffffffffff821415613d1357613d12613be4565b5b600182019050919050565b7f4f776e61626c653a206e6577206f776e657220697320746865207a65726f206160008201527f6464726573730000000000000000000000000000000000000000000000000000602082015250565b6000613d7a602683612da0565b9150613d8582613d1e565b604082019050919050565b60006020820190508181036000830152613da981613d6d565b9050919050565b7f4552433732313a206f70657261746f7220717565727920666f72206e6f6e657860008201527f697374656e7420746f6b656e0000000000000000000000000000000000000000602082015250565b6000613e0c602c83612da0565b9150613e1782613db0565b604082019050919050565b60006020820190508181036000830152613e3b81613dff565b9050919050565b7f4552433732313a207472616e73666572206f6620746f6b656e2074686174206960008201527f73206e6f74206f776e0000000000000000000000000000000000000000000000602082015250565b6000613e9e602983612da0565b9150613ea982613e42565b604082019050919050565b60006020820190508181036000830152613ecd81613e91565b9050919050565b7f4552433732313a207472616e7366657220746f20746865207a65726f2061646460008201527f7265737300000000000000000000000000000000000000000000000000000000602082015250565b6000613f30602483612da0565b9150613f3b82613ed4565b604082019050919050565b60006020820190508181036000830152613f5f81613f23565b9050919050565b6000613f7182612e3f565b9150613f7c83612e3f565b925082821015613f8f57613f8e613be4565b5b828203905092915050565b7f4552433732313a20617070726f766520746f2063616c6c657200000000000000600082015250565b6000613fd0601983612da0565b9150613fdb82613f9a565b602082019050919050565b60006020820190508181036000830152613fff81613fc3565b9050919050565b7f4552433732313a207472616e7366657220746f206e6f6e20455243373231526560008201527f63656976657220696d706c656d656e7465720000000000000000000000000000602082015250565b6000614062603283612da0565b915061406d82614006565b604082019050919050565b6000602082019050818103600083015261409181614055565b9050919050565b7f4e487b7100000000000000000000000000000000000000000000000000000000600052601260045260246000fd5b60006140d282612e3f565b91506140dd83612e3f565b9250826140ed576140ec614098565b5b828204905092915050565b600061410382612e3f565b915061410e83612e3f565b92508261411e5761411d614098565b5b828206905092915050565b7f4552433732313a206d696e7420746f20746865207a65726f2061646472657373600082015250565b600061415f602083612da0565b915061416a82614129565b602082019050919050565b6000602082019050818103600083015261418e81614152565b9050919050565b7f4552433732313a20746f6b656e20616c7265616479206d696e74656400000000600082015250565b60006141cb601c83612da0565b91506141d682614195565b602082019050919050565b600060208201905081810360008301526141fa816141be565b9050919050565b600081519050919050565b600082825260208201905092915050565b600061422882614201565b614232818561420c565b9350614242818560208601612db1565b61424b81612b55565b840191505092915050565b600060808201905061426b6000830187612ed4565b6142786020830186612ed4565b6142856040830185612f6a565b8181036060830152614297818461421d565b905095945050505050565b6000815190506142b181612d06565b92915050565b6000602082840312156142cd576142cc612b41565b5b60006142db848285016142a2565b91505092915050565b7f4e487b7100000000000000000000000000000000000000000000000000000000600052603160045260246000fdfea2646970667358221220859cd7518d5859a0d04946750d9a61c6da02a02d8b5c43dc74cd7802c862f79a64736f6c634300080b0033",
  "immutableReferences": {},
  "source": "pragma solidity ^0.8.0;\r\n//SPDX-License-Identifier: UNLICENSED\r\nimport \"@openzeppelin/contracts/token/ERC721/extensions/ERC721Enumerable.sol\";\r\nimport \"@openzeppelin/contracts/token/ERC721/ERC721.sol\";\r\nimport \"@openzeppelin/contracts/access/Ownable.sol\";\r\n\r\ncontract BabyDogeNFT is ERC721Enumerable, Ownable {\r\n  using Strings for uint256;\r\n\r\n  string public baseURI;\r\n  string public baseExtension = \".json\";\r\n  uint256 public maxSupply = 3150;\r\n  uint256 public maxMint = 10;\r\n  address public minterAddress;\r\n  uint256 public totalMinted;\r\n  bool public visibility;\r\n  string private defaultBaseURI;\r\n  constructor(\r\n    string memory _name,\r\n    string memory _symbol,\r\n    string memory _initBaseURI\r\n  ) ERC721(_name, _symbol) {\r\n    setBaseURI(_initBaseURI);\r\n  }\r\n\r\n  modifier onlyMinter() {\r\n        require(minterAddress == msg.sender,\"BabyDoge NFT: caller is not the Minter\");\r\n        _;\r\n    }\r\n\r\n  function _baseURI() internal view virtual override returns (string memory) {\r\n    return baseURI;\r\n  }\r\n\r\n\r\n  function mint(address _to, uint256[] memory _id) external onlyMinter(){\r\n\r\n        // require(balanceOf(_to) <= maxMint, \"BabyDoge NFT: User exceeds maximum mint amount\"); --confirm\r\n        // require(balanceOf(_to) + _id.length < maxMint, \"BabyDoge NFT: Extra NFT id's provided to mint\");\r\n        require(_id.length <= maxMint, \"BabyDoge NFT: Cannot mint this much amount\");\r\n        require(totalMinted + _id.length <= maxSupply, \"BabyDoge NFT: No more NFT left\");\r\n        for (uint256 i = 0; i < _id.length; i++) {\r\n          _mint(_to, _id[i]);\r\n          \r\n        }\r\n        totalMinted = totalMinted + _id.length;\r\n    }\r\n\r\n\r\n  function tokenURI(uint256 tokenId)\r\n    public\r\n    view\r\n    virtual\r\n    override\r\n    returns (string memory)\r\n  {\r\n    require(\r\n      _exists(tokenId),\r\n      \"ERC721Metadata: URI query for nonexistent token\"\r\n    );\r\n    if(!visibility){\r\n      return defaultBaseURI;\r\n    }\r\n    else{\r\n    string memory currentBaseURI = _baseURI();\r\n    return bytes(currentBaseURI).length > 0\r\n        ? string(abi.encodePacked(currentBaseURI, tokenId.toString(), baseExtension))\r\n        : \"\";\r\n    }\r\n  }\r\n\r\n  function burn(uint256 _nftId) external{\r\n        require(ownerOf(_nftId) == msg.sender, 'Invalid Owner');\r\n        _burn(_nftId);\r\n    }\r\n\r\n  function setmaxMint(uint256 _newmaxMint) external onlyOwner {\r\n    maxMint = _newmaxMint;\r\n  }\r\n  function setMinterAddress(address _minterAddress) external onlyOwner {\r\n    minterAddress = _minterAddress;\r\n  }\r\n  function setBaseURI(string memory _newBaseURI) public onlyOwner {\r\n    baseURI = _newBaseURI;\r\n  }\r\n\r\n  function setDefaultBaseURI(string memory _newDefaultBaseURI) public onlyOwner {\r\n    defaultBaseURI = _newDefaultBaseURI;\r\n  }\r\n\r\n  function setBaseExtension(string memory _newBaseExtension) public onlyOwner {\r\n    baseExtension = _newBaseExtension;\r\n  }\r\n  function setVisibility(bool _visibility) public onlyOwner {\r\n    visibility = _visibility;\r\n  }\r\n\r\n}\r\n\r\n",
  "sourcePath": "C:\\Users\\USER\\Desktop\\baby Doge\\babyDoge\\contracts\\BabyDogeNFT.sol",
  "compiler": {
    "name": "solc",
    "version": "0.8.11+commit.d7f03943.Emscripten.clang"
  },
  "schemaVersion": "3.4.3",
  "updatedAt": "2022-02-06T16:18:23.548Z",
  "devdoc": {
    "kind": "dev",
    "methods": {
      "approve(address,uint256)": {
        "details": "See {IERC721-approve}."
      },
      "balanceOf(address)": {
        "details": "See {IERC721-balanceOf}."
      },
      "getApproved(uint256)": {
        "details": "See {IERC721-getApproved}."
      },
      "isApprovedForAll(address,address)": {
        "details": "See {IERC721-isApprovedForAll}."
      },
      "name()": {
        "details": "See {IERC721Metadata-name}."
      },
      "owner()": {
        "details": "Returns the address of the current owner."
      },
      "ownerOf(uint256)": {
        "details": "See {IERC721-ownerOf}."
      },
      "renounceOwnership()": {
        "details": "Leaves the contract without owner. It will not be possible to call `onlyOwner` functions anymore. Can only be called by the current owner. NOTE: Renouncing ownership will leave the contract without an owner, thereby removing any functionality that is only available to the owner."
      },
      "safeTransferFrom(address,address,uint256)": {
        "details": "See {IERC721-safeTransferFrom}."
      },
      "safeTransferFrom(address,address,uint256,bytes)": {
        "details": "See {IERC721-safeTransferFrom}."
      },
      "setApprovalForAll(address,bool)": {
        "details": "See {IERC721-setApprovalForAll}."
      },
      "supportsInterface(bytes4)": {
        "details": "See {IERC165-supportsInterface}."
      },
      "symbol()": {
        "details": "See {IERC721Metadata-symbol}."
      },
      "tokenByIndex(uint256)": {
        "details": "See {IERC721Enumerable-tokenByIndex}."
      },
      "tokenOfOwnerByIndex(address,uint256)": {
        "details": "See {IERC721Enumerable-tokenOfOwnerByIndex}."
      },
      "tokenURI(uint256)": {
        "details": "See {IERC721Metadata-tokenURI}."
      },
      "totalSupply()": {
        "details": "See {IERC721Enumerable-totalSupply}."
      },
      "transferFrom(address,address,uint256)": {
        "details": "See {IERC721-transferFrom}."
      },
      "transferOwnership(address)": {
        "details": "Transfers ownership of the contract to a new account (`newOwner`). Can only be called by the current owner."
      }
    },
    "version": 1
  },
  "userdoc": {
    "kind": "user",
    "methods": {},
    "version": 1
  }
}