{
  "contractName": "BabyDogeNFT",
  "abi": [
    {
      "inputs": [
        {
          "internalType": "string",
          "name": "_name",
          "type": "string"
        },
        {
          "internalType": "string",
          "name": "_symbol",
          "type": "string"
        },
        {
          "internalType": "string",
          "name": "_initBaseURI",
          "type": "string"
        }
      ],
      "stateMutability": "nonpayable",
      "type": "constructor"
    },
    {
      "anonymous": false,
      "inputs": [
        {
          "indexed": true,
          "internalType": "address",
          "name": "owner",
          "type": "address"
        },
        {
          "indexed": true,
          "internalType": "address",
          "name": "approved",
          "type": "address"
        },
        {
          "indexed": true,
          "internalType": "uint256",
          "name": "tokenId",
          "type": "uint256"
        }
      ],
      "name": "Approval",
      "type": "event"
    },
    {
      "anonymous": false,
      "inputs": [
        {
          "indexed": true,
          "internalType": "address",
          "name": "owner",
          "type": "address"
        },
        {
          "indexed": true,
          "internalType": "address",
          "name": "operator",
          "type": "address"
        },
        {
          "indexed": false,
          "internalType": "bool",
          "name": "approved",
          "type": "bool"
        }
      ],
      "name": "ApprovalForAll",
      "type": "event"
    },
    {
      "anonymous": false,
      "inputs": [
        {
          "indexed": true,
          "internalType": "address",
          "name": "previousOwner",
          "type": "address"
        },
        {
          "indexed": true,
          "internalType": "address",
          "name": "newOwner",
          "type": "address"
        }
      ],
      "name": "OwnershipTransferred",
      "type": "event"
    },
    {
      "anonymous": false,
      "inputs": [
        {
          "indexed": true,
          "internalType": "address",
          "name": "from",
          "type": "address"
        },
        {
          "indexed": true,
          "internalType": "address",
          "name": "to",
          "type": "address"
        },
        {
          "indexed": true,
          "internalType": "uint256",
          "name": "tokenId",
          "type": "uint256"
        }
      ],
      "name": "Transfer",
      "type": "event"
    },
    {
      "inputs": [
        {
          "internalType": "address",
          "name": "to",
          "type": "address"
        },
        {
          "internalType": "uint256",
          "name": "tokenId",
          "type": "uint256"
        }
      ],
      "name": "approve",
      "outputs": [],
      "stateMutability": "nonpayable",
      "type": "function"
    },
    {
      "inputs": [
        {
          "internalType": "address",
          "name": "owner",
          "type": "address"
        }
      ],
      "name": "balanceOf",
      "outputs": [
        {
          "internalType": "uint256",
          "name": "",
          "type": "uint256"
        }
      ],
      "stateMutability": "view",
      "type": "function"
    },
    {
      "inputs": [],
      "name": "baseExtension",
      "outputs": [
        {
          "internalType": "string",
          "name": "",
          "type": "string"
        }
      ],
      "stateMutability": "view",
      "type": "function"
    },
    {
      "inputs": [],
      "name": "baseURI",
      "outputs": [
        {
          "internalType": "string",
          "name": "",
          "type": "string"
        }
      ],
      "stateMutability": "view",
      "type": "function"
    },
    {
      "inputs": [
        {
          "internalType": "uint256",
          "name": "tokenId",
          "type": "uint256"
        }
      ],
      "name": "getApproved",
      "outputs": [
        {
          "internalType": "address",
          "name": "",
          "type": "address"
        }
      ],
      "stateMutability": "view",
      "type": "function"
    },
    {
      "inputs": [
        {
          "internalType": "address",
          "name": "owner",
          "type": "address"
        },
        {
          "internalType": "address",
          "name": "operator",
          "type": "address"
        }
      ],
      "name": "isApprovedForAll",
      "outputs": [
        {
          "internalType": "bool",
          "name": "",
          "type": "bool"
        }
      ],
      "stateMutability": "view",
      "type": "function"
    },
    {
      "inputs": [],
      "name": "maxMint",
      "outputs": [
        {
          "internalType": "uint256",
          "name": "",
          "type": "uint256"
        }
      ],
      "stateMutability": "view",
      "type": "function"
    },
    {
      "inputs": [],
      "name": "maxSupply",
      "outputs": [
        {
          "internalType": "uint256",
          "name": "",
          "type": "uint256"
        }
      ],
      "stateMutability": "view",
      "type": "function"
    },
    {
      "inputs": [],
      "name": "mintActivate",
      "outputs": [
        {
          "internalType": "bool",
          "name": "",
          "type": "bool"
        }
      ],
      "stateMutability": "view",
      "type": "function"
    },
    {
      "inputs": [],
      "name": "minterAddress",
      "outputs": [
        {
          "internalType": "address",
          "name": "",
          "type": "address"
        }
      ],
      "stateMutability": "view",
      "type": "function"
    },
    {
      "inputs": [],
      "name": "name",
      "outputs": [
        {
          "internalType": "string",
          "name": "",
          "type": "string"
        }
      ],
      "stateMutability": "view",
      "type": "function"
    },
    {
      "inputs": [],
      "name": "owner",
      "outputs": [
        {
          "internalType": "address",
          "name": "",
          "type": "address"
        }
      ],
      "stateMutability": "view",
      "type": "function"
    },
    {
      "inputs": [
        {
          "internalType": "uint256",
          "name": "tokenId",
          "type": "uint256"
        }
      ],
      "name": "ownerOf",
      "outputs": [
        {
          "internalType": "address",
          "name": "",
          "type": "address"
        }
      ],
      "stateMutability": "view",
      "type": "function"
    },
    {
      "inputs": [],
      "name": "renounceOwnership",
      "outputs": [],
      "stateMutability": "nonpayable",
      "type": "function"
    },
    {
      "inputs": [
        {
          "internalType": "address",
          "name": "from",
          "type": "address"
        },
        {
          "internalType": "address",
          "name": "to",
          "type": "address"
        },
        {
          "internalType": "uint256",
          "name": "tokenId",
          "type": "uint256"
        }
      ],
      "name": "safeTransferFrom",
      "outputs": [],
      "stateMutability": "nonpayable",
      "type": "function"
    },
    {
      "inputs": [
        {
          "internalType": "address",
          "name": "from",
          "type": "address"
        },
        {
          "internalType": "address",
          "name": "to",
          "type": "address"
        },
        {
          "internalType": "uint256",
          "name": "tokenId",
          "type": "uint256"
        },
        {
          "internalType": "bytes",
          "name": "_data",
          "type": "bytes"
        }
      ],
      "name": "safeTransferFrom",
      "outputs": [],
      "stateMutability": "nonpayable",
      "type": "function"
    },
    {
      "inputs": [
        {
          "internalType": "address",
          "name": "operator",
          "type": "address"
        },
        {
          "internalType": "bool",
          "name": "approved",
          "type": "bool"
        }
      ],
      "name": "setApprovalForAll",
      "outputs": [],
      "stateMutability": "nonpayable",
      "type": "function"
    },
    {
      "inputs": [
        {
          "internalType": "bytes4",
          "name": "interfaceId",
          "type": "bytes4"
        }
      ],
      "name": "supportsInterface",
      "outputs": [
        {
          "internalType": "bool",
          "name": "",
          "type": "bool"
        }
      ],
      "stateMutability": "view",
      "type": "function"
    },
    {
      "inputs": [],
      "name": "symbol",
      "outputs": [
        {
          "internalType": "string",
          "name": "",
          "type": "string"
        }
      ],
      "stateMutability": "view",
      "type": "function"
    },
    {
      "inputs": [
        {
          "internalType": "uint256",
          "name": "index",
          "type": "uint256"
        }
      ],
      "name": "tokenByIndex",
      "outputs": [
        {
          "internalType": "uint256",
          "name": "",
          "type": "uint256"
        }
      ],
      "stateMutability": "view",
      "type": "function"
    },
    {
      "inputs": [
        {
          "internalType": "address",
          "name": "owner",
          "type": "address"
        },
        {
          "internalType": "uint256",
          "name": "index",
          "type": "uint256"
        }
      ],
      "name": "tokenOfOwnerByIndex",
      "outputs": [
        {
          "internalType": "uint256",
          "name": "",
          "type": "uint256"
        }
      ],
      "stateMutability": "view",
      "type": "function"
    },
    {
      "inputs": [],
      "name": "totalMinted",
      "outputs": [
        {
          "internalType": "uint256",
          "name": "",
          "type": "uint256"
        }
      ],
      "stateMutability": "view",
      "type": "function"
    },
    {
      "inputs": [],
      "name": "totalSupply",
      "outputs": [
        {
          "internalType": "uint256",
          "name": "",
          "type": "uint256"
        }
      ],
      "stateMutability": "view",
      "type": "function"
    },
    {
      "inputs": [
        {
          "internalType": "address",
          "name": "from",
          "type": "address"
        },
        {
          "internalType": "address",
          "name": "to",
          "type": "address"
        },
        {
          "internalType": "uint256",
          "name": "tokenId",
          "type": "uint256"
        }
      ],
      "name": "transferFrom",
      "outputs": [],
      "stateMutability": "nonpayable",
      "type": "function"
    },
    {
      "inputs": [
        {
          "internalType": "address",
          "name": "newOwner",
          "type": "address"
        }
      ],
      "name": "transferOwnership",
      "outputs": [],
      "stateMutability": "nonpayable",
      "type": "function"
    },
    {
      "inputs": [],
      "name": "visibility",
      "outputs": [
        {
          "internalType": "bool",
          "name": "",
          "type": "bool"
        }
      ],
      "stateMutability": "view",
      "type": "function"
    },
    {
      "inputs": [
        {
          "internalType": "address",
          "name": "_to",
          "type": "address"
        },
        {
          "internalType": "uint256",
          "name": "_id",
          "type": "uint256"
        },
        {
          "internalType": "uint256",
          "name": "_amount",
          "type": "uint256"
        }
      ],
      "name": "mint",
      "outputs": [],
      "stateMutability": "nonpayable",
      "type": "function"
    },
    {
      "inputs": [
        {
          "internalType": "uint256",
          "name": "tokenId",
          "type": "uint256"
        }
      ],
      "name": "tokenURI",
      "outputs": [
        {
          "internalType": "string",
          "name": "",
          "type": "string"
        }
      ],
      "stateMutability": "view",
      "type": "function"
    },
    {
      "inputs": [
        {
          "internalType": "uint256",
          "name": "_nftId",
          "type": "uint256"
        }
      ],
      "name": "burn",
      "outputs": [],
      "stateMutability": "nonpayable",
      "type": "function"
    },
    {
      "inputs": [
        {
          "internalType": "uint256",
          "name": "_newmaxMint",
          "type": "uint256"
        }
      ],
      "name": "setmaxMint",
      "outputs": [],
      "stateMutability": "nonpayable",
      "type": "function"
    },
    {
      "inputs": [
        {
          "internalType": "address",
          "name": "_minterAddress",
          "type": "address"
        }
      ],
      "name": "setMinterAddress",
      "outputs": [],
      "stateMutability": "nonpayable",
      "type": "function"
    },
    {
      "inputs": [
        {
          "internalType": "string",
          "name": "_newBaseURI",
          "type": "string"
        }
      ],
      "name": "setBaseURI",
      "outputs": [],
      "stateMutability": "nonpayable",
      "type": "function"
    },
    {
      "inputs": [
        {
          "internalType": "string",
          "name": "_newDefaultBaseURI",
          "type": "string"
        }
      ],
      "name": "setDefaultBaseURI",
      "outputs": [],
      "stateMutability": "nonpayable",
      "type": "function"
    },
    {
      "inputs": [
        {
          "internalType": "bool",
          "name": "_isMint",
          "type": "bool"
        }
      ],
      "name": "setMintActivation",
      "outputs": [],
      "stateMutability": "nonpayable",
      "type": "function"
    },
    {
      "inputs": [
        {
          "internalType": "string",
          "name": "_newBaseExtension",
          "type": "string"
        }
      ],
      "name": "setBaseExtension",
      "outputs": [],
      "stateMutability": "nonpayable",
      "type": "function"
    },
    {
      "inputs": [
        {
          "internalType": "bool",
          "name": "_visibility",
          "type": "bool"
        }
      ],
      "name": "setVisibility",
      "outputs": [],
      "stateMutability": "nonpayable",
      "type": "function"
    }
  ],
  "bytecode": "0x60806040526040518060400160405280600581526020017f2e6a736f6e000000000000000000000000000000000000000000000000000000815250600c908051906020019062000051929190620002a3565b50610c4e600d55600a600e553480156200006a57600080fd5b5060405162004adf38038062004adf8339818101604052810190620000909190620004f0565b82828160009080519060200190620000aa929190620002a3565b508060019080519060200190620000c3929190620002a3565b505050620000e6620000da6200010060201b60201c565b6200010860201b60201c565b620000f781620001ce60201b60201c565b50505062000690565b600033905090565b6000600a60009054906101000a900473ffffffffffffffffffffffffffffffffffffffff16905081600a60006101000a81548173ffffffffffffffffffffffffffffffffffffffff021916908373ffffffffffffffffffffffffffffffffffffffff1602179055508173ffffffffffffffffffffffffffffffffffffffff168173ffffffffffffffffffffffffffffffffffffffff167f8be0079c531659141344cd1fd0a4f28419497f9722a3daafe3b4186f6b6457e060405160405180910390a35050565b620001de6200010060201b60201c565b73ffffffffffffffffffffffffffffffffffffffff16620002046200027960201b60201c565b73ffffffffffffffffffffffffffffffffffffffff16146200025d576040517f08c379a000000000000000000000000000000000000000000000000000000000815260040162000254906200060a565b60405180910390fd5b80600b908051906020019062000275929190620002a3565b5050565b6000600a60009054906101000a900473ffffffffffffffffffffffffffffffffffffffff16905090565b828054620002b1906200065b565b90600052602060002090601f016020900481019282620002d5576000855562000321565b82601f10620002f057805160ff191683800117855562000321565b8280016001018555821562000321579182015b828111156200032057825182559160200191906001019062000303565b5b50905062000330919062000334565b5090565b5b808211156200034f57600081600090555060010162000335565b5090565b6000604051905090565b600080fd5b600080fd5b600080fd5b600080fd5b6000601f19601f8301169050919050565b7f4e487b7100000000000000000000000000000000000000000000000000000000600052604160045260246000fd5b620003bc8262000371565b810181811067ffffffffffffffff82111715620003de57620003dd62000382565b5b80604052505050565b6000620003f362000353565b9050620004018282620003b1565b919050565b600067ffffffffffffffff82111562000424576200042362000382565b5b6200042f8262000371565b9050602081019050919050565b60005b838110156200045c5780820151818401526020810190506200043f565b838111156200046c576000848401525b50505050565b600062000489620004838462000406565b620003e7565b905082815260208101848484011115620004a857620004a76200036c565b5b620004b58482856200043c565b509392505050565b600082601f830112620004d557620004d462000367565b5b8151620004e784826020860162000472565b91505092915050565b6000806000606084860312156200050c576200050b6200035d565b5b600084015167ffffffffffffffff8111156200052d576200052c62000362565b5b6200053b86828701620004bd565b935050602084015167ffffffffffffffff8111156200055f576200055e62000362565b5b6200056d86828701620004bd565b925050604084015167ffffffffffffffff81111562000591576200059062000362565b5b6200059f86828701620004bd565b9150509250925092565b600082825260208201905092915050565b7f4f776e61626c653a2063616c6c6572206973206e6f7420746865206f776e6572600082015250565b6000620005f2602083620005a9565b9150620005ff82620005ba565b602082019050919050565b600060208201905081810360008301526200062581620005e3565b9050919050565b7f4e487b7100000000000000000000000000000000000000000000000000000000600052602260045260246000fd5b600060028204905060018216806200067457607f821691505b6020821081036200068a57620006896200062c565b5b50919050565b61443f80620006a06000396000f3fe608060405234801561001057600080fd5b506004361061021c5760003560e01c80636352211e11610125578063a3106b95116100ad578063c87b56dd1161007c578063c87b56dd14610601578063d5abeb0114610631578063da3ef23f1461064f578063e985e9c51461066b578063f2fde38b1461069b5761021c565b8063a3106b951461058d578063b88d4fde146105a9578063c577c439146105c5578063c6682862146105e35761021c565b80637501f741116100f45780637501f741146104f95780638da5cb5b1461051757806395d89b4114610535578063a22cb46514610553578063a2309ff81461056f5761021c565b80636352211e146104715780636c0360eb146104a157806370a08231146104bf578063715018a6146104ef5761021c565b806328c30c07116101a857806334d722c91161017757806334d722c9146103cf57806342842e0e146103ed57806342966c68146104095780634f6ccce71461042557806355f804b3146104555761021c565b806328c30c071461034957806329adec14146103655780632f745c59146103835780632fc2e29c146103b35761021c565b8063095ea7b3116101ef578063095ea7b3146102bb578063156e29f6146102d757806318160ddd146102f35780632210d7ce1461031157806323b872dd1461032d5761021c565b806301e669721461022157806301ffc9a71461023d57806306fdde031461026d578063081812fc1461028b575b600080fd5b61023b60048036038101906102369190612dc8565b6106b7565b005b61025760048036038101906102529190612e69565b61074d565b6040516102649190612eb1565b60405180910390f35b6102756107c7565b6040516102829190612f54565b60405180910390f35b6102a560048036038101906102a09190612fac565b610859565b6040516102b2919061301a565b60405180910390f35b6102d560048036038101906102d09190613061565b6108de565b005b6102f160048036038101906102ec91906130a1565b6109f5565b005b6102fb610bc1565b6040516103089190613103565b60405180910390f35b61032b6004803603810190610326919061314a565b610bce565b005b61034760048036038101906103429190613177565b610c67565b005b610363600480360381019061035e919061314a565b610cc7565b005b61036d610d60565b60405161037a9190612eb1565b60405180910390f35b61039d60048036038101906103989190613061565b610d73565b6040516103aa9190613103565b60405180910390f35b6103cd60048036038101906103c89190612fac565b610e18565b005b6103d7610e9e565b6040516103e4919061301a565b60405180910390f35b61040760048036038101906104029190613177565b610ec4565b005b610423600480360381019061041e9190612fac565b610ee4565b005b61043f600480360381019061043a9190612fac565b610f66565b60405161044c9190613103565b60405180910390f35b61046f600480360381019061046a9190612dc8565b610fd7565b005b61048b60048036038101906104869190612fac565b61106d565b604051610498919061301a565b60405180910390f35b6104a961111e565b6040516104b69190612f54565b60405180910390f35b6104d960048036038101906104d491906131ca565b6111ac565b6040516104e69190613103565b60405180910390f35b6104f7611263565b005b6105016112eb565b60405161050e9190613103565b60405180910390f35b61051f6112f1565b60405161052c919061301a565b60405180910390f35b61053d61131b565b60405161054a9190612f54565b60405180910390f35b61056d600480360381019061056891906131f7565b6113ad565b005b6105776113c3565b6040516105849190613103565b60405180910390f35b6105a760048036038101906105a291906131ca565b6113c9565b005b6105c360048036038101906105be91906132d8565b611489565b005b6105cd6114eb565b6040516105da9190612eb1565b60405180910390f35b6105eb6114fe565b6040516105f89190612f54565b60405180910390f35b61061b60048036038101906106169190612fac565b61158c565b6040516106289190612f54565b60405180910390f35b6106396116dd565b6040516106469190613103565b60405180910390f35b61066960048036038101906106649190612dc8565b6116e3565b005b6106856004803603810190610680919061335b565b611779565b6040516106929190612eb1565b60405180910390f35b6106b560048036038101906106b091906131ca565b61180d565b005b6106bf611904565b73ffffffffffffffffffffffffffffffffffffffff166106dd6112f1565b73ffffffffffffffffffffffffffffffffffffffff1614610733576040517f08c379a000000000000000000000000000000000000000000000000000000000815260040161072a906133e7565b60405180910390fd5b8060129080519060200190610749929190612bcb565b5050565b60007f780e9d63000000000000000000000000000000000000000000000000000000007bffffffffffffffffffffffffffffffffffffffffffffffffffffffff1916827bffffffffffffffffffffffffffffffffffffffffffffffffffffffff191614806107c057506107bf8261190c565b5b9050919050565b6060600080546107d690613436565b80601f016020809104026020016040519081016040528092919081815260200182805461080290613436565b801561084f5780601f106108245761010080835404028352916020019161084f565b820191906000526020600020905b81548152906001019060200180831161083257829003601f168201915b5050505050905090565b6000610864826119ee565b6108a3576040517f08c379a000000000000000000000000000000000000000000000000000000000815260040161089a906134d9565b60405180910390fd5b6004600083815260200190815260200160002060009054906101000a900473ffffffffffffffffffffffffffffffffffffffff169050919050565b60006108e98261106d565b90508073ffffffffffffffffffffffffffffffffffffffff168373ffffffffffffffffffffffffffffffffffffffff1603610959576040517f08c379a00000000000000000000000000000000000000000000000000000000081526004016109509061356b565b60405180910390fd5b8073ffffffffffffffffffffffffffffffffffffffff16610978611904565b73ffffffffffffffffffffffffffffffffffffffff1614806109a757506109a6816109a1611904565b611779565b5b6109e6576040517f08c379a00000000000000000000000000000000000000000000000000000000081526004016109dd906135fd565b60405180910390fd5b6109f08383611a5a565b505050565b3373ffffffffffffffffffffffffffffffffffffffff16600f60009054906101000a900473ffffffffffffffffffffffffffffffffffffffff1673ffffffffffffffffffffffffffffffffffffffff1614610a85576040517f08c379a0000000000000000000000000000000000000000000000000000000008152600401610a7c9061368f565b60405180910390fd5b60011515601160019054906101000a900460ff16151514610adb576040517f08c379a0000000000000000000000000000000000000000000000000000000008152600401610ad290613721565b60405180910390fd5b600e54811115610b20576040517f08c379a0000000000000000000000000000000000000000000000000000000008152600401610b17906137b3565b60405180910390fd5b600d5481601054610b319190613802565b1115610b72576040517f08c379a0000000000000000000000000000000000000000000000000000000008152600401610b69906138a4565b60405180910390fd5b60005b818111610ba757610b868484611b13565b8280610b91906138c4565b9350508080610b9f906138c4565b915050610b75565b5080601054610bb69190613802565b601081905550505050565b6000600880549050905090565b610bd6611904565b73ffffffffffffffffffffffffffffffffffffffff16610bf46112f1565b73ffffffffffffffffffffffffffffffffffffffff1614610c4a576040517f08c379a0000000000000000000000000000000000000000000000000000000008152600401610c41906133e7565b60405180910390fd5b80601160016101000a81548160ff02191690831515021790555050565b610c78610c72611904565b82611ce0565b610cb7576040517f08c379a0000000000000000000000000000000000000000000000000000000008152600401610cae9061397e565b60405180910390fd5b610cc2838383611dbe565b505050565b610ccf611904565b73ffffffffffffffffffffffffffffffffffffffff16610ced6112f1565b73ffffffffffffffffffffffffffffffffffffffff1614610d43576040517f08c379a0000000000000000000000000000000000000000000000000000000008152600401610d3a906133e7565b60405180910390fd5b80601160006101000a81548160ff02191690831515021790555050565b601160009054906101000a900460ff1681565b6000610d7e836111ac565b8210610dbf576040517f08c379a0000000000000000000000000000000000000000000000000000000008152600401610db690613a10565b60405180910390fd5b600660008473ffffffffffffffffffffffffffffffffffffffff1673ffffffffffffffffffffffffffffffffffffffff168152602001908152602001600020600083815260200190815260200160002054905092915050565b610e20611904565b73ffffffffffffffffffffffffffffffffffffffff16610e3e6112f1565b73ffffffffffffffffffffffffffffffffffffffff1614610e94576040517f08c379a0000000000000000000000000000000000000000000000000000000008152600401610e8b906133e7565b60405180910390fd5b80600e8190555050565b600f60009054906101000a900473ffffffffffffffffffffffffffffffffffffffff1681565b610edf83838360405180602001604052806000815250611489565b505050565b3373ffffffffffffffffffffffffffffffffffffffff16610f048261106d565b73ffffffffffffffffffffffffffffffffffffffff1614610f5a576040517f08c379a0000000000000000000000000000000000000000000000000000000008152600401610f5190613a7c565b60405180910390fd5b610f6381612019565b50565b6000610f70610bc1565b8210610fb1576040517f08c379a0000000000000000000000000000000000000000000000000000000008152600401610fa890613b0e565b60405180910390fd5b60088281548110610fc557610fc4613b2e565b5b90600052602060002001549050919050565b610fdf611904565b73ffffffffffffffffffffffffffffffffffffffff16610ffd6112f1565b73ffffffffffffffffffffffffffffffffffffffff1614611053576040517f08c379a000000000000000000000000000000000000000000000000000000000815260040161104a906133e7565b60405180910390fd5b80600b9080519060200190611069929190612bcb565b5050565b6000806002600084815260200190815260200160002060009054906101000a900473ffffffffffffffffffffffffffffffffffffffff169050600073ffffffffffffffffffffffffffffffffffffffff168173ffffffffffffffffffffffffffffffffffffffff1603611115576040517f08c379a000000000000000000000000000000000000000000000000000000000815260040161110c90613bcf565b60405180910390fd5b80915050919050565b600b805461112b90613436565b80601f016020809104026020016040519081016040528092919081815260200182805461115790613436565b80156111a45780601f10611179576101008083540402835291602001916111a4565b820191906000526020600020905b81548152906001019060200180831161118757829003601f168201915b505050505081565b60008073ffffffffffffffffffffffffffffffffffffffff168273ffffffffffffffffffffffffffffffffffffffff160361121c576040517f08c379a000000000000000000000000000000000000000000000000000000000815260040161121390613c61565b60405180910390fd5b600360008373ffffffffffffffffffffffffffffffffffffffff1673ffffffffffffffffffffffffffffffffffffffff168152602001908152602001600020549050919050565b61126b611904565b73ffffffffffffffffffffffffffffffffffffffff166112896112f1565b73ffffffffffffffffffffffffffffffffffffffff16146112df576040517f08c379a00000000000000000000000000000000000000000000000000000000081526004016112d6906133e7565b60405180910390fd5b6112e9600061212a565b565b600e5481565b6000600a60009054906101000a900473ffffffffffffffffffffffffffffffffffffffff16905090565b60606001805461132a90613436565b80601f016020809104026020016040519081016040528092919081815260200182805461135690613436565b80156113a35780601f10611378576101008083540402835291602001916113a3565b820191906000526020600020905b81548152906001019060200180831161138657829003601f168201915b5050505050905090565b6113bf6113b8611904565b83836121f0565b5050565b60105481565b6113d1611904565b73ffffffffffffffffffffffffffffffffffffffff166113ef6112f1565b73ffffffffffffffffffffffffffffffffffffffff1614611445576040517f08c379a000000000000000000000000000000000000000000000000000000000815260040161143c906133e7565b60405180910390fd5b80600f60006101000a81548173ffffffffffffffffffffffffffffffffffffffff021916908373ffffffffffffffffffffffffffffffffffffffff16021790555050565b61149a611494611904565b83611ce0565b6114d9576040517f08c379a00000000000000000000000000000000000000000000000000000000081526004016114d09061397e565b60405180910390fd5b6114e58484848461235c565b50505050565b601160019054906101000a900460ff1681565b600c805461150b90613436565b80601f016020809104026020016040519081016040528092919081815260200182805461153790613436565b80156115845780601f1061155957610100808354040283529160200191611584565b820191906000526020600020905b81548152906001019060200180831161156757829003601f168201915b505050505081565b6060611597826119ee565b6115d6576040517f08c379a00000000000000000000000000000000000000000000000000000000081526004016115cd90613cf3565b60405180910390fd5b601160009054906101000a900460ff1661167c57601280546115f790613436565b80601f016020809104026020016040519081016040528092919081815260200182805461162390613436565b80156116705780601f1061164557610100808354040283529160200191611670565b820191906000526020600020905b81548152906001019060200180831161165357829003601f168201915b505050505090506116d8565b60006116866123b8565b905060008151116116a657604051806020016040528060008152506116d4565b806116b08461244a565b600c6040516020016116c493929190613de3565b6040516020818303038152906040525b9150505b919050565b600d5481565b6116eb611904565b73ffffffffffffffffffffffffffffffffffffffff166117096112f1565b73ffffffffffffffffffffffffffffffffffffffff161461175f576040517f08c379a0000000000000000000000000000000000000000000000000000000008152600401611756906133e7565b60405180910390fd5b80600c9080519060200190611775929190612bcb565b5050565b6000600560008473ffffffffffffffffffffffffffffffffffffffff1673ffffffffffffffffffffffffffffffffffffffff16815260200190815260200160002060008373ffffffffffffffffffffffffffffffffffffffff1673ffffffffffffffffffffffffffffffffffffffff16815260200190815260200160002060009054906101000a900460ff16905092915050565b611815611904565b73ffffffffffffffffffffffffffffffffffffffff166118336112f1565b73ffffffffffffffffffffffffffffffffffffffff1614611889576040517f08c379a0000000000000000000000000000000000000000000000000000000008152600401611880906133e7565b60405180910390fd5b600073ffffffffffffffffffffffffffffffffffffffff168173ffffffffffffffffffffffffffffffffffffffff16036118f8576040517f08c379a00000000000000000000000000000000000000000000000000000000081526004016118ef90613e86565b60405180910390fd5b6119018161212a565b50565b600033905090565b60007f80ac58cd000000000000000000000000000000000000000000000000000000007bffffffffffffffffffffffffffffffffffffffffffffffffffffffff1916827bffffffffffffffffffffffffffffffffffffffffffffffffffffffff191614806119d757507f5b5e139f000000000000000000000000000000000000000000000000000000007bffffffffffffffffffffffffffffffffffffffffffffffffffffffff1916827bffffffffffffffffffffffffffffffffffffffffffffffffffffffff1916145b806119e757506119e6826125aa565b5b9050919050565b60008073ffffffffffffffffffffffffffffffffffffffff166002600084815260200190815260200160002060009054906101000a900473ffffffffffffffffffffffffffffffffffffffff1673ffffffffffffffffffffffffffffffffffffffff1614159050919050565b816004600083815260200190815260200160002060006101000a81548173ffffffffffffffffffffffffffffffffffffffff021916908373ffffffffffffffffffffffffffffffffffffffff160217905550808273ffffffffffffffffffffffffffffffffffffffff16611acd8361106d565b73ffffffffffffffffffffffffffffffffffffffff167f8c5be1e5ebec7d5bd14f71427d1e84f3dd0314c0f7b2291e5b200ac8c7c3b92560405160405180910390a45050565b600073ffffffffffffffffffffffffffffffffffffffff168273ffffffffffffffffffffffffffffffffffffffff1603611b82576040517f08c379a0000000000000000000000000000000000000000000000000000000008152600401611b7990613ef2565b60405180910390fd5b611b8b816119ee565b15611bcb576040517f08c379a0000000000000000000000000000000000000000000000000000000008152600401611bc290613f5e565b60405180910390fd5b611bd760008383612614565b6001600360008473ffffffffffffffffffffffffffffffffffffffff1673ffffffffffffffffffffffffffffffffffffffff1681526020019081526020016000206000828254611c279190613802565b92505081905550816002600083815260200190815260200160002060006101000a81548173ffffffffffffffffffffffffffffffffffffffff021916908373ffffffffffffffffffffffffffffffffffffffff160217905550808273ffffffffffffffffffffffffffffffffffffffff16600073ffffffffffffffffffffffffffffffffffffffff167fddf252ad1be2c89b69c2b068fc378daa952ba7f163c4a11628f55a4df523b3ef60405160405180910390a45050565b6000611ceb826119ee565b611d2a576040517f08c379a0000000000000000000000000000000000000000000000000000000008152600401611d2190613ff0565b60405180910390fd5b6000611d358361106d565b90508073ffffffffffffffffffffffffffffffffffffffff168473ffffffffffffffffffffffffffffffffffffffff161480611da457508373ffffffffffffffffffffffffffffffffffffffff16611d8c84610859565b73ffffffffffffffffffffffffffffffffffffffff16145b80611db55750611db48185611779565b5b91505092915050565b8273ffffffffffffffffffffffffffffffffffffffff16611dde8261106d565b73ffffffffffffffffffffffffffffffffffffffff1614611e34576040517f08c379a0000000000000000000000000000000000000000000000000000000008152600401611e2b90614082565b60405180910390fd5b600073ffffffffffffffffffffffffffffffffffffffff168273ffffffffffffffffffffffffffffffffffffffff1603611ea3576040517f08c379a0000000000000000000000000000000000000000000000000000000008152600401611e9a90614114565b60405180910390fd5b611eae838383612614565b611eb9600082611a5a565b6001600360008573ffffffffffffffffffffffffffffffffffffffff1673ffffffffffffffffffffffffffffffffffffffff1681526020019081526020016000206000828254611f099190614134565b925050819055506001600360008473ffffffffffffffffffffffffffffffffffffffff1673ffffffffffffffffffffffffffffffffffffffff1681526020019081526020016000206000828254611f609190613802565b92505081905550816002600083815260200190815260200160002060006101000a81548173ffffffffffffffffffffffffffffffffffffffff021916908373ffffffffffffffffffffffffffffffffffffffff160217905550808273ffffffffffffffffffffffffffffffffffffffff168473ffffffffffffffffffffffffffffffffffffffff167fddf252ad1be2c89b69c2b068fc378daa952ba7f163c4a11628f55a4df523b3ef60405160405180910390a4505050565b60006120248261106d565b905061203281600084612614565b61203d600083611a5a565b6001600360008373ffffffffffffffffffffffffffffffffffffffff1673ffffffffffffffffffffffffffffffffffffffff168152602001908152602001600020600082825461208d9190614134565b925050819055506002600083815260200190815260200160002060006101000a81549073ffffffffffffffffffffffffffffffffffffffff021916905581600073ffffffffffffffffffffffffffffffffffffffff168273ffffffffffffffffffffffffffffffffffffffff167fddf252ad1be2c89b69c2b068fc378daa952ba7f163c4a11628f55a4df523b3ef60405160405180910390a45050565b6000600a60009054906101000a900473ffffffffffffffffffffffffffffffffffffffff16905081600a60006101000a81548173ffffffffffffffffffffffffffffffffffffffff021916908373ffffffffffffffffffffffffffffffffffffffff1602179055508173ffffffffffffffffffffffffffffffffffffffff168173ffffffffffffffffffffffffffffffffffffffff167f8be0079c531659141344cd1fd0a4f28419497f9722a3daafe3b4186f6b6457e060405160405180910390a35050565b8173ffffffffffffffffffffffffffffffffffffffff168373ffffffffffffffffffffffffffffffffffffffff160361225e576040517f08c379a0000000000000000000000000000000000000000000000000000000008152600401612255906141b4565b60405180910390fd5b80600560008573ffffffffffffffffffffffffffffffffffffffff1673ffffffffffffffffffffffffffffffffffffffff16815260200190815260200160002060008473ffffffffffffffffffffffffffffffffffffffff1673ffffffffffffffffffffffffffffffffffffffff16815260200190815260200160002060006101000a81548160ff0219169083151502179055508173ffffffffffffffffffffffffffffffffffffffff168373ffffffffffffffffffffffffffffffffffffffff167f17307eab39ab6107e8899845ad3d59bd9653f200f220920489ca2b5937696c318360405161234f9190612eb1565b60405180910390a3505050565b612367848484611dbe565b61237384848484612726565b6123b2576040517f08c379a00000000000000000000000000000000000000000000000000000000081526004016123a990614246565b60405180910390fd5b50505050565b6060600b80546123c790613436565b80601f01602080910402602001604051908101604052809291908181526020018280546123f390613436565b80156124405780601f1061241557610100808354040283529160200191612440565b820191906000526020600020905b81548152906001019060200180831161242357829003601f168201915b5050505050905090565b606060008203612491576040518060400160405280600181526020017f300000000000000000000000000000000000000000000000000000000000000081525090506125a5565b600082905060005b600082146124c35780806124ac906138c4565b915050600a826124bc9190614295565b9150612499565b60008167ffffffffffffffff8111156124df576124de612c9d565b5b6040519080825280601f01601f1916602001820160405280156125115781602001600182028036833780820191505090505b5090505b6000851461259e5760018261252a9190614134565b9150600a8561253991906142c6565b60306125459190613802565b60f81b81838151811061255b5761255a613b2e565b5b60200101907effffffffffffffffffffffffffffffffffffffffffffffffffffffffffffff1916908160001a905350600a856125979190614295565b9450612515565b8093505050505b919050565b60007f01ffc9a7000000000000000000000000000000000000000000000000000000007bffffffffffffffffffffffffffffffffffffffffffffffffffffffff1916827bffffffffffffffffffffffffffffffffffffffffffffffffffffffff1916149050919050565b61261f8383836128ad565b600073ffffffffffffffffffffffffffffffffffffffff168373ffffffffffffffffffffffffffffffffffffffff16036126615761265c816128b2565b6126a0565b8173ffffffffffffffffffffffffffffffffffffffff168373ffffffffffffffffffffffffffffffffffffffff161461269f5761269e83826128fb565b5b5b600073ffffffffffffffffffffffffffffffffffffffff168273ffffffffffffffffffffffffffffffffffffffff16036126e2576126dd81612a68565b612721565b8273ffffffffffffffffffffffffffffffffffffffff168273ffffffffffffffffffffffffffffffffffffffff16146127205761271f8282612b39565b5b5b505050565b60006127478473ffffffffffffffffffffffffffffffffffffffff16612bb8565b156128a0578373ffffffffffffffffffffffffffffffffffffffff1663150b7a02612770611904565b8786866040518563ffffffff1660e01b8152600401612792949392919061434c565b6020604051808303816000875af19250505080156127ce57506040513d601f19601f820116820180604052508101906127cb91906143ad565b60015b612850573d80600081146127fe576040519150601f19603f3d011682016040523d82523d6000602084013e612803565b606091505b506000815103612848576040517f08c379a000000000000000000000000000000000000000000000000000000000815260040161283f90614246565b60405180910390fd5b805181602001fd5b63150b7a0260e01b7bffffffffffffffffffffffffffffffffffffffffffffffffffffffff1916817bffffffffffffffffffffffffffffffffffffffffffffffffffffffff1916149150506128a5565b600190505b949350505050565b505050565b6008805490506009600083815260200190815260200160002081905550600881908060018154018082558091505060019003906000526020600020016000909190919091505550565b60006001612908846111ac565b6129129190614134565b90506000600760008481526020019081526020016000205490508181146129f7576000600660008673ffffffffffffffffffffffffffffffffffffffff1673ffffffffffffffffffffffffffffffffffffffff168152602001908152602001600020600084815260200190815260200160002054905080600660008773ffffffffffffffffffffffffffffffffffffffff1673ffffffffffffffffffffffffffffffffffffffff168152602001908152602001600020600084815260200190815260200160002081905550816007600083815260200190815260200160002081905550505b6007600084815260200190815260200160002060009055600660008573ffffffffffffffffffffffffffffffffffffffff1673ffffffffffffffffffffffffffffffffffffffff16815260200190815260200160002060008381526020019081526020016000206000905550505050565b60006001600880549050612a7c9190614134565b9050600060096000848152602001908152602001600020549050600060088381548110612aac57612aab613b2e565b5b906000526020600020015490508060088381548110612ace57612acd613b2e565b5b906000526020600020018190555081600960008381526020019081526020016000208190555060096000858152602001908152602001600020600090556008805480612b1d57612b1c6143da565b5b6001900381819060005260206000200160009055905550505050565b6000612b44836111ac565b905081600660008573ffffffffffffffffffffffffffffffffffffffff1673ffffffffffffffffffffffffffffffffffffffff168152602001908152602001600020600083815260200190815260200160002081905550806007600084815260200190815260200160002081905550505050565b600080823b905060008111915050919050565b828054612bd790613436565b90600052602060002090601f016020900481019282612bf95760008555612c40565b82601f10612c1257805160ff1916838001178555612c40565b82800160010185558215612c40579182015b82811115612c3f578251825591602001919060010190612c24565b5b509050612c4d9190612c51565b5090565b5b80821115612c6a576000816000905550600101612c52565b5090565b6000604051905090565b600080fd5b600080fd5b600080fd5b600080fd5b6000601f19601f8301169050919050565b7f4e487b7100000000000000000000000000000000000000000000000000000000600052604160045260246000fd5b612cd582612c8c565b810181811067ffffffffffffffff82111715612cf457612cf3612c9d565b5b80604052505050565b6000612d07612c6e565b9050612d138282612ccc565b919050565b600067ffffffffffffffff821115612d3357612d32612c9d565b5b612d3c82612c8c565b9050602081019050919050565b82818337600083830152505050565b6000612d6b612d6684612d18565b612cfd565b905082815260208101848484011115612d8757612d86612c87565b5b612d92848285612d49565b509392505050565b600082601f830112612daf57612dae612c82565b5b8135612dbf848260208601612d58565b91505092915050565b600060208284031215612dde57612ddd612c78565b5b600082013567ffffffffffffffff811115612dfc57612dfb612c7d565b5b612e0884828501612d9a565b91505092915050565b60007fffffffff0000000000000000000000000000000000000000000000000000000082169050919050565b612e4681612e11565b8114612e5157600080fd5b50565b600081359050612e6381612e3d565b92915050565b600060208284031215612e7f57612e7e612c78565b5b6000612e8d84828501612e54565b91505092915050565b60008115159050919050565b612eab81612e96565b82525050565b6000602082019050612ec66000830184612ea2565b92915050565b600081519050919050565b600082825260208201905092915050565b60005b83811015612f06578082015181840152602081019050612eeb565b83811115612f15576000848401525b50505050565b6000612f2682612ecc565b612f308185612ed7565b9350612f40818560208601612ee8565b612f4981612c8c565b840191505092915050565b60006020820190508181036000830152612f6e8184612f1b565b905092915050565b6000819050919050565b612f8981612f76565b8114612f9457600080fd5b50565b600081359050612fa681612f80565b92915050565b600060208284031215612fc257612fc1612c78565b5b6000612fd084828501612f97565b91505092915050565b600073ffffffffffffffffffffffffffffffffffffffff82169050919050565b600061300482612fd9565b9050919050565b61301481612ff9565b82525050565b600060208201905061302f600083018461300b565b92915050565b61303e81612ff9565b811461304957600080fd5b50565b60008135905061305b81613035565b92915050565b6000806040838503121561307857613077612c78565b5b60006130868582860161304c565b925050602061309785828601612f97565b9150509250929050565b6000806000606084860312156130ba576130b9612c78565b5b60006130c88682870161304c565b93505060206130d986828701612f97565b92505060406130ea86828701612f97565b9150509250925092565b6130fd81612f76565b82525050565b600060208201905061311860008301846130f4565b92915050565b61312781612e96565b811461313257600080fd5b50565b6000813590506131448161311e565b92915050565b6000602082840312156131605761315f612c78565b5b600061316e84828501613135565b91505092915050565b6000806000606084860312156131905761318f612c78565b5b600061319e8682870161304c565b93505060206131af8682870161304c565b92505060406131c086828701612f97565b9150509250925092565b6000602082840312156131e0576131df612c78565b5b60006131ee8482850161304c565b91505092915050565b6000806040838503121561320e5761320d612c78565b5b600061321c8582860161304c565b925050602061322d85828601613135565b9150509250929050565b600067ffffffffffffffff82111561325257613251612c9d565b5b61325b82612c8c565b9050602081019050919050565b600061327b61327684613237565b612cfd565b90508281526020810184848401111561329757613296612c87565b5b6132a2848285612d49565b509392505050565b600082601f8301126132bf576132be612c82565b5b81356132cf848260208601613268565b91505092915050565b600080600080608085870312156132f2576132f1612c78565b5b60006133008782880161304c565b94505060206133118782880161304c565b935050604061332287828801612f97565b925050606085013567ffffffffffffffff81111561334357613342612c7d565b5b61334f878288016132aa565b91505092959194509250565b6000806040838503121561337257613371612c78565b5b60006133808582860161304c565b92505060206133918582860161304c565b9150509250929050565b7f4f776e61626c653a2063616c6c6572206973206e6f7420746865206f776e6572600082015250565b60006133d1602083612ed7565b91506133dc8261339b565b602082019050919050565b60006020820190508181036000830152613400816133c4565b9050919050565b7f4e487b7100000000000000000000000000000000000000000000000000000000600052602260045260246000fd5b6000600282049050600182168061344e57607f821691505b60208210810361346157613460613407565b5b50919050565b7f4552433732313a20617070726f76656420717565727920666f72206e6f6e657860008201527f697374656e7420746f6b656e0000000000000000000000000000000000000000602082015250565b60006134c3602c83612ed7565b91506134ce82613467565b604082019050919050565b600060208201905081810360008301526134f2816134b6565b9050919050565b7f4552433732313a20617070726f76616c20746f2063757272656e74206f776e6560008201527f7200000000000000000000000000000000000000000000000000000000000000602082015250565b6000613555602183612ed7565b9150613560826134f9565b604082019050919050565b6000602082019050818103600083015261358481613548565b9050919050565b7f4552433732313a20617070726f76652063616c6c6572206973206e6f74206f7760008201527f6e6572206e6f7220617070726f76656420666f7220616c6c0000000000000000602082015250565b60006135e7603883612ed7565b91506135f28261358b565b604082019050919050565b60006020820190508181036000830152613616816135da565b9050919050565b7f42616279446f6765204e46543a2063616c6c6572206973206e6f74207468652060008201527f4d696e7465720000000000000000000000000000000000000000000000000000602082015250565b6000613679602683612ed7565b91506136848261361d565b604082019050919050565b600060208201905081810360008301526136a88161366c565b9050919050565b7f42616279446f6765204e46543a204d696e74206973206e6f742061637469766160008201527f746564206e6f7700000000000000000000000000000000000000000000000000602082015250565b600061370b602783612ed7565b9150613716826136af565b604082019050919050565b6000602082019050818103600083015261373a816136fe565b9050919050565b7f42616279446f6765204e46543a2043616e6e6f74206d696e742074686973206d60008201527f75636820616d6f756e7400000000000000000000000000000000000000000000602082015250565b600061379d602a83612ed7565b91506137a882613741565b604082019050919050565b600060208201905081810360008301526137cc81613790565b9050919050565b7f4e487b7100000000000000000000000000000000000000000000000000000000600052601160045260246000fd5b600061380d82612f76565b915061381883612f76565b9250827fffffffffffffffffffffffffffffffffffffffffffffffffffffffffffffffff0382111561384d5761384c6137d3565b5b828201905092915050565b7f42616279446f6765204e46543a204e6f206d6f7265204e4654206c6566740000600082015250565b600061388e601e83612ed7565b915061389982613858565b602082019050919050565b600060208201905081810360008301526138bd81613881565b9050919050565b60006138cf82612f76565b91507fffffffffffffffffffffffffffffffffffffffffffffffffffffffffffffffff8203613901576139006137d3565b5b600182019050919050565b7f4552433732313a207472616e736665722063616c6c6572206973206e6f74206f60008201527f776e6572206e6f7220617070726f766564000000000000000000000000000000602082015250565b6000613968603183612ed7565b91506139738261390c565b604082019050919050565b600060208201905081810360008301526139978161395b565b9050919050565b7f455243373231456e756d657261626c653a206f776e657220696e646578206f7560008201527f74206f6620626f756e6473000000000000000000000000000000000000000000602082015250565b60006139fa602b83612ed7565b9150613a058261399e565b604082019050919050565b60006020820190508181036000830152613a29816139ed565b9050919050565b7f496e76616c6964204f776e657200000000000000000000000000000000000000600082015250565b6000613a66600d83612ed7565b9150613a7182613a30565b602082019050919050565b60006020820190508181036000830152613a9581613a59565b9050919050565b7f455243373231456e756d657261626c653a20676c6f62616c20696e646578206f60008201527f7574206f6620626f756e64730000000000000000000000000000000000000000602082015250565b6000613af8602c83612ed7565b9150613b0382613a9c565b604082019050919050565b60006020820190508181036000830152613b2781613aeb565b9050919050565b7f4e487b7100000000000000000000000000000000000000000000000000000000600052603260045260246000fd5b7f4552433732313a206f776e657220717565727920666f72206e6f6e657869737460008201527f656e7420746f6b656e0000000000000000000000000000000000000000000000602082015250565b6000613bb9602983612ed7565b9150613bc482613b5d565b604082019050919050565b60006020820190508181036000830152613be881613bac565b9050919050565b7f4552433732313a2062616c616e636520717565727920666f7220746865207a6560008201527f726f206164647265737300000000000000000000000000000000000000000000602082015250565b6000613c4b602a83612ed7565b9150613c5682613bef565b604082019050919050565b60006020820190508181036000830152613c7a81613c3e565b9050919050565b7f4552433732314d657461646174613a2055524920717565727920666f72206e6f60008201527f6e6578697374656e7420746f6b656e0000000000000000000000000000000000602082015250565b6000613cdd602f83612ed7565b9150613ce882613c81565b604082019050919050565b60006020820190508181036000830152613d0c81613cd0565b9050919050565b600081905092915050565b6000613d2982612ecc565b613d338185613d13565b9350613d43818560208601612ee8565b80840191505092915050565b60008190508160005260206000209050919050565b60008154613d7181613436565b613d7b8186613d13565b94506001821660008114613d965760018114613da757613dda565b60ff19831686528186019350613dda565b613db085613d4f565b60005b83811015613dd257815481890152600182019150602081019050613db3565b838801955050505b50505092915050565b6000613def8286613d1e565b9150613dfb8285613d1e565b9150613e078284613d64565b9150819050949350505050565b7f4f776e61626c653a206e6577206f776e657220697320746865207a65726f206160008201527f6464726573730000000000000000000000000000000000000000000000000000602082015250565b6000613e70602683612ed7565b9150613e7b82613e14565b604082019050919050565b60006020820190508181036000830152613e9f81613e63565b9050919050565b7f4552433732313a206d696e7420746f20746865207a65726f2061646472657373600082015250565b6000613edc602083612ed7565b9150613ee782613ea6565b602082019050919050565b60006020820190508181036000830152613f0b81613ecf565b9050919050565b7f4552433732313a20746f6b656e20616c7265616479206d696e74656400000000600082015250565b6000613f48601c83612ed7565b9150613f5382613f12565b602082019050919050565b60006020820190508181036000830152613f7781613f3b565b9050919050565b7f4552433732313a206f70657261746f7220717565727920666f72206e6f6e657860008201527f697374656e7420746f6b656e0000000000000000000000000000000000000000602082015250565b6000613fda602c83612ed7565b9150613fe582613f7e565b604082019050919050565b6000602082019050818103600083015261400981613fcd565b9050919050565b7f4552433732313a207472616e73666572206f6620746f6b656e2074686174206960008201527f73206e6f74206f776e0000000000000000000000000000000000000000000000602082015250565b600061406c602983612ed7565b915061407782614010565b604082019050919050565b6000602082019050818103600083015261409b8161405f565b9050919050565b7f4552433732313a207472616e7366657220746f20746865207a65726f2061646460008201527f7265737300000000000000000000000000000000000000000000000000000000602082015250565b60006140fe602483612ed7565b9150614109826140a2565b604082019050919050565b6000602082019050818103600083015261412d816140f1565b9050919050565b600061413f82612f76565b915061414a83612f76565b92508282101561415d5761415c6137d3565b5b828203905092915050565b7f4552433732313a20617070726f766520746f2063616c6c657200000000000000600082015250565b600061419e601983612ed7565b91506141a982614168565b602082019050919050565b600060208201905081810360008301526141cd81614191565b9050919050565b7f4552433732313a207472616e7366657220746f206e6f6e20455243373231526560008201527f63656976657220696d706c656d656e7465720000000000000000000000000000602082015250565b6000614230603283612ed7565b915061423b826141d4565b604082019050919050565b6000602082019050818103600083015261425f81614223565b9050919050565b7f4e487b7100000000000000000000000000000000000000000000000000000000600052601260045260246000fd5b60006142a082612f76565b91506142ab83612f76565b9250826142bb576142ba614266565b5b828204905092915050565b60006142d182612f76565b91506142dc83612f76565b9250826142ec576142eb614266565b5b828206905092915050565b600081519050919050565b600082825260208201905092915050565b600061431e826142f7565b6143288185614302565b9350614338818560208601612ee8565b61434181612c8c565b840191505092915050565b6000608082019050614361600083018761300b565b61436e602083018661300b565b61437b60408301856130f4565b818103606083015261438d8184614313565b905095945050505050565b6000815190506143a781612e3d565b92915050565b6000602082840312156143c3576143c2612c78565b5b60006143d184828501614398565b91505092915050565b7f4e487b7100000000000000000000000000000000000000000000000000000000600052603160045260246000fdfea26469706673582212205e91dafe22397cc27f900d3f906bc3a8aa9840bc55f96ca627238bf289feac0064736f6c634300080d0033",
  "immutableReferences": {},
  "source": "pragma solidity ^0.8.0;\r\n//SPDX-License-Identifier: UNLICENSED\r\nimport \"@openzeppelin/contracts/token/ERC721/extensions/ERC721Enumerable.sol\";\r\nimport \"@openzeppelin/contracts/token/ERC721/ERC721.sol\";\r\nimport \"@openzeppelin/contracts/access/Ownable.sol\";\r\n\r\ncontract BabyDogeNFT is ERC721Enumerable, Ownable {\r\n  using Strings for uint256;\r\n\r\n  string public baseURI;\r\n  string public baseExtension = \".json\";\r\n  uint256 public maxSupply = 3150;\r\n  uint256 public maxMint = 10;\r\n  address public minterAddress;\r\n  uint256 public totalMinted;\r\n  bool public visibility;\r\n  bool public mintActivate;\r\n  string private defaultBaseURI;\r\n  constructor(\r\n    string memory _name,\r\n    string memory _symbol,\r\n    string memory _initBaseURI\r\n  ) ERC721(_name, _symbol) {\r\n    setBaseURI(_initBaseURI);\r\n  }\r\n\r\n  modifier onlyMinter() {\r\n        require(minterAddress == msg.sender,\"BabyDoge NFT: caller is not the Minter\");\r\n        _;\r\n    }\r\n\r\n  modifier isMintLive() {\r\n        require(mintActivate == true,\"BabyDoge NFT: Mint is not activated now\");\r\n        _;\r\n    }\r\n\r\n  function _baseURI() internal view virtual override returns (string memory) {\r\n    return baseURI;\r\n  }\r\n\r\n\r\n  function mint(address _to, uint _id, uint _amount) external onlyMinter() isMintLive() {\r\n\r\n        \r\n        require(_amount <= maxMint, \"BabyDoge NFT: Cannot mint this much amount\");\r\n        require(totalMinted + _amount <= maxSupply, \"BabyDoge NFT: No more NFT left\");\r\n        for (uint256 i = 0; i <= _amount; i++) {\r\n          _mint(_to, _id);\r\n          _id ++ ;\r\n          \r\n        }\r\n        totalMinted = totalMinted + _amount;\r\n    }\r\n\r\n\r\n  function tokenURI(uint256 tokenId)\r\n    public\r\n    view\r\n    virtual\r\n    override\r\n    returns (string memory)\r\n  {\r\n    require(\r\n      _exists(tokenId),\r\n      \"ERC721Metadata: URI query for nonexistent token\"\r\n    );\r\n    if(!visibility){\r\n      return defaultBaseURI;\r\n    }\r\n    else{\r\n    string memory currentBaseURI = _baseURI();\r\n    return bytes(currentBaseURI).length > 0\r\n        ? string(abi.encodePacked(currentBaseURI, tokenId.toString(), baseExtension))\r\n        : \"\";\r\n    }\r\n  }\r\n\r\n  function burn(uint256 _nftId) external{\r\n        require(ownerOf(_nftId) == msg.sender, 'Invalid Owner');\r\n        _burn(_nftId);\r\n    }\r\n\r\n  function setmaxMint(uint256 _newmaxMint) external onlyOwner {\r\n    maxMint = _newmaxMint;\r\n  }\r\n  function setMinterAddress(address _minterAddress) external onlyOwner {\r\n    minterAddress = _minterAddress;\r\n  }\r\n  function setBaseURI(string memory _newBaseURI) public onlyOwner {\r\n    baseURI = _newBaseURI;\r\n  }\r\n\r\n  function setDefaultBaseURI(string memory _newDefaultBaseURI) public onlyOwner {\r\n    defaultBaseURI = _newDefaultBaseURI;\r\n  }\r\n  function setMintActivation(bool _isMint) public onlyOwner {\r\n    mintActivate = _isMint;\r\n  }\r\n\r\n  function setBaseExtension(string memory _newBaseExtension) public onlyOwner {\r\n    baseExtension = _newBaseExtension;\r\n  }\r\n  function setVisibility(bool _visibility) public onlyOwner {\r\n    visibility = _visibility;\r\n  }\r\n\r\n}\r\n\r\n",
  "sourcePath": "C:\\Users\\USER\\Desktop\\baby Doge\\babyDoge\\contracts\\BabyDogeNFT.sol",
  "compiler": {
    "name": "solc",
    "version": "0.8.13+commit.abaa5c0e.Emscripten.clang"
  },
  "schemaVersion": "3.4.3",
  "updatedAt": "2022-03-22T07:31:21.051Z",
  "devdoc": {
    "kind": "dev",
    "methods": {
      "approve(address,uint256)": {
        "details": "See {IERC721-approve}."
      },
      "balanceOf(address)": {
        "details": "See {IERC721-balanceOf}."
      },
      "getApproved(uint256)": {
        "details": "See {IERC721-getApproved}."
      },
      "isApprovedForAll(address,address)": {
        "details": "See {IERC721-isApprovedForAll}."
      },
      "name()": {
        "details": "See {IERC721Metadata-name}."
      },
      "owner()": {
        "details": "Returns the address of the current owner."
      },
      "ownerOf(uint256)": {
        "details": "See {IERC721-ownerOf}."
      },
      "renounceOwnership()": {
        "details": "Leaves the contract without owner. It will not be possible to call `onlyOwner` functions anymore. Can only be called by the current owner. NOTE: Renouncing ownership will leave the contract without an owner, thereby removing any functionality that is only available to the owner."
      },
      "safeTransferFrom(address,address,uint256)": {
        "details": "See {IERC721-safeTransferFrom}."
      },
      "safeTransferFrom(address,address,uint256,bytes)": {
        "details": "See {IERC721-safeTransferFrom}."
      },
      "setApprovalForAll(address,bool)": {
        "details": "See {IERC721-setApprovalForAll}."
      },
      "supportsInterface(bytes4)": {
        "details": "See {IERC165-supportsInterface}."
      },
      "symbol()": {
        "details": "See {IERC721Metadata-symbol}."
      },
      "tokenByIndex(uint256)": {
        "details": "See {IERC721Enumerable-tokenByIndex}."
      },
      "tokenOfOwnerByIndex(address,uint256)": {
        "details": "See {IERC721Enumerable-tokenOfOwnerByIndex}."
      },
      "tokenURI(uint256)": {
        "details": "See {IERC721Metadata-tokenURI}."
      },
      "totalSupply()": {
        "details": "See {IERC721Enumerable-totalSupply}."
      },
      "transferFrom(address,address,uint256)": {
        "details": "See {IERC721-transferFrom}."
      },
      "transferOwnership(address)": {
        "details": "Transfers ownership of the contract to a new account (`newOwner`). Can only be called by the current owner."
      }
    },
    "version": 1
  },
  "userdoc": {
    "kind": "user",
    "methods": {},
    "version": 1
  }
}