{
  "contractName": "BabyDogeMarketplace",
  "abi": [
    {
      "inputs": [
        {
          "internalType": "address",
          "name": "_babyDogeNFT",
          "type": "address"
        },
        {
          "internalType": "uint256[3]",
          "name": "_prices",
          "type": "uint256[3]"
        },
        {
          "internalType": "uint256[3]",
          "name": "_total",
          "type": "uint256[3]"
        },
        {
          "internalType": "uint256[3]",
          "name": "_totalForPresale",
          "type": "uint256[3]"
        },
        {
          "internalType": "uint256[3]",
          "name": "_totalForOwner",
          "type": "uint256[3]"
        }
      ],
      "stateMutability": "nonpayable",
      "type": "constructor"
    },
    {
      "anonymous": false,
      "inputs": [
        {
          "indexed": true,
          "internalType": "address",
          "name": "previousOwner",
          "type": "address"
        },
        {
          "indexed": true,
          "internalType": "address",
          "name": "newOwner",
          "type": "address"
        }
      ],
      "name": "OwnershipTransferred",
      "type": "event"
    },
    {
      "anonymous": false,
      "inputs": [
        {
          "indexed": false,
          "internalType": "address",
          "name": "buyer",
          "type": "address"
        },
        {
          "indexed": false,
          "internalType": "uint256",
          "name": "tokenCategory",
          "type": "uint256"
        },
        {
          "indexed": false,
          "internalType": "uint256",
          "name": "tokenId",
          "type": "uint256"
        },
        {
          "indexed": false,
          "internalType": "uint256",
          "name": "price",
          "type": "uint256"
        },
        {
          "indexed": false,
          "internalType": "uint256",
          "name": "boughtAt",
          "type": "uint256"
        },
        {
          "indexed": false,
          "internalType": "uint256",
          "name": "stage",
          "type": "uint256"
        }
      ],
      "name": "buy",
      "type": "event"
    },
    {
      "anonymous": false,
      "inputs": [
        {
          "indexed": false,
          "internalType": "address",
          "name": "buyer",
          "type": "address"
        },
        {
          "indexed": false,
          "internalType": "uint256",
          "name": "tokenCategory",
          "type": "uint256"
        },
        {
          "indexed": false,
          "internalType": "uint256",
          "name": "tokenId",
          "type": "uint256"
        },
        {
          "indexed": false,
          "internalType": "uint256",
          "name": "boughtAt",
          "type": "uint256"
        }
      ],
      "name": "buyForOwner",
      "type": "event"
    },
    {
      "inputs": [],
      "name": "TOTAL_CATEGORIES",
      "outputs": [
        {
          "internalType": "uint256",
          "name": "",
          "type": "uint256"
        }
      ],
      "stateMutability": "view",
      "type": "function"
    },
    {
      "inputs": [],
      "name": "babyDogeNFT",
      "outputs": [
        {
          "internalType": "contract BabyDogeNFT",
          "name": "",
          "type": "address"
        }
      ],
      "stateMutability": "view",
      "type": "function"
    },
    {
      "inputs": [],
      "name": "owner",
      "outputs": [
        {
          "internalType": "address",
          "name": "",
          "type": "address"
        }
      ],
      "stateMutability": "view",
      "type": "function"
    },
    {
      "inputs": [],
      "name": "renounceOwnership",
      "outputs": [],
      "stateMutability": "nonpayable",
      "type": "function"
    },
    {
      "inputs": [],
      "name": "stage",
      "outputs": [
        {
          "internalType": "uint256",
          "name": "",
          "type": "uint256"
        }
      ],
      "stateMutability": "view",
      "type": "function"
    },
    {
      "inputs": [
        {
          "internalType": "uint256",
          "name": "",
          "type": "uint256"
        }
      ],
      "name": "tokenCategories",
      "outputs": [
        {
          "internalType": "uint256",
          "name": "price",
          "type": "uint256"
        },
        {
          "internalType": "uint256",
          "name": "total",
          "type": "uint256"
        },
        {
          "internalType": "uint256",
          "name": "totalForPresale",
          "type": "uint256"
        },
        {
          "internalType": "uint256",
          "name": "totalForOwner",
          "type": "uint256"
        },
        {
          "internalType": "uint256",
          "name": "totalMinted",
          "type": "uint256"
        },
        {
          "internalType": "uint256",
          "name": "totalMintedForOwner",
          "type": "uint256"
        },
        {
          "internalType": "uint256",
          "name": "nextTokenId",
          "type": "uint256"
        }
      ],
      "stateMutability": "view",
      "type": "function"
    },
    {
      "inputs": [
        {
          "internalType": "address",
          "name": "newOwner",
          "type": "address"
        }
      ],
      "name": "transferOwnership",
      "outputs": [],
      "stateMutability": "nonpayable",
      "type": "function"
    },
    {
      "inputs": [
        {
          "internalType": "address",
          "name": "",
          "type": "address"
        }
      ],
      "name": "whitelistedAddress",
      "outputs": [
        {
          "internalType": "bool",
          "name": "",
          "type": "bool"
        }
      ],
      "stateMutability": "view",
      "type": "function"
    },
    {
      "inputs": [
        {
          "internalType": "uint256",
          "name": "_tokenCategory",
          "type": "uint256"
        }
      ],
      "name": "buyToken",
      "outputs": [],
      "stateMutability": "payable",
      "type": "function"
    },
    {
      "inputs": [],
      "name": "updateStage",
      "outputs": [],
      "stateMutability": "nonpayable",
      "type": "function"
    },
    {
      "inputs": [
        {
          "internalType": "uint256[3]",
          "name": "_prices",
          "type": "uint256[3]"
        }
      ],
      "name": "updatePrices",
      "outputs": [],
      "stateMutability": "nonpayable",
      "type": "function"
    },
    {
      "inputs": [
        {
          "internalType": "address[]",
          "name": "_userAddress",
          "type": "address[]"
        }
      ],
      "name": "whitelist",
      "outputs": [],
      "stateMutability": "nonpayable",
      "type": "function"
    },
    {
      "inputs": [
        {
          "internalType": "address[]",
          "name": "_userAddress",
          "type": "address[]"
        }
      ],
      "name": "blacklist",
      "outputs": [],
      "stateMutability": "nonpayable",
      "type": "function"
    },
    {
      "inputs": [
        {
          "internalType": "uint256",
          "name": "_tokenCategory",
          "type": "uint256"
        }
      ],
      "name": "buyTokenForOwner",
      "outputs": [],
      "stateMutability": "nonpayable",
      "type": "function"
    },
    {
      "inputs": [
        {
          "internalType": "uint256",
          "name": "_category",
          "type": "uint256"
        }
      ],
      "name": "currentPrice",
      "outputs": [
        {
          "internalType": "uint256",
          "name": "",
          "type": "uint256"
        }
      ],
      "stateMutability": "view",
      "type": "function"
    },
    {
      "inputs": [
        {
          "internalType": "uint256",
          "name": "_category",
          "type": "uint256"
        }
      ],
      "name": "availableTokens",
      "outputs": [
        {
          "internalType": "uint256",
          "name": "",
          "type": "uint256"
        }
      ],
      "stateMutability": "view",
      "type": "function"
    },
    {
      "inputs": [
        {
          "internalType": "uint256",
          "name": "_category",
          "type": "uint256"
        }
      ],
      "name": "availableTokensForOwner",
      "outputs": [
        {
          "internalType": "uint256",
          "name": "",
          "type": "uint256"
        }
      ],
      "stateMutability": "view",
      "type": "function"
    }
  ],
  "bytecode": "0x60806040523480156200001157600080fd5b506040516200259738038062002597833981810160405281019062000037919062000560565b620000576200004b620003d060201b60201c565b620003d860201b60201c565b84600160006101000a81548173ffffffffffffffffffffffffffffffffffffffff021916908373ffffffffffffffffffffffffffffffffffffffff16021790555060006001905060005b60038160ff161015620003c357828160ff1660038110620000eb577f4e487b7100000000000000000000000000000000000000000000000000000000600052603260045260246000fd5b6020020151848260ff16600381106200012d577f4e487b7100000000000000000000000000000000000000000000000000000000600052603260045260246000fd5b60200201516200013e919062000690565b858260ff16600381106200017b577f4e487b7100000000000000000000000000000000000000000000000000000000600052603260045260246000fd5b60200201511015620001c4576040517f08c379a0000000000000000000000000000000000000000000000000000000008152600401620001bb906200060b565b60405180910390fd5b6040518060e00160405280878360ff16600381106200020c577f4e487b7100000000000000000000000000000000000000000000000000000000600052603260045260246000fd5b60200201518152602001868360ff166003811062000253577f4e487b7100000000000000000000000000000000000000000000000000000000600052603260045260246000fd5b60200201518152602001858360ff16600381106200029a577f4e487b7100000000000000000000000000000000000000000000000000000000600052603260045260246000fd5b60200201518152602001848360ff1660038110620002e1577f4e487b7100000000000000000000000000000000000000000000000000000000600052603260045260246000fd5b60200201518152602001600081526020016000815260200183815250600360008360ff168152602001908152602001600020600082015181600001556020820151816001015560408201518160020155606082015181600301556080820151816004015560a0820151816005015560c08201518160060155905050848160ff166003811062000399577f4e487b7100000000000000000000000000000000000000000000000000000000600052603260045260246000fd5b602002015182620003ab919062000690565b91508080620003ba906200076e565b915050620000a1565b5050505050505062000869565b600033905090565b60008060009054906101000a900473ffffffffffffffffffffffffffffffffffffffff169050816000806101000a81548173ffffffffffffffffffffffffffffffffffffffff021916908373ffffffffffffffffffffffffffffffffffffffff1602179055508173ffffffffffffffffffffffffffffffffffffffff168173ffffffffffffffffffffffffffffffffffffffff167f8be0079c531659141344cd1fd0a4f28419497f9722a3daafe3b4186f6b6457e060405160405180910390a35050565b6000620004b3620004ad8462000656565b6200062d565b90508082856020860282011115620004ca57600080fd5b60005b85811015620004fe5781620004e3888262000549565b845260208401935060208301925050600181019050620004cd565b5050509392505050565b600081519050620005198162000835565b92915050565b600082601f8301126200053157600080fd5b6003620005408482856200049c565b91505092915050565b6000815190506200055a816200084f565b92915050565b60008060008060006101a086880312156200057a57600080fd5b60006200058a8882890162000508565b95505060206200059d888289016200051f565b9450506080620005b0888289016200051f565b93505060e0620005c3888289016200051f565b925050610140620005d7888289016200051f565b9150509295509295909350565b6000620005f36014836200067f565b915062000600826200080c565b602082019050919050565b600060208201905081810360008301526200062681620005e4565b9050919050565b6000620006396200064c565b905062000647828262000738565b919050565b6000604051905090565b600067ffffffffffffffff821115620006745762000673620007cc565b5b602082029050919050565b600082825260208201905092915050565b60006200069d8262000721565b9150620006aa8362000721565b9250827fffffffffffffffffffffffffffffffffffffffffffffffffffffffffffffffff03821115620006e257620006e16200079d565b5b828201905092915050565b6000620006fa8262000701565b9050919050565b600073ffffffffffffffffffffffffffffffffffffffff82169050919050565b6000819050919050565b600060ff82169050919050565b6200074382620007fb565b810181811067ffffffffffffffff82111715620007655762000764620007cc565b5b80604052505050565b60006200077b826200072b565b915060ff8214156200079257620007916200079d565b5b600182019050919050565b7f4e487b7100000000000000000000000000000000000000000000000000000000600052601160045260246000fd5b7f4e487b7100000000000000000000000000000000000000000000000000000000600052604160045260246000fd5b6000601f19601f8301169050919050565b7f496e76616c696420746f6b656e20636f756e7473000000000000000000000000600082015250565b6200084081620006ed565b81146200084c57600080fd5b50565b6200085a8162000721565b81146200086657600080fd5b50565b611d1e80620008796000396000f3fe6080604052600436106100fe5760003560e01c80638da5cb5b11610095578063c040e6b811610064578063c040e6b814610318578063c062f57814610343578063c30796ab1461035a578063de5fef9114610397578063f2fde38b146103d4576100fe565b80638da5cb5b1461025c57806396ff2d6114610287578063ad64d068146102b2578063bd8aa780146102ef576100fe565b8063715018a6116100d1578063715018a6146101b65780637a3c4c17146101cd5780637b57e6701461020a57806380bd445714610233576100fe565b8063041f173f1461010357806321b95ad41461012c5780632d296bf11461016f5780633ca9d06c1461018b575b600080fd5b34801561010f57600080fd5b5061012a600480360381019061012591906113b3565b6103fd565b005b34801561013857600080fd5b50610153600480360381019061014e919061141d565b610534565b6040516101669796959493929190611792565b60405180910390f35b6101896004803603810190610184919061141d565b610576565b005b34801561019757600080fd5b506101a0610886565b6040516101ad9190611777565b60405180910390f35b3480156101c257600080fd5b506101cb61088b565b005b3480156101d957600080fd5b506101f460048036038101906101ef919061141d565b610913565b6040516102019190611777565b60405180910390f35b34801561021657600080fd5b50610231600480360381019061022c919061141d565b6109fe565b005b34801561023f57600080fd5b5061025a600480360381019061025591906113f4565b610c48565b005b34801561026857600080fd5b50610271610d48565b60405161027e9190611577565b60405180910390f35b34801561029357600080fd5b5061029c610d71565b6040516102a9919061167c565b60405180910390f35b3480156102be57600080fd5b506102d960048036038101906102d4919061141d565b610d97565b6040516102e69190611777565b60405180910390f35b3480156102fb57600080fd5b50610316600480360381019061031191906113b3565b610e1c565b005b34801561032457600080fd5b5061032d610f53565b60405161033a9190611777565b60405180910390f35b34801561034f57600080fd5b50610358610f59565b005b34801561036657600080fd5b50610381600480360381019061037c919061138a565b610fd7565b60405161038e9190611661565b60405180910390f35b3480156103a357600080fd5b506103be60048036038101906103b9919061141d565b610ff7565b6040516103cb9190611777565b60405180910390f35b3480156103e057600080fd5b506103fb60048036038101906103f6919061138a565b61107c565b005b610405611174565b73ffffffffffffffffffffffffffffffffffffffff16610423610d48565b73ffffffffffffffffffffffffffffffffffffffff1614610479576040517f08c379a0000000000000000000000000000000000000000000000000000000008152600401610470906116f7565b60405180910390fd5b60005b8151811015610530576000600460008484815181106104c4577f4e487b7100000000000000000000000000000000000000000000000000000000600052603260045260246000fd5b602002602001015173ffffffffffffffffffffffffffffffffffffffff1673ffffffffffffffffffffffffffffffffffffffff16815260200190815260200160002060006101000a81548160ff0219169083151502179055508080610528906119f2565b91505061047c565b5050565b60036020528060005260406000206000915090508060000154908060010154908060020154908060030154908060040154908060050154908060060154905087565b80600381106105ba576040517f08c379a00000000000000000000000000000000000000000000000000000000081526004016105b190611717565b60405180910390fd5b6000600360008481526020019081526020016000209050600060025414156106b757600460003373ffffffffffffffffffffffffffffffffffffffff1673ffffffffffffffffffffffffffffffffffffffff16815260200190815260200160002060009054906101000a900460ff16610668576040517f08c379a000000000000000000000000000000000000000000000000000000000815260040161065f90611697565b60405180910390fd5b80600201548160040154106106b2576040517f08c379a00000000000000000000000000000000000000000000000000000000081526004016106a990611737565b60405180910390fd5b610720565b806003015481600101546106cb9190611914565b816005015482600401546106df9190611914565b1061071f576040517f08c379a0000000000000000000000000000000000000000000000000000000008152600401610716906116d7565b60405180910390fd5b5b600061072b84610913565b905080341015610770576040517f08c379a000000000000000000000000000000000000000000000000000000000815260040161076790611757565b60405180910390fd5b816004016000815480929190610785906119f2565b91905055506000826006015490508260060160008154809291906107a8906119f2565b9190505550600160009054906101000a900473ffffffffffffffffffffffffffffffffffffffff1673ffffffffffffffffffffffffffffffffffffffff166340c10f1933836040518363ffffffff1660e01b815260040161080a929190611592565b600060405180830381600087803b15801561082457600080fd5b505af1158015610838573d6000803e3d6000fd5b505050507f230e40c321da3687c77653d294a0ac5da9bbdfec7703cba2be01971ddbb74196338683854260025460405161087796959493929190611600565b60405180910390a15050505050565b600381565b610893611174565b73ffffffffffffffffffffffffffffffffffffffff166108b1610d48565b73ffffffffffffffffffffffffffffffffffffffff1614610907576040517f08c379a00000000000000000000000000000000000000000000000000000000081526004016108fe906116f7565b60405180910390fd5b610911600061117c565b565b600080600360008481526020019081526020016000206040518060e001604052908160008201548152602001600182015481526020016002820154815260200160038201548152602001600482015481526020016005820154815260200160068201548152505090506002816020015161098d9190611889565b8160800151106109b057600281600001516109a891906118ba565b9150506109f9565b6004816020015160036109c391906118ba565b6109cd9190611889565b8160800151106109f057600481600001516109e891906118ba565b9150506109f9565b80600001519150505b919050565b8060038110610a42576040517f08c379a0000000000000000000000000000000000000000000000000000000008152600401610a3990611717565b60405180910390fd5b610a4a611174565b73ffffffffffffffffffffffffffffffffffffffff16610a68610d48565b73ffffffffffffffffffffffffffffffffffffffff1614610abe576040517f08c379a0000000000000000000000000000000000000000000000000000000008152600401610ab5906116f7565b60405180910390fd5b60006003600084815260200190815260200160002090508060030154816005015410610b1f576040517f08c379a0000000000000000000000000000000000000000000000000000000008152600401610b16906116d7565b60405180910390fd5b806004016000815480929190610b34906119f2565b9190505550806005016000815480929190610b4e906119f2565b9190505550600081600601549050816006016000815480929190610b71906119f2565b9190505550600160009054906101000a900473ffffffffffffffffffffffffffffffffffffffff1673ffffffffffffffffffffffffffffffffffffffff166340c10f1933836040518363ffffffff1660e01b8152600401610bd3929190611592565b600060405180830381600087803b158015610bed57600080fd5b505af1158015610c01573d6000803e3d6000fd5b505050507f8e2400f890536271df9b6ce94c8b9f3ed6b173943dcf8a254b1b55199ad4323a33858342604051610c3a94939291906115bb565b60405180910390a150505050565b610c50611174565b73ffffffffffffffffffffffffffffffffffffffff16610c6e610d48565b73ffffffffffffffffffffffffffffffffffffffff1614610cc4576040517f08c379a0000000000000000000000000000000000000000000000000000000008152600401610cbb906116f7565b60405180910390fd5b60005b60038160ff161015610d4457818160ff1660038110610d0f577f4e487b7100000000000000000000000000000000000000000000000000000000600052603260045260246000fd5b6020020151600360008360ff168152602001908152602001600020600001819055508080610d3c90611a3b565b915050610cc7565b5050565b60008060009054906101000a900473ffffffffffffffffffffffffffffffffffffffff16905090565b600160009054906101000a900473ffffffffffffffffffffffffffffffffffffffff1681565b600080600360008481526020019081526020016000206040518060e0016040529081600082015481526020016001820154815260200160028201548152602001600382015481526020016004820154815260200160058201548152602001600682015481525050905080608001518160200151610e149190611914565b915050919050565b610e24611174565b73ffffffffffffffffffffffffffffffffffffffff16610e42610d48565b73ffffffffffffffffffffffffffffffffffffffff1614610e98576040517f08c379a0000000000000000000000000000000000000000000000000000000008152600401610e8f906116f7565b60405180910390fd5b60005b8151811015610f4f57600160046000848481518110610ee3577f4e487b7100000000000000000000000000000000000000000000000000000000600052603260045260246000fd5b602002602001015173ffffffffffffffffffffffffffffffffffffffff1673ffffffffffffffffffffffffffffffffffffffff16815260200190815260200160002060006101000a81548160ff0219169083151502179055508080610f47906119f2565b915050610e9b565b5050565b60025481565b610f61611174565b73ffffffffffffffffffffffffffffffffffffffff16610f7f610d48565b73ffffffffffffffffffffffffffffffffffffffff1614610fd5576040517f08c379a0000000000000000000000000000000000000000000000000000000008152600401610fcc906116f7565b60405180910390fd5b565b60046020528060005260406000206000915054906101000a900460ff1681565b600080600360008481526020019081526020016000206040518060e001604052908160008201548152602001600182015481526020016002820154815260200160038201548152602001600482015481526020016005820154815260200160068201548152505090508060a0015181606001516110749190611914565b915050919050565b611084611174565b73ffffffffffffffffffffffffffffffffffffffff166110a2610d48565b73ffffffffffffffffffffffffffffffffffffffff16146110f8576040517f08c379a00000000000000000000000000000000000000000000000000000000081526004016110ef906116f7565b60405180910390fd5b600073ffffffffffffffffffffffffffffffffffffffff168173ffffffffffffffffffffffffffffffffffffffff161415611168576040517f08c379a000000000000000000000000000000000000000000000000000000000815260040161115f906116b7565b60405180910390fd5b6111718161117c565b50565b600033905090565b60008060009054906101000a900473ffffffffffffffffffffffffffffffffffffffff169050816000806101000a81548173ffffffffffffffffffffffffffffffffffffffff021916908373ffffffffffffffffffffffffffffffffffffffff1602179055508173ffffffffffffffffffffffffffffffffffffffff168173ffffffffffffffffffffffffffffffffffffffff167f8be0079c531659141344cd1fd0a4f28419497f9722a3daafe3b4186f6b6457e060405160405180910390a35050565b600061125361124e84611826565b611801565b9050808382526020820190508285602086028201111561127257600080fd5b60005b858110156112a25781611288888261130f565b845260208401935060208301925050600181019050611275565b5050509392505050565b60006112bf6112ba84611852565b611801565b905080828560208602820111156112d557600080fd5b60005b8581101561130557816112eb8882611375565b8452602084019350602083019250506001810190506112d8565b5050509392505050565b60008135905061131e81611cba565b92915050565b600082601f83011261133557600080fd5b8135611345848260208601611240565b91505092915050565b600082601f83011261135f57600080fd5b600361136c8482856112ac565b91505092915050565b60008135905061138481611cd1565b92915050565b60006020828403121561139c57600080fd5b60006113aa8482850161130f565b91505092915050565b6000602082840312156113c557600080fd5b600082013567ffffffffffffffff8111156113df57600080fd5b6113eb84828501611324565b91505092915050565b60006060828403121561140657600080fd5b60006114148482850161134e565b91505092915050565b60006020828403121561142f57600080fd5b600061143d84828501611375565b91505092915050565b61144f81611948565b82525050565b61145e8161195a565b82525050565b61146d8161199d565b82525050565b6000611480601e83611878565b915061148b82611b03565b602082019050919050565b60006114a3602683611878565b91506114ae82611b2c565b604082019050919050565b60006114c6602483611878565b91506114d182611b7b565b604082019050919050565b60006114e9602083611878565b91506114f482611bca565b602082019050919050565b600061150c601883611878565b915061151782611bf3565b602082019050919050565b600061152f603083611878565b915061153a82611c1c565b604082019050919050565b6000611552602583611878565b915061155d82611c6b565b604082019050919050565b61157181611986565b82525050565b600060208201905061158c6000830184611446565b92915050565b60006040820190506115a76000830185611446565b6115b46020830184611568565b9392505050565b60006080820190506115d06000830187611446565b6115dd6020830186611568565b6115ea6040830185611568565b6115f76060830184611568565b95945050505050565b600060c0820190506116156000830189611446565b6116226020830188611568565b61162f6040830187611568565b61163c6060830186611568565b6116496080830185611568565b61165660a0830184611568565b979650505050505050565b60006020820190506116766000830184611455565b92915050565b60006020820190506116916000830184611464565b92915050565b600060208201905081810360008301526116b081611473565b9050919050565b600060208201905081810360008301526116d081611496565b9050919050565b600060208201905081810360008301526116f0816114b9565b9050919050565b60006020820190508181036000830152611710816114dc565b9050919050565b60006020820190508181036000830152611730816114ff565b9050919050565b6000602082019050818103600083015261175081611522565b9050919050565b6000602082019050818103600083015261177081611545565b9050919050565b600060208201905061178c6000830184611568565b92915050565b600060e0820190506117a7600083018a611568565b6117b46020830189611568565b6117c16040830188611568565b6117ce6060830187611568565b6117db6080830186611568565b6117e860a0830185611568565b6117f560c0830184611568565b98975050505050505050565b600061180b61181c565b905061181782826119c1565b919050565b6000604051905090565b600067ffffffffffffffff82111561184157611840611ac3565b5b602082029050602081019050919050565b600067ffffffffffffffff82111561186d5761186c611ac3565b5b602082029050919050565b600082825260208201905092915050565b600061189482611986565b915061189f83611986565b9250826118af576118ae611a94565b5b828204905092915050565b60006118c582611986565b91506118d083611986565b9250817fffffffffffffffffffffffffffffffffffffffffffffffffffffffffffffffff048311821515161561190957611908611a65565b5b828202905092915050565b600061191f82611986565b915061192a83611986565b92508282101561193d5761193c611a65565b5b828203905092915050565b600061195382611966565b9050919050565b60008115159050919050565b600073ffffffffffffffffffffffffffffffffffffffff82169050919050565b6000819050919050565b600060ff82169050919050565b60006119a8826119af565b9050919050565b60006119ba82611966565b9050919050565b6119ca82611af2565b810181811067ffffffffffffffff821117156119e9576119e8611ac3565b5b80604052505050565b60006119fd82611986565b91507fffffffffffffffffffffffffffffffffffffffffffffffffffffffffffffffff821415611a3057611a2f611a65565b5b600182019050919050565b6000611a4682611990565b915060ff821415611a5a57611a59611a65565b5b600182019050919050565b7f4e487b7100000000000000000000000000000000000000000000000000000000600052601160045260246000fd5b7f4e487b7100000000000000000000000000000000000000000000000000000000600052601260045260246000fd5b7f4e487b7100000000000000000000000000000000000000000000000000000000600052604160045260246000fd5b6000601f19601f8301169050919050565b7f4e6f7420656c696769626c6520746f2062757920696e2070726573616c650000600082015250565b7f4f776e61626c653a206e6577206f776e657220697320746865207a65726f206160008201527f6464726573730000000000000000000000000000000000000000000000000000602082015250565b7f416c6c20546f6b656e73206f66207468697320636174656f677279206172652060008201527f736f6c6400000000000000000000000000000000000000000000000000000000602082015250565b7f4f776e61626c653a2063616c6c6572206973206e6f7420746865206f776e6572600082015250565b7f496e76616c696420746f6b656e2063617465676f726965730000000000000000600082015250565b7f416c6c20546f6b656e73206f66207468697320636174656f677279206172652060008201527f736f6c6420666f722070726573616c6500000000000000000000000000000000602082015250565b7f5072696365206f6620746f6b656e206973206d6f7265207468616e207468652060008201527f676976656e000000000000000000000000000000000000000000000000000000602082015250565b611cc381611948565b8114611cce57600080fd5b50565b611cda81611986565b8114611ce557600080fd5b5056fea264697066735822122068dd5d5fa93b7be5458a4abe7399dd6c2d05ae254f32512b654ecb3b2692dcb864736f6c63430008030033",
  "immutableReferences": {},
  "source": "//SPDX-License-Identifier: UNLICENSED\r\npragma solidity ^0.8.0;\r\n\r\nimport \"@openzeppelin/contracts/access/Ownable.sol\";\r\ninterface BabyDogeNFT {\r\n    function mint(address, uint256) external;\r\n}\r\ncontract BabyDogeMarketplace is Ownable{\r\n    BabyDogeNFT public babyDogeNFT;\r\n    uint256 public constant TOTAL_CATEGORIES = 3;\r\n    struct CategoryDetail {\r\n        uint256 price;\r\n        uint256 total;\r\n        uint256 totalForPresale;\r\n        uint256 totalForOwner;\r\n        uint256 totalMinted;\r\n        uint256 totalMintedForOwner;\r\n        uint256 nextTokenId;\r\n    }\r\n    //0 = presale 1 = postSale\r\n    uint256 public stage;\r\n    //0 gold 1 platinum 2 black\r\n    mapping(uint256 => CategoryDetail) public tokenCategories;\r\n    mapping(address => bool) public whitelistedAddress;\r\n\r\n    //events\r\n    event buy(address buyer, uint256 tokenCategory, uint256 tokenId, uint256 price, uint256 boughtAt, uint256 stage);\r\n    event buyForOwner(address buyer, uint256 tokenCategory, uint256 tokenId, uint256 boughtAt);\r\n   \r\n    //modifer\r\n    modifier isValidCategory(uint256 _tokenCategory){\r\n        require(_tokenCategory < TOTAL_CATEGORIES, 'Invalid token categories');\r\n        _;\r\n    }\r\n    constructor(address _babyDogeNFT, uint256[TOTAL_CATEGORIES] memory _prices, uint256[TOTAL_CATEGORIES] memory _total, uint256[TOTAL_CATEGORIES] memory _totalForPresale, uint256[TOTAL_CATEGORIES] memory _totalForOwner) {\r\n        babyDogeNFT = BabyDogeNFT(_babyDogeNFT);\r\n        uint256 nextTokenId = 1;\r\n        for(uint8 index = 0; index < TOTAL_CATEGORIES; index++){\r\n            require(_total[index] >= _totalForPresale[index] + _totalForOwner[index], 'Invalid token counts');\r\n            tokenCategories[index] = CategoryDetail(_prices[index], _total[index], _totalForPresale[index], _totalForOwner[index], 0,0, nextTokenId);\r\n            nextTokenId = nextTokenId + _total[index];\r\n        }\r\n    }\r\n    //USER FUNCTIONS\r\n    function buyToken(uint256 _tokenCategory) external isValidCategory(_tokenCategory) payable{\r\n        CategoryDetail storage categoryDetail = tokenCategories[_tokenCategory];\r\n        if(stage == 0){\r\n            require(whitelistedAddress[msg.sender], 'Not eligible to buy in presale');\r\n            require(categoryDetail.totalMinted < categoryDetail.totalForPresale, 'All Tokens of this cateogry are sold for presale');\r\n        } else {\r\n            require(categoryDetail.totalMinted - categoryDetail.totalMintedForOwner < categoryDetail.total - categoryDetail.totalForOwner, 'All Tokens of this cateogry are sold');\r\n        }\r\n        uint256 price = currentPrice(_tokenCategory);\r\n        require(msg.value >= price, 'Price of token is more than the given');\r\n        categoryDetail.totalMinted++;\r\n        uint256 tokenId = categoryDetail.nextTokenId;\r\n        categoryDetail.nextTokenId++;\r\n        babyDogeNFT.mint(msg.sender, tokenId);\r\n        emit buy(msg.sender, _tokenCategory, tokenId, price, block.timestamp, stage);\r\n    }\r\n\r\n    //ADMIN FUNCTIONS\r\n    function updateStage() external onlyOwner(){\r\n\r\n    }\r\n\r\n    function updatePrices(uint256[TOTAL_CATEGORIES] memory _prices) external onlyOwner(){\r\n        for(uint8 index = 0; index < TOTAL_CATEGORIES; index++){\r\n            tokenCategories[index].price = _prices[index];\r\n        }\r\n    }\r\n\r\n    function whitelist(address[] memory _userAddress) external onlyOwner(){\r\n        for(uint256 index = 0; index < _userAddress.length; index++){\r\n            whitelistedAddress[_userAddress[index]] = true;\r\n        }\r\n    }\r\n\r\n    function blacklist(address[] memory _userAddress) external onlyOwner(){\r\n        for(uint256 index = 0; index < _userAddress.length; index++){\r\n            whitelistedAddress[_userAddress[index]] = false;\r\n        }\r\n    }\r\n\r\n    function buyTokenForOwner(uint256 _tokenCategory) external isValidCategory(_tokenCategory) onlyOwner(){\r\n        CategoryDetail storage categoryDetail = tokenCategories[_tokenCategory];\r\n        require(categoryDetail.totalMintedForOwner < categoryDetail.totalForOwner, 'All Tokens of this cateogry are sold');\r\n        categoryDetail.totalMinted++;\r\n        categoryDetail.totalMintedForOwner++;\r\n        uint256 tokenId = categoryDetail.nextTokenId;\r\n        categoryDetail.nextTokenId++;\r\n        babyDogeNFT.mint(msg.sender, tokenId);\r\n        emit buyForOwner(msg.sender, _tokenCategory, tokenId, block.timestamp);\r\n    }\r\n\r\n\r\n    //VIEW FUNCTIONS\r\n\r\n    function currentPrice(uint256 _category) public view returns(uint256) {\r\n        CategoryDetail memory categoryDetail = tokenCategories[_category];\r\n        if(categoryDetail.totalMinted >= categoryDetail.total / 2) {\r\n            return categoryDetail.price * 2;\r\n        } else if(categoryDetail.totalMinted >= 3 * categoryDetail.total / 4){\r\n            return categoryDetail.price * 4;\r\n        } \r\n        return categoryDetail.price;\r\n    }\r\n\r\n    function availableTokens(uint256 _category) public view returns(uint256) {\r\n        CategoryDetail memory categoryDetail = tokenCategories[_category];\r\n        return categoryDetail.total - categoryDetail.totalMinted;\r\n    }\r\n\r\n    function availableTokensForOwner(uint256 _category) public view returns(uint256) {\r\n        CategoryDetail memory categoryDetail = tokenCategories[_category];\r\n        return categoryDetail.totalForOwner - categoryDetail.totalMintedForOwner;\r\n    }\r\n\r\n\t// totalGoldNFTForOwner\t\t-  Total number of Gold NFT for owner\r\n\t// totalPlatinumNFT \t\t\t- Total number of Platinum NFTs\r\n\t// totalPlatinumForGoldLottery \t\t- Total number of platinum NFTs for gold lotteries\r\n\t// totalPlatinumNFTForOwner\t\t- Total number of platinum NFT for owner\r\n\t// totalBlackNFT \t\t\t\t- Total number of Black NFTs\r\n\t// totalBlackForGoldLottery \t\t- Total number of Black NFTs for gold lotteries\r\n\t// totalBlackForPlatinumLottery \t\t- Total number of Black NFTs for platinum lotteries\r\n    // totalBlackNFTForOwner\t\t- Total number of black NFT for owner\r\n\t// mintedPlatniumForGoldLottery \t- minted platinum NFTs for gold lottery\r\n\t// mintedBlackForGoldLottery \t\t- minted black NFTs for gold lottery\r\n\t// mintedBlackForPlatinumLottery \t- minted black NFTs for platinum lottery\r\n    // mintedGoldForOwner \t\t\t- minted gold NFTs for owner\r\n    // mintedPlatinumForOwner \t\t- minted platinum NFTs for owner\r\n    // mintedBlackdForOwner \t\t- minted black NFTs for owner\r\n\r\n \r\n\t\r\n\r\n\t// changeStage\t\t\t- Function to change the stage\t\r\n}",
  "sourcePath": "C:\\Users\\USER\\Desktop\\baby Doge\\babyDoge\\contracts\\BabyDogeMarketplace.sol",
  "compiler": {
    "name": "solc",
    "version": "0.8.3+commit.8d00100c.Emscripten.clang"
  },
  "schemaVersion": "3.4.3",
  "updatedAt": "2022-01-27T16:55:39.149Z",
  "devdoc": {
    "kind": "dev",
    "methods": {
      "owner()": {
        "details": "Returns the address of the current owner."
      },
      "renounceOwnership()": {
        "details": "Leaves the contract without owner. It will not be possible to call `onlyOwner` functions anymore. Can only be called by the current owner. NOTE: Renouncing ownership will leave the contract without an owner, thereby removing any functionality that is only available to the owner."
      },
      "transferOwnership(address)": {
        "details": "Transfers ownership of the contract to a new account (`newOwner`). Can only be called by the current owner."
      }
    },
    "version": 1
  },
  "userdoc": {
    "kind": "user",
    "methods": {},
    "version": 1
  }
}