{
  "contractName": "BabyDogeMarketplace",
  "abi": [
    {
      "inputs": [
        {
          "internalType": "address",
          "name": "_babyDogeNFT",
          "type": "address"
        },
        {
          "internalType": "uint256[3]",
          "name": "_prices",
          "type": "uint256[3]"
        },
        {
          "internalType": "uint256[3]",
          "name": "_total",
          "type": "uint256[3]"
        },
        {
          "internalType": "uint256[3]",
          "name": "_totalForPresale",
          "type": "uint256[3]"
        },
        {
          "internalType": "uint256[3]",
          "name": "_totalForOwner",
          "type": "uint256[3]"
        },
        {
          "internalType": "uint256[3][3]",
          "name": "_random",
          "type": "uint256[3][3]"
        }
      ],
      "stateMutability": "nonpayable",
      "type": "constructor"
    },
    {
      "anonymous": false,
      "inputs": [
        {
          "indexed": true,
          "internalType": "address",
          "name": "previousOwner",
          "type": "address"
        },
        {
          "indexed": true,
          "internalType": "address",
          "name": "newOwner",
          "type": "address"
        }
      ],
      "name": "OwnershipTransferred",
      "type": "event"
    },
    {
      "anonymous": false,
      "inputs": [
        {
          "indexed": false,
          "internalType": "address",
          "name": "buyer",
          "type": "address"
        },
        {
          "indexed": false,
          "internalType": "uint256",
          "name": "requestedTokenCategory",
          "type": "uint256"
        },
        {
          "indexed": false,
          "internalType": "uint256",
          "name": "givenTokenCategory",
          "type": "uint256"
        },
        {
          "indexed": false,
          "internalType": "uint256",
          "name": "startTokenId",
          "type": "uint256"
        },
        {
          "indexed": false,
          "internalType": "uint256",
          "name": "totalToken",
          "type": "uint256"
        },
        {
          "indexed": false,
          "internalType": "uint256",
          "name": "price",
          "type": "uint256"
        },
        {
          "indexed": false,
          "internalType": "uint256",
          "name": "boughtAt",
          "type": "uint256"
        },
        {
          "indexed": false,
          "internalType": "uint256",
          "name": "stage",
          "type": "uint256"
        }
      ],
      "name": "buy",
      "type": "event"
    },
    {
      "anonymous": false,
      "inputs": [
        {
          "indexed": false,
          "internalType": "address",
          "name": "buyer",
          "type": "address"
        },
        {
          "indexed": false,
          "internalType": "uint256",
          "name": "tokenCategory",
          "type": "uint256"
        },
        {
          "indexed": false,
          "internalType": "uint256",
          "name": "startTokenId",
          "type": "uint256"
        },
        {
          "indexed": false,
          "internalType": "uint256",
          "name": "totalToken",
          "type": "uint256"
        },
        {
          "indexed": false,
          "internalType": "uint256",
          "name": "boughtAt",
          "type": "uint256"
        }
      ],
      "name": "buyForOwner",
      "type": "event"
    },
    {
      "inputs": [],
      "name": "TOTAL_CATEGORIES",
      "outputs": [
        {
          "internalType": "uint256",
          "name": "",
          "type": "uint256"
        }
      ],
      "stateMutability": "view",
      "type": "function"
    },
    {
      "inputs": [],
      "name": "babyDogeNFT",
      "outputs": [
        {
          "internalType": "contract BabyDogeNFT",
          "name": "",
          "type": "address"
        }
      ],
      "stateMutability": "view",
      "type": "function"
    },
    {
      "inputs": [
        {
          "internalType": "uint256",
          "name": "",
          "type": "uint256"
        }
      ],
      "name": "codesOwner",
      "outputs": [
        {
          "internalType": "address",
          "name": "",
          "type": "address"
        }
      ],
      "stateMutability": "view",
      "type": "function"
    },
    {
      "inputs": [],
      "name": "owner",
      "outputs": [
        {
          "internalType": "address",
          "name": "",
          "type": "address"
        }
      ],
      "stateMutability": "view",
      "type": "function"
    },
    {
      "inputs": [
        {
          "internalType": "uint256",
          "name": "",
          "type": "uint256"
        },
        {
          "internalType": "uint256",
          "name": "",
          "type": "uint256"
        }
      ],
      "name": "randomAvailable",
      "outputs": [
        {
          "internalType": "uint256",
          "name": "",
          "type": "uint256"
        }
      ],
      "stateMutability": "view",
      "type": "function"
    },
    {
      "inputs": [],
      "name": "renounceOwnership",
      "outputs": [],
      "stateMutability": "nonpayable",
      "type": "function"
    },
    {
      "inputs": [],
      "name": "stage",
      "outputs": [
        {
          "internalType": "uint256",
          "name": "",
          "type": "uint256"
        }
      ],
      "stateMutability": "view",
      "type": "function"
    },
    {
      "inputs": [
        {
          "internalType": "uint256",
          "name": "",
          "type": "uint256"
        }
      ],
      "name": "tokenCategories",
      "outputs": [
        {
          "internalType": "uint256",
          "name": "price",
          "type": "uint256"
        },
        {
          "internalType": "uint256",
          "name": "total",
          "type": "uint256"
        },
        {
          "internalType": "uint256",
          "name": "totalForPresale",
          "type": "uint256"
        },
        {
          "internalType": "uint256",
          "name": "totalForOwner",
          "type": "uint256"
        },
        {
          "internalType": "uint256",
          "name": "totalMinted",
          "type": "uint256"
        },
        {
          "internalType": "uint256",
          "name": "totalMintedForOwner",
          "type": "uint256"
        },
        {
          "internalType": "uint256",
          "name": "nextTokenId",
          "type": "uint256"
        }
      ],
      "stateMutability": "view",
      "type": "function"
    },
    {
      "inputs": [
        {
          "internalType": "address",
          "name": "newOwner",
          "type": "address"
        }
      ],
      "name": "transferOwnership",
      "outputs": [],
      "stateMutability": "nonpayable",
      "type": "function"
    },
    {
      "inputs": [
        {
          "internalType": "address",
          "name": "",
          "type": "address"
        }
      ],
      "name": "userCodes",
      "outputs": [
        {
          "internalType": "uint256",
          "name": "",
          "type": "uint256"
        }
      ],
      "stateMutability": "view",
      "type": "function"
    },
    {
      "inputs": [
        {
          "internalType": "address",
          "name": "",
          "type": "address"
        }
      ],
      "name": "whitelistedAddress",
      "outputs": [
        {
          "internalType": "bool",
          "name": "",
          "type": "bool"
        }
      ],
      "stateMutability": "view",
      "type": "function"
    },
    {
      "inputs": [
        {
          "internalType": "uint256",
          "name": "_tokenCategory",
          "type": "uint256"
        },
        {
          "internalType": "uint256",
          "name": "_totalUnits",
          "type": "uint256"
        },
        {
          "internalType": "uint256",
          "name": "_code",
          "type": "uint256"
        }
      ],
      "name": "buyToken",
      "outputs": [],
      "stateMutability": "payable",
      "type": "function"
    },
    {
      "inputs": [],
      "name": "generateCode",
      "outputs": [],
      "stateMutability": "nonpayable",
      "type": "function"
    },
    {
      "inputs": [],
      "name": "updateStage",
      "outputs": [],
      "stateMutability": "nonpayable",
      "type": "function"
    },
    {
      "inputs": [
        {
          "internalType": "uint256[3]",
          "name": "_prices",
          "type": "uint256[3]"
        }
      ],
      "name": "updatePrices",
      "outputs": [],
      "stateMutability": "nonpayable",
      "type": "function"
    },
    {
      "inputs": [
        {
          "internalType": "address[]",
          "name": "_userAddress",
          "type": "address[]"
        }
      ],
      "name": "whitelist",
      "outputs": [],
      "stateMutability": "nonpayable",
      "type": "function"
    },
    {
      "inputs": [
        {
          "internalType": "address[]",
          "name": "_userAddress",
          "type": "address[]"
        }
      ],
      "name": "blacklist",
      "outputs": [],
      "stateMutability": "nonpayable",
      "type": "function"
    },
    {
      "inputs": [],
      "name": "withdraw",
      "outputs": [],
      "stateMutability": "nonpayable",
      "type": "function"
    },
    {
      "inputs": [
        {
          "internalType": "uint256",
          "name": "_tokenCategory",
          "type": "uint256"
        },
        {
          "internalType": "uint256",
          "name": "_totalUnits",
          "type": "uint256"
        }
      ],
      "name": "buyTokenForOwner",
      "outputs": [],
      "stateMutability": "nonpayable",
      "type": "function"
    },
    {
      "inputs": [
        {
          "internalType": "uint256",
          "name": "_category",
          "type": "uint256"
        }
      ],
      "name": "currentPrice",
      "outputs": [
        {
          "internalType": "uint256",
          "name": "",
          "type": "uint256"
        }
      ],
      "stateMutability": "view",
      "type": "function"
    },
    {
      "inputs": [
        {
          "internalType": "uint256",
          "name": "_category",
          "type": "uint256"
        }
      ],
      "name": "availableTokens",
      "outputs": [
        {
          "internalType": "uint256",
          "name": "",
          "type": "uint256"
        }
      ],
      "stateMutability": "view",
      "type": "function"
    },
    {
      "inputs": [
        {
          "internalType": "uint256",
          "name": "_category",
          "type": "uint256"
        }
      ],
      "name": "availableTokensForOwner",
      "outputs": [
        {
          "internalType": "uint256",
          "name": "",
          "type": "uint256"
        }
      ],
      "stateMutability": "view",
      "type": "function"
    }
  ],
  "bytecode": "0x6080604052620186a060085560016009553480156200001d57600080fd5b506040516200376f3803806200376f8339818101604052810190620000439190620009f3565b62000063620000576200065160201b60201c565b6200065960201b60201c565b85600160006101000a81548173ffffffffffffffffffffffffffffffffffffffff021916908373ffffffffffffffffffffffffffffffffffffffff16021790555060006001905060005b60038160ff161015620006435760008160ff1603620001d4576000838260ff1660038110620000e157620000e062000a92565b5b6020020151600260038110620000fc57620000fb62000a92565b5b6020020151848360ff16600381106200011a576200011962000a92565b5b602002015160016003811062000135576200013462000a92565b5b6020020151858460ff166003811062000153576200015262000a92565b5b60200201516000600381106200016e576200016d62000a92565b5b60200201516200017f919062000af0565b6200018b919062000af0565b14620001ce576040517f08c379a0000000000000000000000000000000000000000000000000000000008152600401620001c59062000bae565b60405180910390fd5b62000329565b60018160ff1603620002a9576000838260ff1660038110620001fb57620001fa62000a92565b5b602002015160026003811062000216576200021562000a92565b5b6020020151848360ff166003811062000234576200023362000a92565b5b60200201516001600381106200024f576200024e62000a92565b5b602002015162000260919062000af0565b14620002a3576040517f08c379a00000000000000000000000000000000000000000000000000000000081526004016200029a9062000bae565b60405180910390fd5b62000328565b6000838260ff1660038110620002c457620002c362000a92565b5b6020020151600260038110620002df57620002de62000a92565b5b60200201511462000327576040517f08c379a00000000000000000000000000000000000000000000000000000000081526004016200031e9062000bae565b60405180910390fd5b5b5b858160ff166003811062000342576200034162000a92565b5b6020020151838260ff166003811062000360576200035f62000a92565b5b60200201516002600381106200037b576200037a62000a92565b5b6020020151848360ff166003811062000399576200039862000a92565b5b6020020151600160038110620003b457620003b362000a92565b5b6020020151858460ff1660038110620003d257620003d162000a92565b5b6020020151600060038110620003ed57620003ec62000a92565b5b6020020151620003fe919062000af0565b6200040a919062000af0565b11156200044e576040517f08c379a0000000000000000000000000000000000000000000000000000000008152600401620004459062000c20565b60405180910390fd5b838160ff166003811062000467576200046662000a92565b5b6020020151858260ff166003811062000485576200048462000a92565b5b602002015162000496919062000af0565b868260ff1660038110620004af57620004ae62000a92565b5b60200201511015620004f8576040517f08c379a0000000000000000000000000000000000000000000000000000000008152600401620004ef9062000c92565b60405180910390fd5b6040518060e00160405280888360ff16600381106200051c576200051b62000a92565b5b60200201518152602001878360ff16600381106200053f576200053e62000a92565b5b60200201518152602001868360ff166003811062000562576200056162000a92565b5b60200201518152602001858360ff166003811062000585576200058462000a92565b5b60200201518152602001600081526020016000815260200183815250600360008360ff168152602001908152602001600020600082015181600001556020820151816001015560408201518160020155606082015181600301556080820151816004015560a0820151816005015560c08201518160060155905050858160ff166003811062000619576200061862000a92565b5b6020020151826200062b919062000af0565b915080806200063a9062000cc1565b915050620000ad565b505050505050505062000cef565b600033905090565b60008060009054906101000a900473ffffffffffffffffffffffffffffffffffffffff169050816000806101000a81548173ffffffffffffffffffffffffffffffffffffffff021916908373ffffffffffffffffffffffffffffffffffffffff1602179055508173ffffffffffffffffffffffffffffffffffffffff168173ffffffffffffffffffffffffffffffffffffffff167f8be0079c531659141344cd1fd0a4f28419497f9722a3daafe3b4186f6b6457e060405160405180910390a35050565b6000604051905090565b600080fd5b600073ffffffffffffffffffffffffffffffffffffffff82169050919050565b600062000759826200072c565b9050919050565b6200076b816200074c565b81146200077757600080fd5b50565b6000815190506200078b8162000760565b92915050565b600080fd5b6000601f19601f8301169050919050565b7f4e487b7100000000000000000000000000000000000000000000000000000000600052604160045260246000fd5b620007e18262000796565b810181811067ffffffffffffffff82111715620008035762000802620007a7565b5b80604052505050565b6000620008186200071d565b9050620008268282620007d6565b919050565b600067ffffffffffffffff821115620008495762000848620007a7565b5b602082029050919050565b600080fd5b6000819050919050565b6200086e8162000859565b81146200087a57600080fd5b50565b6000815190506200088e8162000863565b92915050565b6000620008ab620008a5846200082b565b6200080c565b90508060208402830185811115620008c857620008c762000854565b5b835b81811015620008f55780620008e088826200087d565b845260208401935050602081019050620008ca565b5050509392505050565b600082601f83011262000917576200091662000791565b5b60036200092684828562000894565b91505092915050565b600067ffffffffffffffff8211156200094d576200094c620007a7565b5b602082029050919050565b60006200096f62000969846200092f565b6200080c565b905080606084028301858111156200098c576200098b62000854565b5b835b81811015620009b95780620009a48882620008ff565b8452602084019350506060810190506200098e565b5050509392505050565b600082601f830112620009db57620009da62000791565b5b6003620009ea84828562000958565b91505092915050565b6000806000806000806102c0878903121562000a145762000a1362000727565b5b600062000a2489828a016200077a565b965050602062000a3789828a01620008ff565b955050608062000a4a89828a01620008ff565b94505060e062000a5d89828a01620008ff565b93505061014062000a7189828a01620008ff565b9250506101a062000a8589828a01620009c3565b9150509295509295509295565b7f4e487b7100000000000000000000000000000000000000000000000000000000600052603260045260246000fd5b7f4e487b7100000000000000000000000000000000000000000000000000000000600052601160045260246000fd5b600062000afd8262000859565b915062000b0a8362000859565b9250827fffffffffffffffffffffffffffffffffffffffffffffffffffffffffffffffff0382111562000b425762000b4162000ac1565b5b828201905092915050565b600082825260208201905092915050565b7f496e76616c69642052616e646f6d000000000000000000000000000000000000600082015250565b600062000b96600e8362000b4d565b915062000ba38262000b5e565b602082019050919050565b6000602082019050818103600083015262000bc98162000b87565b9050919050565b7f496e76616c69642052616e646f6d2073756d0000000000000000000000000000600082015250565b600062000c0860128362000b4d565b915062000c158262000bd0565b602082019050919050565b6000602082019050818103600083015262000c3b8162000bf9565b9050919050565b7f496e76616c696420746f6b656e20636f756e7473000000000000000000000000600082015250565b600062000c7a60148362000b4d565b915062000c878262000c42565b602082019050919050565b6000602082019050818103600083015262000cad8162000c6b565b9050919050565b600060ff82169050919050565b600062000cce8262000cb4565b915060ff820362000ce45762000ce362000ac1565b5b600182019050919050565b612a708062000cff6000396000f3fe6080604052600436106101355760003560e01c80639523c4cf116100ab578063c062f5781161006f578063c062f57814610406578063c30796ab1461041d578063de2d554b1461045a578063de5fef9114610476578063ef571f36146104b3578063f2fde38b146104f057610135565b80639523c4cf1461032157806396ff2d611461034a578063ad64d06814610375578063bd8aa780146103b2578063c040e6b8146103db57610135565b80635d3dddce116100fd5780635d3dddce146102255780636e8dbfd014610262578063715018a6146102795780637a3c4c171461029057806380bd4457146102cd5780638da5cb5b146102f657610135565b8063041f173f1461013a578063185e859a1461016357806321b95ad4146101a05780633ca9d06c146101e35780633ccfd60b1461020e575b600080fd5b34801561014657600080fd5b50610161600480360381019061015c9190611d2d565b610519565b005b34801561016f57600080fd5b5061018a60048036038101906101859190611d76565b61062a565b6040516101979190611dbc565b60405180910390f35b3480156101ac57600080fd5b506101c760048036038101906101c29190611e03565b610642565b6040516101da9796959493929190611e30565b60405180910390f35b3480156101ef57600080fd5b506101f8610684565b6040516102059190611dbc565b60405180910390f35b34801561021a57600080fd5b50610223610689565b005b34801561023157600080fd5b5061024c60048036038101906102479190611e03565b610791565b6040516102599190611eae565b60405180910390f35b34801561026e57600080fd5b506102776107c4565b005b34801561028557600080fd5b5061028e6108d1565b005b34801561029c57600080fd5b506102b760048036038101906102b29190611e03565b610959565b6040516102c49190611dbc565b60405180910390f35b3480156102d957600080fd5b506102f460048036038101906102ef9190611f7a565b610ab7565b005b34801561030257600080fd5b5061030b610b91565b6040516103189190611eae565b60405180910390f35b34801561032d57600080fd5b5061034860048036038101906103439190611fa7565b610bba565b005b34801561035657600080fd5b5061035f610ef0565b60405161036c9190612046565b60405180910390f35b34801561038157600080fd5b5061039c60048036038101906103979190611e03565b610f16565b6040516103a99190611dbc565b60405180910390f35b3480156103be57600080fd5b506103d960048036038101906103d49190611d2d565b610f9b565b005b3480156103e757600080fd5b506103f06110ac565b6040516103fd9190611dbc565b60405180910390f35b34801561041257600080fd5b5061041b6110b2565b005b34801561042957600080fd5b50610444600480360381019061043f9190611d76565b611138565b604051610451919061207c565b60405180910390f35b610474600480360381019061046f9190612097565b611158565b005b34801561048257600080fd5b5061049d60048036038101906104989190611e03565b6118f2565b6040516104aa9190611dbc565b60405180910390f35b3480156104bf57600080fd5b506104da60048036038101906104d59190611fa7565b611977565b6040516104e79190611dbc565b60405180910390f35b3480156104fc57600080fd5b5061051760048036038101906105129190611d76565b61199f565b005b610521611a96565b73ffffffffffffffffffffffffffffffffffffffff1661053f610b91565b73ffffffffffffffffffffffffffffffffffffffff1614610595576040517f08c379a000000000000000000000000000000000000000000000000000000000815260040161058c90612147565b60405180910390fd5b60005b8151811015610626576000600560008484815181106105ba576105b9612167565b5b602002602001015173ffffffffffffffffffffffffffffffffffffffff1673ffffffffffffffffffffffffffffffffffffffff16815260200190815260200160002060006101000a81548160ff021916908315150217905550808061061e906121c5565b915050610598565b5050565b60066020528060005260406000206000915090505481565b60036020528060005260406000206000915090508060000154908060010154908060020154908060030154908060040154908060050154908060060154905087565b600381565b610691611a96565b73ffffffffffffffffffffffffffffffffffffffff166106af610b91565b73ffffffffffffffffffffffffffffffffffffffff1614610705576040517f08c379a00000000000000000000000000000000000000000000000000000000081526004016106fc90612147565b60405180910390fd5b60004711610748576040517f08c379a000000000000000000000000000000000000000000000000000000000815260040161073f90612259565b60405180910390fd5b3373ffffffffffffffffffffffffffffffffffffffff166108fc479081150290604051600060405180830381858888f1935050505015801561078e573d6000803e3d6000fd5b50565b60076020528060005260406000206000915054906101000a900473ffffffffffffffffffffffffffffffffffffffff1681565b6000600660003373ffffffffffffffffffffffffffffffffffffffff1673ffffffffffffffffffffffffffffffffffffffff16815260200190815260200160002054036108cf57600060095460085461081d9190612279565b905060096000815480929190610832906121c5565b919050555080600660003373ffffffffffffffffffffffffffffffffffffffff1673ffffffffffffffffffffffffffffffffffffffff16815260200190815260200160002081905550336007600083815260200190815260200160002060006101000a81548173ffffffffffffffffffffffffffffffffffffffff021916908373ffffffffffffffffffffffffffffffffffffffff160217905550505b565b6108d9611a96565b73ffffffffffffffffffffffffffffffffffffffff166108f7610b91565b73ffffffffffffffffffffffffffffffffffffffff161461094d576040517f08c379a000000000000000000000000000000000000000000000000000000000815260040161094490612147565b60405180910390fd5b6109576000611a9e565b565b6000816003811061099f576040517f08c379a00000000000000000000000000000000000000000000000000000000081526004016109969061231b565b60405180910390fd5b6000600360008581526020019081526020016000206040518060e0016040529081600082015481526020016001820154815260200160028201548152602001600382015481526020016004820154815260200160058201548152602001600682015481525050905060028160200151610a18919061236a565b816080015110158015610a4a5750600481602001516003610a39919061239b565b610a43919061236a565b8160800151105b15610a685760028160000151610a60919061239b565b925050610ab1565b600481602001516003610a7b919061239b565b610a85919061236a565b816080015110610aa85760048160000151610aa0919061239b565b925050610ab1565b80600001519250505b50919050565b610abf611a96565b73ffffffffffffffffffffffffffffffffffffffff16610add610b91565b73ffffffffffffffffffffffffffffffffffffffff1614610b33576040517f08c379a0000000000000000000000000000000000000000000000000000000008152600401610b2a90612147565b60405180910390fd5b60005b60038160ff161015610b8d57818160ff1660038110610b5857610b57612167565b5b6020020151600360008360ff168152602001908152602001600020600001819055508080610b8590612402565b915050610b36565b5050565b60008060009054906101000a900473ffffffffffffffffffffffffffffffffffffffff16905090565b610bc2611a96565b73ffffffffffffffffffffffffffffffffffffffff16610be0610b91565b73ffffffffffffffffffffffffffffffffffffffff1614610c36576040517f08c379a0000000000000000000000000000000000000000000000000000000008152600401610c2d90612147565b60405180910390fd5b8160038110610c7a576040517f08c379a0000000000000000000000000000000000000000000000000000000008152600401610c719061231b565b60405180910390fd5b600160009054906101000a900473ffffffffffffffffffffffffffffffffffffffff1673ffffffffffffffffffffffffffffffffffffffff16637501f7416040518163ffffffff1660e01b81526004016020604051808303816000875af1158015610ce9573d6000803e3d6000fd5b505050506040513d601f19601f82011682018060405250810190610d0d9190612440565b8211158015610d1c5750600082115b610d5b576040517f08c379a0000000000000000000000000000000000000000000000000000000008152600401610d52906124b9565b60405180910390fd5b60006003600085815260200190815260200160002090506000816006015490508160030154848360050154610d909190612279565b1115610dd1576040517f08c379a0000000000000000000000000000000000000000000000000000000008152600401610dc890612525565b60405180910390fd5b838260040154610de19190612279565b8260040181905550838260050154610df99190612279565b8260050181905550838260060154610e119190612279565b8260060181905550600160009054906101000a900473ffffffffffffffffffffffffffffffffffffffff1673ffffffffffffffffffffffffffffffffffffffff1663156e29f63383876040518463ffffffff1660e01b8152600401610e7893929190612545565b600060405180830381600087803b158015610e9257600080fd5b505af1158015610ea6573d6000803e3d6000fd5b505050507f1e091b45ac802e6086817527d10af044f4cc8bbbe40d89b5440e9b90959735dd3386838742604051610ee195949392919061257c565b60405180910390a15050505050565b600160009054906101000a900473ffffffffffffffffffffffffffffffffffffffff1681565b600080600360008481526020019081526020016000206040518060e0016040529081600082015481526020016001820154815260200160028201548152602001600382015481526020016004820154815260200160058201548152602001600682015481525050905080608001518160200151610f9391906125cf565b915050919050565b610fa3611a96565b73ffffffffffffffffffffffffffffffffffffffff16610fc1610b91565b73ffffffffffffffffffffffffffffffffffffffff1614611017576040517f08c379a000000000000000000000000000000000000000000000000000000000815260040161100e90612147565b60405180910390fd5b60005b81518110156110a85760016005600084848151811061103c5761103b612167565b5b602002602001015173ffffffffffffffffffffffffffffffffffffffff1673ffffffffffffffffffffffffffffffffffffffff16815260200190815260200160002060006101000a81548160ff02191690831515021790555080806110a0906121c5565b91505061101a565b5050565b60025481565b6110ba611a96565b73ffffffffffffffffffffffffffffffffffffffff166110d8610b91565b73ffffffffffffffffffffffffffffffffffffffff161461112e576040517f08c379a000000000000000000000000000000000000000000000000000000000815260040161112590612147565b60405180910390fd5b6001600281905550565b60056020528060005260406000206000915054906101000a900460ff1681565b826003811061119c576040517f08c379a00000000000000000000000000000000000000000000000000000000081526004016111939061231b565b60405180910390fd5b600160009054906101000a900473ffffffffffffffffffffffffffffffffffffffff1673ffffffffffffffffffffffffffffffffffffffff16637501f7416040518163ffffffff1660e01b81526004016020604051808303816000875af115801561120b573d6000803e3d6000fd5b505050506040513d601f19601f8201168201806040525081019061122f9190612440565b831115801561123e5750600083115b61127d576040517f08c379a0000000000000000000000000000000000000000000000000000000008152600401611274906124b9565b60405180910390fd5b60008390506000806003600088815260200190815260200160002090506000816006015490506000600254036113a357600560003373ffffffffffffffffffffffffffffffffffffffff1673ffffffffffffffffffffffffffffffffffffffff16815260200190815260200160002060009054906101000a900460ff16611339576040517f08c379a00000000000000000000000000000000000000000000000000000000081526004016113309061264f565b60405180910390fd5b8160020154878360050154846004015461135391906125cf565b61135d9190612279565b111561139e576040517f08c379a0000000000000000000000000000000000000000000000000000000008152600401611395906126e1565b60405180910390fd5b611418565b816003015482600101546113b791906125cf565b87836005015484600401546113cc91906125cf565b6113d69190612279565b1115611417576040517f08c379a000000000000000000000000000000000000000000000000000000000815260040161140e90612525565b60405180910390fd5b5b600061142389610959565b8861142e919061239b565b905080341015611473576040517f08c379a000000000000000000000000000000000000000000000000000000000815260040161146a90612773565b60405180910390fd5b6000600f444260405160200161148a9291906127b4565b6040516020818303038152906040528051906020012060001c6114ad91906127e0565b905060008a821180156114c05750600382105b80156114f257506000600460008481526020019081526020016000208c600381106114ee576114ed612167565b5b0154115b1561160b5760006003600084815260200190815260200160002090506000600254036115415780600201548160050154826004015461153191906125cf565b101561153c57600191505b611575565b8560030154866001015461155591906125cf565b8660050154876004015461156991906125cf565b101561157457600191505b5b811561160557806004016000815480929190611590906121c5565b9190505550806006015496508060060160008154809291906115b1906121c5565b9190505550600460008481526020019081526020016000208c600381106115db576115da612167565b5b0160008154809291906115ed90612811565b919050555087806115fd90612811565b985050611609565b8b92505b505b86856004015461161b9190612279565b85600401819055508685600601546116339190612279565b8560060181905550600160009054906101000a900473ffffffffffffffffffffffffffffffffffffffff1673ffffffffffffffffffffffffffffffffffffffff1663156e29f633868a6040518463ffffffff1660e01b815260040161169a93929190612545565b600060405180830381600087803b1580156116b457600080fd5b505af11580156116c8573d6000803e3d6000fd5b5050505060008611156117b057600160009054906101000a900473ffffffffffffffffffffffffffffffffffffffff1673ffffffffffffffffffffffffffffffffffffffff1663156e29f6338860016040518463ffffffff1660e01b815260040161173593929190612875565b600060405180830381600087803b15801561174f57600080fd5b505af1158015611763573d6000803e3d6000fd5b505050507f95a2a36ba8bd7986653b9d20d145fdc80d943ec36194b4ddff4e9051ba16d541338c8489600188426002546040516117a79897969594939291906128ac565b60405180910390a15b600073ffffffffffffffffffffffffffffffffffffffff16600760008b815260200190815260200160002060009054906101000a900473ffffffffffffffffffffffffffffffffffffffff1673ffffffffffffffffffffffffffffffffffffffff161461189e57600760008a815260200190815260200160002060009054906101000a900473ffffffffffffffffffffffffffffffffffffffff1673ffffffffffffffffffffffffffffffffffffffff166108fc600234611871919061236a565b9081150290604051600060405180830381858888f1935050505015801561189c573d6000803e3d6000fd5b505b7f95a2a36ba8bd7986653b9d20d145fdc80d943ec36194b4ddff4e9051ba16d541338c8d878b88426002546040516118dd98979695949392919061292a565b60405180910390a15050505050505050505050565b600080600360008481526020019081526020016000206040518060e001604052908160008201548152602001600182015481526020016002820154815260200160038201548152602001600482015481526020016005820154815260200160068201548152505090508060a00151816060015161196f91906125cf565b915050919050565b6004602052816000526040600020816003811061199357600080fd5b01600091509150505481565b6119a7611a96565b73ffffffffffffffffffffffffffffffffffffffff166119c5610b91565b73ffffffffffffffffffffffffffffffffffffffff1614611a1b576040517f08c379a0000000000000000000000000000000000000000000000000000000008152600401611a1290612147565b60405180910390fd5b600073ffffffffffffffffffffffffffffffffffffffff168173ffffffffffffffffffffffffffffffffffffffff1603611a8a576040517f08c379a0000000000000000000000000000000000000000000000000000000008152600401611a8190612a1a565b60405180910390fd5b611a9381611a9e565b50565b600033905090565b60008060009054906101000a900473ffffffffffffffffffffffffffffffffffffffff169050816000806101000a81548173ffffffffffffffffffffffffffffffffffffffff021916908373ffffffffffffffffffffffffffffffffffffffff1602179055508173ffffffffffffffffffffffffffffffffffffffff168173ffffffffffffffffffffffffffffffffffffffff167f8be0079c531659141344cd1fd0a4f28419497f9722a3daafe3b4186f6b6457e060405160405180910390a35050565b6000604051905090565b600080fd5b600080fd5b600080fd5b6000601f19601f8301169050919050565b7f4e487b7100000000000000000000000000000000000000000000000000000000600052604160045260246000fd5b611bc482611b7b565b810181811067ffffffffffffffff82111715611be357611be2611b8c565b5b80604052505050565b6000611bf6611b62565b9050611c028282611bbb565b919050565b600067ffffffffffffffff821115611c2257611c21611b8c565b5b602082029050602081019050919050565b600080fd5b600073ffffffffffffffffffffffffffffffffffffffff82169050919050565b6000611c6382611c38565b9050919050565b611c7381611c58565b8114611c7e57600080fd5b50565b600081359050611c9081611c6a565b92915050565b6000611ca9611ca484611c07565b611bec565b90508083825260208201905060208402830185811115611ccc57611ccb611c33565b5b835b81811015611cf55780611ce18882611c81565b845260208401935050602081019050611cce565b5050509392505050565b600082601f830112611d1457611d13611b76565b5b8135611d24848260208601611c96565b91505092915050565b600060208284031215611d4357611d42611b6c565b5b600082013567ffffffffffffffff811115611d6157611d60611b71565b5b611d6d84828501611cff565b91505092915050565b600060208284031215611d8c57611d8b611b6c565b5b6000611d9a84828501611c81565b91505092915050565b6000819050919050565b611db681611da3565b82525050565b6000602082019050611dd16000830184611dad565b92915050565b611de081611da3565b8114611deb57600080fd5b50565b600081359050611dfd81611dd7565b92915050565b600060208284031215611e1957611e18611b6c565b5b6000611e2784828501611dee565b91505092915050565b600060e082019050611e45600083018a611dad565b611e526020830189611dad565b611e5f6040830188611dad565b611e6c6060830187611dad565b611e796080830186611dad565b611e8660a0830185611dad565b611e9360c0830184611dad565b98975050505050505050565b611ea881611c58565b82525050565b6000602082019050611ec36000830184611e9f565b92915050565b600067ffffffffffffffff821115611ee457611ee3611b8c565b5b602082029050919050565b6000611f02611efd84611ec9565b611bec565b90508060208402830185811115611f1c57611f1b611c33565b5b835b81811015611f455780611f318882611dee565b845260208401935050602081019050611f1e565b5050509392505050565b600082601f830112611f6457611f63611b76565b5b6003611f71848285611eef565b91505092915050565b600060608284031215611f9057611f8f611b6c565b5b6000611f9e84828501611f4f565b91505092915050565b60008060408385031215611fbe57611fbd611b6c565b5b6000611fcc85828601611dee565b9250506020611fdd85828601611dee565b9150509250929050565b6000819050919050565b600061200c61200761200284611c38565b611fe7565b611c38565b9050919050565b600061201e82611ff1565b9050919050565b600061203082612013565b9050919050565b61204081612025565b82525050565b600060208201905061205b6000830184612037565b92915050565b60008115159050919050565b61207681612061565b82525050565b6000602082019050612091600083018461206d565b92915050565b6000806000606084860312156120b0576120af611b6c565b5b60006120be86828701611dee565b93505060206120cf86828701611dee565b92505060406120e086828701611dee565b9150509250925092565b600082825260208201905092915050565b7f4f776e61626c653a2063616c6c6572206973206e6f7420746865206f776e6572600082015250565b60006121316020836120ea565b915061213c826120fb565b602082019050919050565b6000602082019050818103600083015261216081612124565b9050919050565b7f4e487b7100000000000000000000000000000000000000000000000000000000600052603260045260246000fd5b7f4e487b7100000000000000000000000000000000000000000000000000000000600052601160045260246000fd5b60006121d082611da3565b91507fffffffffffffffffffffffffffffffffffffffffffffffffffffffffffffffff820361220257612201612196565b5b600182019050919050565b7f4e6f7468696e6720746f20776974686472617700000000000000000000000000600082015250565b60006122436013836120ea565b915061224e8261220d565b602082019050919050565b6000602082019050818103600083015261227281612236565b9050919050565b600061228482611da3565b915061228f83611da3565b9250827fffffffffffffffffffffffffffffffffffffffffffffffffffffffffffffffff038211156122c4576122c3612196565b5b828201905092915050565b7f496e76616c696420746f6b656e2063617465676f726965730000000000000000600082015250565b60006123056018836120ea565b9150612310826122cf565b602082019050919050565b60006020820190508181036000830152612334816122f8565b9050919050565b7f4e487b7100000000000000000000000000000000000000000000000000000000600052601260045260246000fd5b600061237582611da3565b915061238083611da3565b9250826123905761238f61233b565b5b828204905092915050565b60006123a682611da3565b91506123b183611da3565b9250817fffffffffffffffffffffffffffffffffffffffffffffffffffffffffffffffff04831182151516156123ea576123e9612196565b5b828202905092915050565b600060ff82169050919050565b600061240d826123f5565b915060ff82036124205761241f612196565b5b600182019050919050565b60008151905061243a81611dd7565b92915050565b60006020828403121561245657612455611b6c565b5b60006124648482850161242b565b91505092915050565b7f496e76616c6964206e756d626572206f6620756e697473000000000000000000600082015250565b60006124a36017836120ea565b91506124ae8261246d565b602082019050919050565b600060208201905081810360008301526124d281612496565b9050919050565b7f54686174206d75636820746f6b656e20617265206e6f74206c65667400000000600082015250565b600061250f601c836120ea565b915061251a826124d9565b602082019050919050565b6000602082019050818103600083015261253e81612502565b9050919050565b600060608201905061255a6000830186611e9f565b6125676020830185611dad565b6125746040830184611dad565b949350505050565b600060a0820190506125916000830188611e9f565b61259e6020830187611dad565b6125ab6040830186611dad565b6125b86060830185611dad565b6125c56080830184611dad565b9695505050505050565b60006125da82611da3565b91506125e583611da3565b9250828210156125f8576125f7612196565b5b828203905092915050565b7f4e6f7420656c696769626c6520746f2062757920696e2070726573616c650000600082015250565b6000612639601e836120ea565b915061264482612603565b602082019050919050565b600060208201905081810360008301526126688161262c565b9050919050565b7f54686174206d75636820746f6b656e206e6f74206c65667420696e207072657360008201527f616c650000000000000000000000000000000000000000000000000000000000602082015250565b60006126cb6023836120ea565b91506126d68261266f565b604082019050919050565b600060208201905081810360008301526126fa816126be565b9050919050565b7f5072696365206f6620746f6b656e73206973206d6f7265207468616e2074686560008201527f20676976656e0000000000000000000000000000000000000000000000000000602082015250565b600061275d6026836120ea565b915061276882612701565b604082019050919050565b6000602082019050818103600083015261278c81612750565b9050919050565b6000819050919050565b6127ae6127a982611da3565b612793565b82525050565b60006127c0828561279d565b6020820191506127d0828461279d565b6020820191508190509392505050565b60006127eb82611da3565b91506127f683611da3565b9250826128065761280561233b565b5b828206905092915050565b600061281c82611da3565b91506000820361282f5761282e612196565b5b600182039050919050565b6000819050919050565b600061285f61285a6128558461283a565b611fe7565b611da3565b9050919050565b61286f81612844565b82525050565b600060608201905061288a6000830186611e9f565b6128976020830185611dad565b6128a46040830184612866565b949350505050565b6000610100820190506128c2600083018b611e9f565b6128cf602083018a611dad565b6128dc6040830189611dad565b6128e96060830188611dad565b6128f66080830187612866565b61290360a0830186611dad565b61291060c0830185611dad565b61291d60e0830184611dad565b9998505050505050505050565b600061010082019050612940600083018b611e9f565b61294d602083018a611dad565b61295a6040830189611dad565b6129676060830188611dad565b6129746080830187611dad565b61298160a0830186611dad565b61298e60c0830185611dad565b61299b60e0830184611dad565b9998505050505050505050565b7f4f776e61626c653a206e6577206f776e657220697320746865207a65726f206160008201527f6464726573730000000000000000000000000000000000000000000000000000602082015250565b6000612a046026836120ea565b9150612a0f826129a8565b604082019050919050565b60006020820190508181036000830152612a33816129f7565b905091905056fea26469706673582212202014daab70ab4fc41b4c11430144790948fe05d123c32af1c3d0a8fb574427fe64736f6c634300080d0033",
  "immutableReferences": {},
  "source": "//SPDX-License-Identifier: UNLICENSED\r\npragma solidity ^0.8.0;\r\n\r\nimport \"@openzeppelin/contracts/access/Ownable.sol\";\r\ninterface BabyDogeNFT {\r\n    function mint(address, uint256, uint256) external;\r\n    function maxMint() external returns(uint256);\r\n    \r\n}\r\ncontract BabyDogeMarketplace is Ownable{\r\n    BabyDogeNFT public babyDogeNFT;\r\n    uint256 public constant TOTAL_CATEGORIES = 3;\r\n    struct CategoryDetail {\r\n        uint256 price;\r\n        uint256 total;\r\n        uint256 totalForPresale;\r\n        uint256 totalForOwner;\r\n        uint256 totalMinted;\r\n        uint256 totalMintedForOwner;\r\n        uint256 nextTokenId;\r\n    }\r\n    //0 = presale 1 = postSale\r\n    uint256 public stage;\r\n    //0 gold 1 platinum 2 black\r\n    mapping(uint256 => CategoryDetail) public tokenCategories;\r\n    mapping(uint256 => uint256[3]) public randomAvailable;\r\n    mapping(address => bool) public whitelistedAddress;\r\n    mapping(address => uint256) public userCodes;\r\n    mapping(uint256 => address) public codesOwner;\r\n\r\n    uint256 private baseCode = 100000;\r\n    uint256 private nextCode = 1;\r\n\r\n    //events\r\n    event buy(address buyer, uint256 requestedTokenCategory,uint256 givenTokenCategory, uint256 startTokenId, uint256 totalToken, uint256 price, uint256 boughtAt, uint256 stage);\r\n    event buyForOwner(address buyer, uint256 tokenCategory, uint256 startTokenId, uint256 totalToken, uint256 boughtAt);\r\n   \r\n    //modifer\r\n    modifier isValidCategory(uint256 _tokenCategory){\r\n        require(_tokenCategory < TOTAL_CATEGORIES, 'Invalid token categories');\r\n        _;\r\n    }\r\n    constructor(\r\n        address _babyDogeNFT, \r\n        uint256[TOTAL_CATEGORIES] memory _prices, \r\n        uint256[TOTAL_CATEGORIES] memory _total, \r\n        uint256[TOTAL_CATEGORIES] memory _totalForPresale, \r\n        uint256[TOTAL_CATEGORIES] memory _totalForOwner,\r\n        uint256[TOTAL_CATEGORIES][TOTAL_CATEGORIES] memory _random) {\r\n        babyDogeNFT = BabyDogeNFT(_babyDogeNFT);\r\n        uint256 nextTokenId = 1;\r\n        for(uint8 index = 0; index < TOTAL_CATEGORIES; index++){\r\n            if(index == 0){\r\n                require(_random[index][0] + _random[index][1] + _random[index][2] == 0, 'Invalid Random');\r\n            } else if(index == 1){\r\n                require(_random[index][1] + _random[index][2] == 0, 'Invalid Random');\r\n            } else {\r\n                require(_random[index][2] == 0, 'Invalid Random');\r\n            }\r\n            require(_random[index][0] + _random[index][1] + _random[index][2] <=  _total[index], 'Invalid Random sum');\r\n            require(_total[index] >= _totalForPresale[index] + _totalForOwner[index], 'Invalid token counts');\r\n            tokenCategories[index] = CategoryDetail(_prices[index], _total[index], _totalForPresale[index], _totalForOwner[index], 0,0, nextTokenId);\r\n            nextTokenId = nextTokenId + _total[index];\r\n        }\r\n    }\r\n\r\n    //USER FUNCTIONS\r\n    function buyToken(uint256 _tokenCategory, uint256 _totalUnits, uint256 _code) external isValidCategory(_tokenCategory) payable{\r\n        require(_totalUnits <= babyDogeNFT.maxMint() && _totalUnits > 0, 'Invalid number of units');\r\n        uint256 categoryUnit = _totalUnits;\r\n        uint256 startRandomId;\r\n        CategoryDetail storage categoryDetail = tokenCategories[_tokenCategory];\r\n        uint256 startTokenId = categoryDetail.nextTokenId;\r\n        if(stage == 0){\r\n            require(whitelistedAddress[msg.sender], 'Not eligible to buy in presale');\r\n            require(categoryDetail.totalMinted - categoryDetail.totalMintedForOwner + _totalUnits <= categoryDetail.totalForPresale, 'That much token not left in presale');\r\n        } else {\r\n            require(categoryDetail.totalMinted - categoryDetail.totalMintedForOwner + _totalUnits <= categoryDetail.total - categoryDetail.totalForOwner, 'That much token are not left');\r\n        }\r\n        uint256 price = _totalUnits * currentPrice(_tokenCategory);\r\n        require(msg.value >= price, 'Price of tokens is more than the given');\r\n        uint random = uint(keccak256(abi.encodePacked(block.difficulty, block.timestamp))) % 15;\r\n        bool randomAllowed;\r\n        if (random > _tokenCategory && random < TOTAL_CATEGORIES && randomAvailable[random][_tokenCategory] > 0){\r\n            CategoryDetail storage randomCategoryDetail = tokenCategories[random];\r\n            if(stage == 0){\r\n                if(randomCategoryDetail.totalMinted - randomCategoryDetail.totalMintedForOwner < randomCategoryDetail.totalForPresale){\r\n                    randomAllowed = true;\r\n                }\r\n            } else {\r\n                if(categoryDetail.totalMinted - categoryDetail.totalMintedForOwner < categoryDetail.total - categoryDetail.totalForOwner){\r\n                    randomAllowed = true;\r\n                }\r\n            }\r\n            if(randomAllowed){\r\n                randomCategoryDetail.totalMinted++;\r\n                startRandomId = randomCategoryDetail.nextTokenId;\r\n                randomCategoryDetail.nextTokenId++;\r\n                randomAvailable[random][_tokenCategory]--;\r\n                categoryUnit--;\r\n            }\r\n            else {\r\n                random = _tokenCategory;\r\n            }\r\n        } \r\n        categoryDetail.totalMinted = categoryDetail.totalMinted + categoryUnit;\r\n        categoryDetail.nextTokenId = categoryDetail.nextTokenId + categoryUnit;\r\n        babyDogeNFT.mint(msg.sender, startTokenId, categoryUnit);\r\n        if(startRandomId > 0){\r\n            babyDogeNFT.mint(msg.sender, startRandomId, 1);\r\n            emit buy(msg.sender, _tokenCategory, random, startRandomId, 1, price, block.timestamp, stage);\r\n        }\r\n        if(codesOwner[_code] != address(0)){\r\n            payable(codesOwner[_code]).transfer(msg.value/2);\r\n        }\r\n        emit buy(msg.sender, _tokenCategory, _tokenCategory, startTokenId, categoryUnit, price, block.timestamp, stage);\r\n     }\r\n\r\n    function generateCode() external {\r\n        if(userCodes[msg.sender] == 0){\r\n            uint256 code = baseCode + nextCode;\r\n            nextCode++;\r\n            userCodes[msg.sender] = code;\r\n            codesOwner[code] = msg.sender;\r\n        }\r\n    }\r\n\r\n    \r\n    //ADMIN FUNCTIONS\r\n    function updateStage() external onlyOwner(){\r\n        stage = 1;\r\n    }\r\n\r\n    function updatePrices(uint256[TOTAL_CATEGORIES] memory _prices) external onlyOwner(){\r\n        for(uint8 index = 0; index < TOTAL_CATEGORIES; index++){\r\n            tokenCategories[index].price = _prices[index];\r\n        }\r\n    }\r\n\r\n    function whitelist(address[] memory _userAddress) external onlyOwner(){\r\n        for(uint256 index = 0; index < _userAddress.length; index++){\r\n            whitelistedAddress[_userAddress[index]] = true;\r\n        }\r\n    }\r\n\r\n    function blacklist(address[] memory _userAddress) external onlyOwner(){\r\n        for(uint256 index = 0; index < _userAddress.length; index++){\r\n            whitelistedAddress[_userAddress[index]] = false;\r\n        }\r\n    }\r\n\r\n    function withdraw() external onlyOwner(){\r\n        require(address(this).balance > 0, 'Nothing to withdraw');\r\n        payable(msg.sender).transfer(address(this).balance);\r\n    }\r\n\r\n      function buyTokenForOwner(uint256 _tokenCategory, uint256 _totalUnits) external onlyOwner() isValidCategory(_tokenCategory){\r\n        require(_totalUnits <= babyDogeNFT.maxMint() && _totalUnits > 0, 'Invalid number of units');\r\n        CategoryDetail storage categoryDetail = tokenCategories[_tokenCategory];\r\n        uint256 startTokenId = categoryDetail.nextTokenId;\r\n        require(categoryDetail.totalMintedForOwner + _totalUnits <= categoryDetail.totalForOwner, 'That much token are not left');\r\n        categoryDetail.totalMinted = categoryDetail.totalMinted + _totalUnits;\r\n        categoryDetail.totalMintedForOwner = categoryDetail.totalMintedForOwner + _totalUnits;\r\n        categoryDetail.nextTokenId = categoryDetail.nextTokenId + _totalUnits;\r\n        babyDogeNFT.mint(msg.sender, startTokenId, _totalUnits);\r\n        emit buyForOwner(msg.sender, _tokenCategory, startTokenId, _totalUnits, block.timestamp);\r\n    }\r\n\r\n    //VIEW FUNCTIONS\r\n\r\n    function currentPrice(uint256 _category) public view isValidCategory(_category) returns(uint256) {\r\n        CategoryDetail memory categoryDetail = tokenCategories[_category];\r\n        if(categoryDetail.totalMinted >= categoryDetail.total / 2 && categoryDetail.totalMinted < 3 * categoryDetail.total / 4) {\r\n            return categoryDetail.price * 2;\r\n        } else if(categoryDetail.totalMinted >= 3 * categoryDetail.total / 4){\r\n            return categoryDetail.price * 4;\r\n        } \r\n        return categoryDetail.price;\r\n    }\r\n\r\n    function availableTokens(uint256 _category) public view returns(uint256) {\r\n        CategoryDetail memory categoryDetail = tokenCategories[_category];\r\n        return categoryDetail.total - categoryDetail.totalMinted;\r\n    }\r\n\r\n    function availableTokensForOwner(uint256 _category) public view returns(uint256) {\r\n        CategoryDetail memory categoryDetail = tokenCategories[_category];\r\n        return categoryDetail.totalForOwner - categoryDetail.totalMintedForOwner;\r\n    }\r\n }",
  "sourcePath": "C:\\Users\\USER\\Desktop\\baby Doge\\babyDoge\\contracts\\BabyDogeMarketplace.sol",
  "compiler": {
    "name": "solc",
    "version": "0.8.13+commit.abaa5c0e.Emscripten.clang"
  },
  "schemaVersion": "3.4.3",
  "updatedAt": "2022-03-22T07:31:21.014Z",
  "devdoc": {
    "kind": "dev",
    "methods": {
      "owner()": {
        "details": "Returns the address of the current owner."
      },
      "renounceOwnership()": {
        "details": "Leaves the contract without owner. It will not be possible to call `onlyOwner` functions anymore. Can only be called by the current owner. NOTE: Renouncing ownership will leave the contract without an owner, thereby removing any functionality that is only available to the owner."
      },
      "transferOwnership(address)": {
        "details": "Transfers ownership of the contract to a new account (`newOwner`). Can only be called by the current owner."
      }
    },
    "version": 1
  },
  "userdoc": {
    "kind": "user",
    "methods": {},
    "version": 1
  }
}